{
	"data": {
		"bytecode": {
			"linkReferences": {},
			"object": "60806040526002805473ae13d989dac2f0debff460ac112a837c89baa7cd6001600160a01b0319918216179091556003805461dead90831617905560048054909116905560098054601260ff1991821617909155600f8054821660019081179091556064601d8190556102e1601e90815560146021556022919091556024805460ff60a01b191690556207a120602655602780548416831761ff001916610a0017905560298054909316909117909155600a54612710910204602a55348015620000c857600080fd5b5060405162004dfb38038062004dfb833981016040819052620000eb91620006cf565b600080546001600160a01b0319163390811782558152600160208181526040909220805460ff1916909117905587516200012c91600791908a01906200054b565b508551620001429060089060208901906200054b565b50670de0b6b3a76400008502600a819055600b819055600c55835160188190556020808601516019819055604080880151601a8190556060890151601b8190559290940190930101601c55600580546001600160a01b038087166001600160a01b03199283161790925560068054868416908316179055602380549091167310ed43c718714eb63d5aa57b78b54704e256024e1790819055835163c45a015560e01b8152935191169263c45a0155926004828101939192829003018186803b1580156200020e57600080fd5b505afa15801562000223573d6000803e3d6000fd5b505050506040513d601f19601f82011682018060405250810190620002499190620006ab565b6002546040516364e329cb60e11b81526001600160a01b039283169263c9c65396926200027e929116903090600401620007d7565b602060405180830381600087803b1580156200029957600080fd5b505af1158015620002ae573d6000803e3d6000fd5b505050506040513d601f19601f82011682018060405250810190620002d49190620006ab565b602480546001600160a01b0319166001600160a01b03928316179055306000818152600e602090815260408083206023549095168352939052829020600019905590518491906200032590620005e0565b62000332929190620007d7565b604051809103906000f0801580156200034f573d6000803e3d6000fd5b50602580546001600160a01b03199081166001600160a01b0393841617909155336000818152601160209081526040808320805460ff19908116600190811790925560058054891686528386208054831684179055868652601685528386208054831684179055805489168652838620805483168417905586865260178552838620805483168417905580548916865283862080548316841790558686526014855283862080548316841790558054891686528386208054831684179055600380548a1687528487208054841685179055308088528588208054851686179055602480548c168952601388528689208054861687179055602380548d168a52878a208054871688179055828a52878a20805487168817905584548d168a52878a2080548716905583548d168a52878a20805487168817905590548c168952601588528689208054861687179055548b16885285882080548516861790558752848720805484168517905581548a168752848720805484169055548916865283862080549092169092179055601f8054871686179055548254961695909416949094178455600a54828252600d909452828120849055915190927fddf252ad1be2c89b69c2b068fc378daa952ba7f163c4a11628f55a4df523b3ef91620005369190620007f1565b60405180910390a3505050505050506200081e565b828054600181600116156101000203166002900490600052602060002090601f016020900481019282620005835760008555620005ce565b82601f106200059e57805160ff1916838001178555620005ce565b82800160010185558215620005ce579182015b82811115620005ce578251825591602001919060010190620005b1565b50620005dc929150620005ee565b5090565b6111198062003ce283390190565b5b80821115620005dc5760008155600101620005ef565b80516001600160a01b03811681146200061d57600080fd5b919050565b600082601f83011262000633578081fd5b81516001600160401b038111156200064757fe5b60206200065d601f8301601f19168201620007fa565b828152858284870101111562000671578384fd5b835b838110156200069057858101830151828201840152820162000673565b83811115620006a157848385840101525b5095945050505050565b600060208284031215620006bd578081fd5b620006c88262000605565b9392505050565b6000806000806000806000878903610140811215620006ec578384fd5b88516001600160401b038082111562000703578586fd5b620007118c838d0162000622565b995060208b015191508082111562000727578586fd5b620007358c838d0162000622565b985060408b015197506080605f198401121562000750578586fd5b604051925060808301915082821081831117156200076a57fe5b508060405250606089015181526080890151602082015260a0890151604082015260c0890151606082015280945050620007a760e0890162000605565b9250620007b8610100890162000605565b9150620007c9610120890162000605565b905092959891949750929550565b6001600160a01b0392831681529116602082015260400190565b90815260200190565b6040518181016001600160401b03811182821017156200081657fe5b604052919050565b6134b4806200082e6000396000f3fe6080604052600436106102e15760003560e01c8062851fb3146102ed5780630445b6671461031857806306fdde031461033a57806309302dc61461035c578063095ea7b31461037e5780630d295980146103ab5780631161ae39146103cb578063180b0d7e146103eb57806318160ddd146104005780631ca0a28d146104155780631d2cb02d146104355780631da1db5e1461044a578063201e79911461046a57806323b872dd1461048a57806324f8d179146104aa5780632b112e49146104ca5780632d48e896146104df5780632d594567146104ff5780632f54bf6e1461051f578063313ce5671461053f578063335f6a431461056157806333f2a6e914610581578063363f1e92146105a15780633ae2f354146105c157806344a33fd2146105d6578063571ac8b0146105f65780635e562f3b14610616578063617fe0ed146106365780636ddd17131461064b5780636e5c59ae1461066057806370a0823114610675578063722b62ad1461069557806378109e54146106aa5780637d1db4a5146106bf578063875385f3146106d4578063893d20e8146106f4578063896648c1146107095780638e2eee841461071e57806395d89b411461073e5780639d1944f514610753578063a4b45c0014610773578063a712fa4514610793578063a8aa1b31146107b3578063a9059cbb146107c8578063aaa867a0146107e8578063adf1869314610808578063b6a5d7de14610828578063bc33718214610848578063bd9ab53714610868578063be617fa014610888578063bfe109281461089d578063ca33e64c146108b2578063d2138a6d146108c7578063d51ed1c8146108e7578063dd62ed3e14610907578063df20fd4914610927578063ec72d65f14610947578063f0b37c0414610967578063f2fde38b14610987578063f887ea40146109a7578063fe575a87146109bc578063fe85b42b146109dc578063fe9fbb80146109f1578063fed0d2a114610a11578063ffb54a9914610a26576102e8565b366102e857005b600080fd5b3480156102f957600080fd5b50610302610a3b565b60405161030f9190612f9a565b60405180910390f35b34801561032457600080fd5b5061032d610a4a565b60405161030f91906133c5565b34801561034657600080fd5b5061034f610a50565b60405161030f9190613042565b34801561036857600080fd5b5061037c610377366004612ef1565b610ae6565b005b34801561038a57600080fd5b5061039e610399366004612da1565b610b2a565b60405161030f9190613002565b3480156103b757600080fd5b5061037c6103c6366004612e1d565b610b95565b3480156103d757600080fd5b5061039e6103e6366004612f09565b610bd8565b3480156103f757600080fd5b5061032d610bec565b34801561040c57600080fd5b5061032d610bf2565b34801561042157600080fd5b5061037c610430366004612c95565b610bf8565b34801561044157600080fd5b5061032d610f19565b34801561045657600080fd5b5061037c610465366004612ef1565b610f1f565b34801561047657600080fd5b5061037c610485366004612f09565b61103c565b34801561049657600080fd5b5061039e6104a5366004612c55565b61106c565b3480156104b657600080fd5b5061037c6104c5366004612d6d565b6110ee565b3480156104d657600080fd5b5061032d61113e565b3480156104eb57600080fd5b5061037c6104fa366004612f09565b611187565b34801561050b57600080fd5b5061037c61051a366004612e52565b61120c565b34801561052b57600080fd5b5061039e61053a366004612c01565b611257565b34801561054b57600080fd5b5061055461126e565b60405161030f9190613418565b34801561056d57600080fd5b5061037c61057c366004612d14565b611277565b34801561058d57600080fd5b5061037c61059c366004612d6d565b611536565b3480156105ad57600080fd5b5061037c6105bc366004612d6d565b611586565b3480156105cd57600080fd5b5061032d6116ba565b3480156105e257600080fd5b5061037c6105f1366004612ef1565b6116c0565b34801561060257600080fd5b5061039e610611366004612c01565b61171d565b34801561062257600080fd5b5061037c610631366004612e1d565b61172b565b34801561064257600080fd5b5061039e611763565b34801561065757600080fd5b5061039e61176c565b34801561066c57600080fd5b5061032d611775565b34801561068157600080fd5b5061032d610690366004612c01565b61177b565b3480156106a157600080fd5b50610554611796565b3480156106b657600080fd5b5061032d6117a4565b3480156106cb57600080fd5b5061032d6117aa565b3480156106e057600080fd5b5061037c6106ef366004612d6d565b6117b0565b34801561070057600080fd5b50610302611800565b34801561071557600080fd5b5061039e61180f565b34801561072a57600080fd5b5061037c610739366004612dcc565b611818565b34801561074a57600080fd5b5061034f6118a4565b34801561075f57600080fd5b5061037c61076e366004612ef1565b611905565b34801561077f57600080fd5b5061037c61078e366004612c1d565b61193e565b34801561079f57600080fd5b5061037c6107ae366004612e82565b611991565b3480156107bf57600080fd5b50610302611a0f565b3480156107d457600080fd5b5061039e6107e3366004612da1565b611a1e565b3480156107f457600080fd5b5061037c610803366004612d6d565b611a2b565b34801561081457600080fd5b5061037c610823366004612d6d565b611a7b565b34801561083457600080fd5b5061037c610843366004612c01565b611acb565b34801561085457600080fd5b5061037c610863366004612ef1565b611b17565b34801561087457600080fd5b5061037c610883366004612ef1565b611b41565b34801561089457600080fd5b5061032d611b7c565b3480156108a957600080fd5b50610302611b82565b3480156108be57600080fd5b50610302611b91565b3480156108d357600080fd5b5061037c6108e2366004612d6d565b611ba0565b3480156108f357600080fd5b5061032d610902366004612ef1565b611bf0565b34801561091357600080fd5b5061032d610922366004612c1d565b611c30565b34801561093357600080fd5b5061037c610942366004612e37565b611c5b565b34801561095357600080fd5b5061037c610962366004612ef1565b611c97565b34801561097357600080fd5b5061037c610982366004612c01565b611cc1565b34801561099357600080fd5b5061037c6109a2366004612c01565b611d07565b3480156109b357600080fd5b50610302611d9c565b3480156109c857600080fd5b5061039e6109d7366004612c01565b611dab565b3480156109e857600080fd5b5061032d611dc0565b3480156109fd57600080fd5b5061039e610a0c366004612c01565b611dc6565b348015610a1d57600080fd5b5061032d611de4565b348015610a3257600080fd5b5061039e611dea565b6020546001600160a01b031681565b602a5481565b60078054604080516020601f6002600019610100600188161502019095169490940493840181900481028201810190925282815260609390929091830182828015610adc5780601f10610ab157610100808354040283529160200191610adc565b820191906000526020600020905b815481529060010190602001808311610abf57829003601f168201915b5050505050905090565b610aef33611257565b610b145760405162461bcd60e51b8152600401610b0b906132ea565b60405180910390fd5b6103e881600a540281610b2357fe5b04600c5550565b336000818152600e602090815260408083206001600160a01b038716808552925280832085905551919290917f8c5be1e5ebec7d5bd14f71427d1e84f3dd0314c0f7b2291e5b200ac8c7c3b92590610b839086906133c5565b60405180910390a35060015b92915050565b610b9e33611257565b610bba5760405162461bcd60e51b8152600401610b0b906132ea565b60248054911515600160a01b0260ff60a01b19909216919091179055565b600082610be483611bf0565b119392505050565b601d5481565b600a5490565b610c0133611257565b610c1d5760405162461bcd60e51b8152600401610b0b906132ea565b6101f58310610c3e5760405162461bcd60e51b8152600401610b0b906132af565b828114610c5d5760405162461bcd60e51b8152600401610b0b90613095565b6000805b84811015610c8b57838382818110610c7557fe5b6020029190910135929092019150600101610c61565b5080610c968761177b565b1015610cb45760405162461bcd60e51b8152600401610b0b906131ae565b60005b84811015610e5957610cfc87878784818110610ccf57fe5b9050602002016020810190610ce49190612c01565b868685818110610cf057fe5b90506020020135611dfa565b5060136000878784818110610d0d57fe5b9050602002016020810190610d229190612c01565b6001600160a01b0316815260208101919091526040016000205460ff161580610d8a575060156000878784818110610d5657fe5b9050602002016020810190610d6b9190612c01565b6001600160a01b0316815260208101919091526040016000205460ff16155b15610e51576025546001600160a01b03166314b6ca96878784818110610dac57fe5b9050602002016020810190610dc19190612c01565b600d60008a8a87818110610dd157fe5b9050602002016020810190610de69190612c01565b6001600160a01b03166001600160a01b03168152602001908152602001600020546040518363ffffffff1660e01b8152600401610e24929190612fe9565b600060405180830381600087803b158015610e3e57600080fd5b505af1925050508015610e4f575060015b505b600101610cb7565b506001600160a01b03861660009081526013602052604090205460ff161580610e9b57506001600160a01b03861660009081526015602052604090205460ff16155b15610f11576025546001600160a01b038781166000908152600d602052604090819020549051630a5b654b60e11b815291909216916314b6ca9691610ee4918a91600401612fe9565b600060405180830381600087803b158015610efe57600080fd5b505af1925050508015610f0f575060015b505b505050505050565b601a5481565b610f2833611dc6565b610f445760405162461bcd60e51b8152600401610b0b90613340565b6040805160028082526060820183524792606485850204926000929091602083019080368337505060025482519293506001600160a01b031691839150600090610f8a57fe5b6001600160a01b039283166020918202929092010152600654825191169082906001908110610fb557fe5b6001600160a01b03928316602091820292909201810191909152602354905460405163b6f9de9560e01b81529183169263b6f9de9592869261100492600092889290911690429060040161300d565b6000604051808303818588803b15801561101d57600080fd5b505af1158015611031573d6000803e3d6000fd5b505050505050505050565b61104533611dc6565b6110615760405162461bcd60e51b8152600401610b0b90613340565b602191909155602255565b6001600160a01b0383166000908152600e602090815260408083203384529091528120548211156110af5760405162461bcd60e51b8152600401610b0b90613108565b6001600160a01b0384166000908152600e602090815260408083203384529091529020805483900390556110e4848484611ecc565b90505b9392505050565b6110f733611dc6565b6111135760405162461bcd60e51b8152600401610b0b90613340565b6001600160a01b03919091166000908152601560205260409020805460ff1916911515919091179055565b6004546000906111829061115a906001600160a01b031661177b565b60035461117c90611173906001600160a01b031661177b565b600a5490612449565b90612449565b905090565b61119033611dc6565b6111ac5760405162461bcd60e51b8152600401610b0b90613340565b6025546040516316a4744b60e11b81526001600160a01b0390911690632d48e896906111de908590859060040161340a565b600060405180830381600087803b1580156111f857600080fd5b505af1158015610f11573d6000803e3d6000fd5b61121533611257565b6112315760405162461bcd60e51b8152600401610b0b906132ea565b6027805460ff19169215159290921761ff00191661010060ff9290921691909102179055565b6000546001600160a01b038281169116145b919050565b60095460ff1690565b61128033611257565b61129c5760405162461bcd60e51b8152600401610b0b906132ea565b61032182106112bd5760405162461bcd60e51b8152600401610b0b90613365565b808202806112ca8661177b565b10156112e85760405162461bcd60e51b8152600401610b0b906131ae565b60005b8381101561147b5761131e8686868481811061130357fe5b90506020020160208101906113189190612c01565b85611dfa565b506013600086868481811061132f57fe5b90506020020160208101906113449190612c01565b6001600160a01b0316815260208101919091526040016000205460ff1615806113ac57506015600086868481811061137857fe5b905060200201602081019061138d9190612c01565b6001600160a01b0316815260208101919091526040016000205460ff16155b15611473576025546001600160a01b03166314b6ca968686848181106113ce57fe5b90506020020160208101906113e39190612c01565b600d60008989878181106113f357fe5b90506020020160208101906114089190612c01565b6001600160a01b03166001600160a01b03168152602001908152602001600020546040518363ffffffff1660e01b8152600401611446929190612fe9565b600060405180830381600087803b15801561146057600080fd5b505af1925050508015611471575060015b505b6001016112eb565b506001600160a01b03851660009081526013602052604090205460ff1615806114bd57506001600160a01b03851660009081526015602052604090205460ff16155b1561152f576025546001600160a01b038681166000908152600d602052604090819020549051630a5b654b60e11b815291909216916314b6ca9691611506918991600401612fe9565b600060405180830381600087803b15801561152057600080fd5b505af1925050508015610f1157505b5050505050565b61153f33611dc6565b61155b5760405162461bcd60e51b8152600401610b0b90613340565b6001600160a01b03919091166000908152601460205260409020805460ff1916911515919091179055565b61158f33611dc6565b6115ab5760405162461bcd60e51b8152600401610b0b90613340565b6001600160a01b03821630148015906115d257506024546001600160a01b03838116911614155b6115db57600080fd5b6001600160a01b0382166000908152601360205260409020805460ff1916821580159190911790915561167257602554604051630a5b654b60e11b81526001600160a01b03909116906314b6ca969061163b908590600090600401612fe9565b600060405180830381600087803b15801561165557600080fd5b505af1158015611669573d6000803e3d6000fd5b505050506116b6565b6025546001600160a01b038381166000908152600d602052604090819020549051630a5b654b60e11b815291909216916314b6ca96916111de918691600401612fe9565b5050565b60195481565b6116c933611dc6565b6116e55760405162461bcd60e51b8152600401610b0b90613340565b6040514790339060648484020480156108fc02916000818181858888f19350505050158015611718573d6000803e3d6000fd5b505050565b6000610b8f82600019610b2a565b61173433611257565b6117505760405162461bcd60e51b8152600401610b0b906132ea565b600f805460ff1916911515919091179055565b60275460ff1681565b60295460ff1681565b601b5481565b6001600160a01b03166000908152600d602052604090205490565b602754610100900460ff1681565b600c5481565b600b5481565b6117b933611dc6565b6117d55760405162461bcd60e51b8152600401610b0b90613340565b6001600160a01b03919091166000908152601260205260409020805460ff1916911515919091179055565b6000546001600160a01b031690565b600f5460ff1681565b61182133611257565b61183d5760405162461bcd60e51b8152600401610b0b906132ea565b60005b8281101561189e57816010600086868581811061185957fe5b905060200201602081019061186e9190612c01565b6001600160a01b031681526020810191909152604001600020805460ff1916911515919091179055600101611840565b50505050565b60088054604080516020601f6002600019610100600188161502019095169490940493840181900481028201810190925282815260609390929091830182828015610adc5780601f10610ab157610100808354040283529160200191610adc565b61190e33611dc6565b61192a5760405162461bcd60e51b8152600401610b0b90613340565b620b71b0811061193957600080fd5b602655565b61194733611dc6565b6119635760405162461bcd60e51b8152600401610b0b90613340565b601f80546001600160a01b039384166001600160a01b03199182161790915560208054929093169116179055565b61199a33611dc6565b6119b65760405162461bcd60e51b8152600401610b0b90613340565b81516018819055602083015160198190556040840151601a8190556060850151601b8190559190920190910101601c55601d81905560038104601c54106116b65760405162461bcd60e51b8152600401610b0b9061330a565b6024546001600160a01b031681565b60006110e7338484611ecc565b611a3433611dc6565b611a505760405162461bcd60e51b8152600401610b0b90613340565b6001600160a01b03919091166000908152601760205260409020805460ff1916911515919091179055565b611a8433611dc6565b611aa05760405162461bcd60e51b8152600401610b0b90613340565b6001600160a01b03919091166000908152601160205260409020805460ff1916911515919091179055565b611ad433611257565b611af05760405162461bcd60e51b8152600401610b0b906132ea565b6001600160a01b03166000908152600160208190526040909120805460ff19169091179055565b611b2033611dc6565b611b3c5760405162461bcd60e51b8152600401610b0b90613340565b600b55565b611b4a33611257565b611b665760405162461bcd60e51b8152600401610b0b906132ea565b6103e881600a540281611b7557fe5b04600b5550565b60185481565b6025546001600160a01b031681565b601f546001600160a01b031681565b611ba933611dc6565b611bc55760405162461bcd60e51b8152600401610b0b90613340565b6001600160a01b03919091166000908152601660205260409020805460ff1916911515919091179055565b6000610b8f611bfd61113e565b602454611c2a90611c2390600290611c1d906001600160a01b031661177b565b9061248b565b859061248b565b906124c5565b6001600160a01b039182166000908152600e6020908152604080832093909416825291909152205490565b611c6433611dc6565b611c805760405162461bcd60e51b8152600401610b0b90613340565b6029805460ff191692151592909217909155602a55565b611ca033611257565b611cbc5760405162461bcd60e51b8152600401610b0b906132ea565b601e55565b611cca33611257565b611ce65760405162461bcd60e51b8152600401610b0b906132ea565b6001600160a01b03166000908152600160205260409020805460ff19169055565b611d1033611257565b611d2c5760405162461bcd60e51b8152600401610b0b906132ea565b600080546001600160a01b0319166001600160a01b0383169081178255815260016020819052604091829020805460ff19169091179055517f04dba622d284ed0014ee4b9a6a68386be1a4c08a4913ae272de89199cc68616390611d91908390612f9a565b60405180910390a150565b6023546001600160a01b031681565b60106020526000908152604090205460ff1681565b601c5481565b6001600160a01b031660009081526001602052604090205460ff1690565b601e5481565b602454600160a01b900460ff1681565b6040805180820182526014815273496e73756666696369656e742042616c616e636560601b6020808301919091526001600160a01b0386166000908152600d90915291822054611e4b918490612504565b6001600160a01b038086166000908152600d60205260408082209390935590851681522054611e7a9083612530565b6001600160a01b038085166000818152600d6020526040908190209390935591519086169060008051602061345f83398151915290611eba9086906133c5565b60405180910390a35060019392505050565b602b5460009060ff1615611eec57611ee5848484611dfa565b90506110e7565b6001600160a01b03841660009081526001602052604090205460ff16158015611f2e57506001600160a01b03831660009081526001602052604090205460ff16155b15611f5c57602454600160a01b900460ff16611f5c5760405162461bcd60e51b8152600401610b0b906131e3565b600f5460ff1615611fc5576001600160a01b03841660009081526010602052604090205460ff16158015611fa957506001600160a01b03831660009081526010602052604090205460ff16155b611fc55760405162461bcd60e51b8152600401610b0b906133a0565b6001600160a01b03841660009081526001602052604090205460ff16158015611ff757506001600160a01b0383163014155b801561201157506003546001600160a01b03848116911614155b801561202b57506024546001600160a01b03848116911614155b801561204557506020546001600160a01b03848116911614155b801561205f5750601f546001600160a01b03848116911614155b1561209757600061206f8461177b565b9050600c5483820111156120955760405162461bcd60e51b8152600401610b0b90613252565b505b6024546001600160a01b0385811691161480156120b6575060275460ff165b80156120db57506001600160a01b03831660009081526014602052604090205460ff16155b15612140576001600160a01b03831660009081526028602052604090205442116121175760405162461bcd60e51b8152600401610b0b90613169565b6027546001600160a01b038416600090815260286020526040902061010090910460ff16420190555b61214a8483612555565b61215261259a565b1561215f5761215f6125e9565b6040805180820182526014815273496e73756666696369656e742042616c616e636560601b6020808301919091526001600160a01b0387166000908152600d90915291909120546121b1918490612504565b6001600160a01b0385166000908152600d60205260408120919091556121d685612aa4565b6121e057826121fe565b6024546121fe90869085906001600160a01b03888116911614612ac3565b6001600160a01b0385166000908152600d60205260409020549091506122249082612530565b6001600160a01b038086166000908152600d602090815260408083209490945591881681526013909152205460ff16158061227857506001600160a01b03851660009081526015602052604090205460ff16155b156122ee576025546001600160a01b038681166000908152600d602052604090819020549051630a5b654b60e11b815291909216916314b6ca96916122c1918991600401612fe9565b600060405180830381600087803b1580156122db57600080fd5b505af19250505080156122ec575060015b505b6001600160a01b03841660009081526013602052604090205460ff16158061232f57506001600160a01b03841660009081526015602052604090205460ff16155b156123a5576025546001600160a01b038581166000908152600d602052604090819020549051630a5b654b60e11b815291909216916314b6ca9691612378918891600401612fe9565b600060405180830381600087803b15801561239257600080fd5b505af19250505080156123a3575060015b505b6025546026546040516001624d3b8760e01b031981526001600160a01b039092169163ffb2c479916123d9916004016133c5565b600060405180830381600087803b1580156123f357600080fd5b505af1925050508015612404575060015b50836001600160a01b0316856001600160a01b031660008051602061345f8339815191528360405161243691906133c5565b60405180910390a3506001949350505050565b60006110e783836040518060400160405280601e81526020017f536166654d6174683a207375627472616374696f6e206f766572666c6f770000815250612504565b60008261249a57506000610b8f565b828202828482816124a757fe5b04146110e75760405162461bcd60e51b8152600401610b0b90613211565b60006110e783836040518060400160405280601a815260200179536166654d6174683a206469766973696f6e206279207a65726f60301b815250612b72565b600081848411156125285760405162461bcd60e51b8152600401610b0b9190613042565b505050900390565b6000828201838110156110e75760405162461bcd60e51b8152600401610b0b90613134565b600b548111158061257e57506001600160a01b03821660009081526016602052604090205460ff165b6116b65760405162461bcd60e51b8152600401610b0b906130dd565b6024546000906001600160a01b031633148015906125bb5750602b5460ff16155b80156125c9575060295460ff165b8015611182575050602a54306000908152600d6020526040902054101590565b602b805460ff1916600117905560215460225460009161260891610bd8565b61261457601854612617565b60005b9050600061263b6002611c2a601c54611c2a86602a5461248b90919063ffffffff16565b9050600061265482602a5461244990919063ffffffff16565b6040805160028082526060820183529293506000929091602083019080368337019050509050308160008151811061268857fe5b6001600160a01b0392831660209182029290920101526002548251911690829060019081106126b357fe5b6001600160a01b039092166020928302919091019091015247826126db575050505050612a98565b60235460405163791ac94760e01b81526001600160a01b039091169063791ac947906127149086906000908790309042906004016133ce565b600060405180830381600087803b15801561272e57600080fd5b505af1158015612742573d6000803e3d6000fd5b50505050600061275b824761244990919063ffffffff16565b9050600061277661276d8860026124c5565b601c5490612449565b9050600061278b6002611c2a8481878d61248b565b905060006127a883611c2a6019548761248b90919063ffffffff16565b905060006127c584611c2a601b548861248b90919063ffffffff16565b905060006127e285611c2a601a548961248b90919063ffffffff16565b9050602560009054906101000a90046001600160a01b03166001600160a01b031663de353ecb846040518263ffffffff1660e01b81526004016000604051808303818588803b15801561283457600080fd5b505af193505050508015612846575060015b50602560009054906101000a90046001600160a01b03166001600160a01b031663152111f7836040518263ffffffff1660e01b81526004016000604051808303818588803b15801561289757600080fd5b505af1935050505080156128a9575060015b50604080516002808252606082018352600092602083019080368337505060025482519293506001600160a01b0316918391506000906128e557fe5b6001600160a01b03928316602091820292909201015260065482519116908290600190811061291057fe5b6001600160a01b03928316602091820292909201810191909152602354905460405163b6f9de9560e01b81529183169263b6f9de9592869261295f92600092889290911690429060040161300d565b6000604051808303818588803b15801561297857600080fd5b505af115801561298c573d6000803e3d6000fd5b505050505060008b1115612a8b57602360009054906101000a90046001600160a01b03166001600160a01b031663f305d71986308e600080601f60009054906101000a90046001600160a01b0316426040518863ffffffff1660e01b81526004016129fc96959493929190612fae565b6060604051808303818588803b158015612a1557600080fd5b505af1158015612a29573d6000803e3d6000fd5b50505050506040513d601f19601f82011682018060405250810190612a4e9190612f2a565b5050507f424db2872186fa7e7afa7a5e902ed3b49a2ef19c2f5431e672462495dd6b4506858c604051612a8292919061340a565b60405180910390a15b5050505050505050505050505b602b805460ff19169055565b6001600160a01b031660009081526011602052604090205460ff161590565b60008082612ad2576064612ad6565b601e545b90506000612afc601d54606402611c2a84611c1d601c548a61248b90919063ffffffff16565b306000908152600d6020526040902054909150612b199082612530565b306000818152600d6020526040908190209290925590516001600160a01b0388169060008051602061345f83398151915290612b569085906133c5565b60405180910390a3612b688582612449565b9695505050505050565b60008183612b935760405162461bcd60e51b8152600401610b0b9190613042565b506000838581612b9f57fe5b0495945050505050565b60008083601f840112612bba578182fd5b5081356001600160401b03811115612bd0578182fd5b6020830191508360208083028501011115612bea57600080fd5b9250929050565b8035801515811461126957600080fd5b600060208284031215612c12578081fd5b81356110e781613426565b60008060408385031215612c2f578081fd5b8235612c3a81613426565b91506020830135612c4a81613426565b809150509250929050565b600080600060608486031215612c69578081fd5b8335612c7481613426565b92506020840135612c8481613426565b929592945050506040919091013590565b600080600080600060608688031215612cac578081fd5b8535612cb781613426565b945060208601356001600160401b0380821115612cd2578283fd5b612cde89838a01612ba9565b90965094506040880135915080821115612cf6578283fd5b50612d0388828901612ba9565b969995985093965092949392505050565b60008060008060608587031215612d29578384fd5b8435612d3481613426565b935060208501356001600160401b03811115612d4e578384fd5b612d5a87828801612ba9565b9598909750949560400135949350505050565b60008060408385031215612d7f578182fd5b8235612d8a81613426565b9150612d9860208401612bf1565b90509250929050565b60008060408385031215612db3578182fd5b8235612dbe81613426565b946020939093013593505050565b600080600060408486031215612de0578283fd5b83356001600160401b03811115612df5578384fd5b612e0186828701612ba9565b9094509250612e14905060208501612bf1565b90509250925092565b600060208284031215612e2e578081fd5b6110e782612bf1565b60008060408385031215612e49578182fd5b612dbe83612bf1565b60008060408385031215612e64578182fd5b612e6d83612bf1565b9150602083013560ff81168114612c4a578182fd5b60008082840360a0811215612e95578283fd5b6080811215612ea2578283fd5b50604051608081016001600160401b0381118282101715612ebf57fe5b604090815284358252602080860135908301528481013590820152606080850135908201529460809093013593505050565b600060208284031215612f02578081fd5b5035919050565b60008060408385031215612f1b578182fd5b50508035926020909101359150565b600080600060608486031215612f3e578081fd5b8351925060208401519150604084015190509250925092565b6000815180845260208085019450808401835b83811015612f8f5781516001600160a01b031687529582019590820190600101612f6a565b509495945050505050565b6001600160a01b0391909116815260200190565b6001600160a01b039687168152602081019590955260408501939093526060840191909152909216608082015260a081019190915260c00190565b6001600160a01b03929092168252602082015260400190565b901515815260200190565b6000858252608060208301526130266080830186612f57565b6001600160a01b03949094166040830152506060015292915050565b6000602080835283518082850152825b8181101561306e57858101830151858201604001528201613052565b8181111561307f5783604083870101525b50601f01601f1916929092016040019392505050565b60208082526028908201527f4d69736d61746368206265747765656e204164647265737320616e6420746f6b604082015267195b8818dbdd5b9d60c21b606082015260800190565b602080825260119082015270151608131a5b5a5d08115e18d959591959607a1b604082015260600190565b602080825260129082015271125b9cdd59999a58d95b9d08105b5bdd5b9d60721b604082015260600190565b6020808252601b908201527a536166654d6174683a206164646974696f6e206f766572666c6f7760281b604082015260600190565b60208082526025908201527f506c65617365207761697420666f7220316d696e206265747765656e2074776f604082015264206275797360d81b606082015260800190565b6020808252601b908201527a139bdd08195b9bdd59da081d1bdad95b9cc81a5b881dd85b1b195d602a1b604082015260600190565b602080825260149082015273151c98591a5b99c81b9bdd081bdc195b881e595d60621b604082015260600190565b60208082526021908201527f536166654d6174683a206d756c7469706c69636174696f6e206f766572666c6f6040820152607760f81b606082015260800190565b6020808252603e908201527f546f74616c20486f6c64696e672069732063757272656e746c79206c696d697460408201527f65642c20796f752063616e206e6f74206275792074686174206d7563682e0000606082015260800190565b6020808252602d9082015260008051602061343f83398151915260408201526c3530302061646472657373657360981b606082015260800190565b60208082526006908201526510a7aba722a960d11b604082015260600190565b6020808252601c908201527b466565732063616e6e6f74206265206d6f7265207468616e2033332560201b604082015260600190565b6020808252600b908201526a085055551213d49256915160aa1b604082015260600190565b6020808252602d9082015260008051602061343f83398151915260408201526c3830302061646472657373657360981b606082015260800190565b6020808252600b908201526a109b1858dadb1a5cdd195960aa1b604082015260600190565b90815260200190565b600086825285602083015260a060408301526133ed60a0830186612f57565b6001600160a01b0394909416606083015250608001529392505050565b918252602082015260400190565b60ff91909116815260200190565b6001600160a01b038116811461343b57600080fd5b5056fe474153204572726f723a206d61782061697264726f70206c696d697420697320ddf252ad1be2c89b69c2b068fc378daa952ba7f163c4a11628f55a4df523b3efa26469706673582212207715eae6c10f9dbcdc737993dadc20841d768321baf1a3319e7dda200f40b92464736f6c634300070600336080604052600380546001600160a01b03191673bb4cdb9cbd36b01bd1cbaebf2de08d9173bc095c1790556ec097ce7bc90715b34b9f1000000000600d55610a8c600e556509184e72a000600f5534801561005957600080fd5b50604051611119380380611119833981016040819052610078916100ee565b600480546001600160a01b03199081167310ed43c718714eb63d5aa57b78b54704e256024e1790915560008054821633179055600180546001600160a01b0394851690831617905560028054929093169116179055610120565b80516001600160a01b03811681146100e957600080fd5b919050565b60008060408385031215610100578182fd5b610109836100d2565b9150610117602084016100d2565b90509250929050565b610fea8061012f6000396000f3fe6080604052600436106100b85760003560e01c806311ce023d146100bd57806314b6ca96146100e8578063152111f71461010a57806328fd3198146101125780632d48e896146101325780633a98ef39146101525780634fab0ae814610167578063997664d71461017c578063ce7c2ac214610191578063de353ecb146101c0578063e2d2e219146101c8578063efca2eed146101dd578063f0fc6bca146101f2578063ffb2c47914610207578063ffd49c8414610227575b600080fd5b3480156100c957600080fd5b506100d261023c565b6040516100df9190610f95565b60405180910390f35b3480156100f457600080fd5b50610108610103366004610d9c565b610242565b005b610108610367565b34801561011e57600080fd5b506100d261012d366004610d82565b6105b1565b34801561013e57600080fd5b5061010861014d366004610e15565b61063d565b34801561015e57600080fd5b506100d261065f565b34801561017357600080fd5b506100d2610665565b34801561018857600080fd5b506100d261066b565b34801561019d57600080fd5b506101b16101ac366004610d82565b610671565b6040516100df93929190610f9e565b610108610692565b3480156101d457600080fd5b506100d2610845565b3480156101e957600080fd5b506100d261084b565b3480156101fe57600080fd5b50610108610851565b34801561021357600080fd5b50610108610222366004610de5565b61085c565b34801561023357600080fd5b506100d261093e565b600d5481565b6000546001600160a01b0316331461025957600080fd5b6001600160a01b038216600090815260086020526040902054156102805761028082610944565b6000811180156102a657506001600160a01b038216600090815260086020526040902054155b156102b9576102b482610a6f565b6102ec565b801580156102de57506001600160a01b03821660009081526008602052604090205415155b156102ec576102ec82610ad0565b6001600160a01b03821660009081526008602052604090205460095461031d91839161031791610bbd565b90610c08565b6009556001600160a01b038216600090815260086020526040902081905561034481610c36565b6001600160a01b0390921660009081526008602052604090206001019190915550565b6000546001600160a01b0316331461037e57600080fd5b6001546040516370a0823160e01b81526000916001600160a01b0316906370a08231906103af903090600401610e36565b60206040518083038186803b1580156103c757600080fd5b505afa1580156103db573d6000803e3d6000fd5b505050506040513d601f19601f820116820180604052508101906103ff9190610dfd565b6040805160028082526060820183529293506000929091602083019080368337505060035482519293506001600160a01b03169183915060009061043f57fe5b6001600160a01b039283166020918202929092010152600180548351921691839190811061046957fe5b6001600160a01b0392831660209182029290920101526004805460405163b6f9de9560e01b815292169163b6f9de959134916104ae9160009187913091429101610e63565b6000604051808303818588803b1580156104c757600080fd5b505af11580156104db573d6000803e3d6000fd5b50506001546040516370a0823160e01b81526000945061056f93508692506001600160a01b03909116906370a0823190610519903090600401610e36565b60206040518083038186803b15801561053157600080fd5b505afa158015610545573d6000803e3d6000fd5b505050506040513d601f19601f820116820180604052508101906105699190610dfd565b90610bbd565b600a5490915061057f9082610c08565b600a55600954600d546105a9916105a09161059a9085610c53565b90610c8d565b600c5490610c08565b600c55505050565b6001600160a01b0381166000908152600860205260408120546105d657506000610638565b6001600160a01b0382166000908152600860205260408120546105f890610c36565b6001600160a01b03841660009081526008602052604090206001015490915080821161062957600092505050610638565b6106338282610bbd565b925050505b919050565b6000546001600160a01b0316331461065457600080fd5b600e91909155600f55565b60095481565b600f5481565b600a5481565b60086020526000908152604090208054600182015460029092015490919083565b6000546001600160a01b031633146106a957600080fd5b6001546040516370a0823160e01b81526000916001600160a01b0316906370a08231906106da903090600401610e36565b60206040518083038186803b1580156106f257600080fd5b505afa158015610706573d6000803e3d6000fd5b505050506040513d601f19601f8201168201806040525081019061072a9190610dfd565b6040805160028082526060820183529293506000929091602083019080368337505060035482519293506001600160a01b03169183915060009061076a57fe5b6001600160a01b03928316602091820292909201015260025482519116908290600190811061079557fe5b6001600160a01b0392831660209182029290920101526004805460405163b6f9de9560e01b815292169163b6f9de959134916107da9160009187913091429101610e63565b6000604051808303818588803b1580156107f357600080fd5b505af1158015610807573d6000803e3d6000fd5b50506002546040516370a0823160e01b81526000945061056f93508692506001600160a01b03909116906370a0823190610519903090600401610e36565b600c5481565b600b5481565b61085a33610944565b565b6000546001600160a01b0316331461087357600080fd5b60055480610881575061093b565b6000805a905060005b848310801561089857508381105b156109365783601054106108ac5760006010555b6108d86005601054815481106108be57fe5b6000918252602090912001546001600160a01b0316610ccc565b15610909576109096005601054815481106108ef57fe5b6000918252602090912001546001600160a01b0316610944565b61091e6109175a8490610bbd565b8490610c08565b92505a6010805460019081019091559092500161088a565b505050505b50565b600e5481565b6001600160a01b0381166000908152600860205260409020546109665761093b565b6000610971826105b1565b90508015610a6b57600b546109869082610c08565b600b5560015460405163a9059cbb60e01b81526001600160a01b039091169063a9059cbb906109bb9085908590600401610e4a565b602060405180830381600087803b1580156109d557600080fd5b505af11580156109e9573d6000803e3d6000fd5b505050506040513d601f19601f82011682018060405250810190610a0d9190610dc5565b506001600160a01b03821660009081526007602090815260408083204290556008909152902060020154610a419082610c08565b6001600160a01b038316600090815260086020526040902060028101919091555461034490610c36565b5050565b600580546001600160a01b039092166000818152600660205260408120849055600184018355919091527f036b6384b5eca791c62761152d0c79bb0604c104a5fb6f4eb0703f3154bb3db090910180546001600160a01b0319169091179055565b600580546000198101908110610ae257fe5b60009182526020808320909101546001600160a01b0384811684526006909252604090922054600580549290931692918110610b1a57fe5b600091825260208083209190910180546001600160a01b0319166001600160a01b039485161790559183168152600691829052604081205460058054919392916000198101908110610b6857fe5b60009182526020808320909101546001600160a01b031683528201929092526040019020556005805480610b9857fe5b600082815260209020810160001990810180546001600160a01b031916905501905550565b6000610bff83836040518060400160405280601e81526020017f536166654d6174683a207375627472616374696f6e206f766572666c6f770000815250610d08565b90505b92915050565b600082820183811015610bff5760405162461bcd60e51b8152600401610c2d90610f1f565b60405180910390fd5b6000610c02600d5461059a600c5485610c5390919063ffffffff16565b600082610c6257506000610c02565b82820282848281610c6f57fe5b0414610bff5760405162461bcd60e51b8152600401610c2d90610f54565b6000610bff83836040518060400160405280601a815260200179536166654d6174683a206469766973696f6e206279207a65726f60301b815250610d34565b600e546001600160a01b0382166000908152600760205260408120549091429101108015610c025750600f54610d01836105b1565b1192915050565b60008184841115610d2c5760405162461bcd60e51b8152600401610c2d9190610ecc565b505050900390565b60008183610d555760405162461bcd60e51b8152600401610c2d9190610ecc565b506000838581610d6157fe5b0495945050505050565b80356001600160a01b038116811461063857600080fd5b600060208284031215610d93578081fd5b610bff82610d6b565b60008060408385031215610dae578081fd5b610db783610d6b565b946020939093013593505050565b600060208284031215610dd6578081fd5b81518015158114610bff578182fd5b600060208284031215610df6578081fd5b5035919050565b600060208284031215610e0e578081fd5b5051919050565b60008060408385031215610e27578182fd5b50508035926020909101359150565b6001600160a01b0391909116815260200190565b6001600160a01b03929092168252602082015260400190565b600060808201868352602060808185015281875180845260a0860191508289019350845b81811015610eac5784516001600160a01b031683529383019391830191600101610e87565b50506001600160a01b039690961660408501525050506060015292915050565b6000602080835283518082850152825b81811015610ef857858101830151858201604001528201610edc565b81811115610f095783604083870101525b50601f01601f1916929092016040019392505050565b6020808252601b908201527a536166654d6174683a206164646974696f6e206f766572666c6f7760281b604082015260600190565b60208082526021908201527f536166654d6174683a206d756c7469706c69636174696f6e206f766572666c6f6040820152607760f81b606082015260800190565b90815260200190565b928352602083019190915260408201526060019056fea264697066735822122069144da55a2806471a5d8a6c48daec117c61fb2557f40084dec56b14dc1b118764736f6c63430007060033",
			"opcodes": "PUSH1 0x80 PUSH1 0x40 MSTORE PUSH1 0x2 DUP1 SLOAD PUSH20 0xAE13D989DAC2F0DEBFF460AC112A837C89BAA7CD PUSH1 0x1 PUSH1 0x1 PUSH1 0xA0 SHL SUB NOT SWAP2 DUP3 AND OR SWAP1 SWAP2 SSTORE PUSH1 0x3 DUP1 SLOAD PUSH2 0xDEAD SWAP1 DUP4 AND OR SWAP1 SSTORE PUSH1 0x4 DUP1 SLOAD SWAP1 SWAP2 AND SWAP1 SSTORE PUSH1 0x9 DUP1 SLOAD PUSH1 0x12 PUSH1 0xFF NOT SWAP2 DUP3 AND OR SWAP1 SWAP2 SSTORE PUSH1 0xF DUP1 SLOAD DUP3 AND PUSH1 0x1 SWAP1 DUP2 OR SWAP1 SWAP2 SSTORE PUSH1 0x64 PUSH1 0x1D DUP2 SWAP1 SSTORE PUSH2 0x2E1 PUSH1 0x1E SWAP1 DUP2 SSTORE PUSH1 0x14 PUSH1 0x21 SSTORE PUSH1 0x22 SWAP2 SWAP1 SWAP2 SSTORE PUSH1 0x24 DUP1 SLOAD PUSH1 0xFF PUSH1 0xA0 SHL NOT AND SWAP1 SSTORE PUSH3 0x7A120 PUSH1 0x26 SSTORE PUSH1 0x27 DUP1 SLOAD DUP5 AND DUP4 OR PUSH2 0xFF00 NOT AND PUSH2 0xA00 OR SWAP1 SSTORE PUSH1 0x29 DUP1 SLOAD SWAP1 SWAP4 AND SWAP1 SWAP2 OR SWAP1 SWAP2 SSTORE PUSH1 0xA SLOAD PUSH2 0x2710 SWAP2 MUL DIV PUSH1 0x2A SSTORE CALLVALUE DUP1 ISZERO PUSH3 0xC8 JUMPI PUSH1 0x0 DUP1 REVERT JUMPDEST POP PUSH1 0x40 MLOAD PUSH3 0x4DFB CODESIZE SUB DUP1 PUSH3 0x4DFB DUP4 CODECOPY DUP2 ADD PUSH1 0x40 DUP2 SWAP1 MSTORE PUSH3 0xEB SWAP2 PUSH3 0x6CF JUMP JUMPDEST PUSH1 0x0 DUP1 SLOAD PUSH1 0x1 PUSH1 0x1 PUSH1 0xA0 SHL SUB NOT AND CALLER SWAP1 DUP2 OR DUP3 SSTORE DUP2 MSTORE PUSH1 0x1 PUSH1 0x20 DUP2 DUP2 MSTORE PUSH1 0x40 SWAP1 SWAP3 KECCAK256 DUP1 SLOAD PUSH1 0xFF NOT AND SWAP1 SWAP2 OR SWAP1 SSTORE DUP8 MLOAD PUSH3 0x12C SWAP2 PUSH1 0x7 SWAP2 SWAP1 DUP11 ADD SWAP1 PUSH3 0x54B JUMP JUMPDEST POP DUP6 MLOAD PUSH3 0x142 SWAP1 PUSH1 0x8 SWAP1 PUSH1 0x20 DUP10 ADD SWAP1 PUSH3 0x54B JUMP JUMPDEST POP PUSH8 0xDE0B6B3A7640000 DUP6 MUL PUSH1 0xA DUP2 SWAP1 SSTORE PUSH1 0xB DUP2 SWAP1 SSTORE PUSH1 0xC SSTORE DUP4 MLOAD PUSH1 0x18 DUP2 SWAP1 SSTORE PUSH1 0x20 DUP1 DUP7 ADD MLOAD PUSH1 0x19 DUP2 SWAP1 SSTORE PUSH1 0x40 DUP1 DUP9 ADD MLOAD PUSH1 0x1A DUP2 SWAP1 SSTORE PUSH1 0x60 DUP10 ADD MLOAD PUSH1 0x1B DUP2 SWAP1 SSTORE SWAP3 SWAP1 SWAP5 ADD SWAP1 SWAP4 ADD ADD PUSH1 0x1C SSTORE PUSH1 0x5 DUP1 SLOAD PUSH1 0x1 PUSH1 0x1 PUSH1 0xA0 SHL SUB DUP1 DUP8 AND PUSH1 0x1 PUSH1 0x1 PUSH1 0xA0 SHL SUB NOT SWAP3 DUP4 AND OR SWAP1 SWAP3 SSTORE PUSH1 0x6 DUP1 SLOAD DUP7 DUP5 AND SWAP1 DUP4 AND OR SWAP1 SSTORE PUSH1 0x23 DUP1 SLOAD SWAP1 SWAP2 AND PUSH20 0x10ED43C718714EB63D5AA57B78B54704E256024E OR SWAP1 DUP2 SWAP1 SSTORE DUP4 MLOAD PUSH4 0xC45A0155 PUSH1 0xE0 SHL DUP2 MSTORE SWAP4 MLOAD SWAP2 AND SWAP3 PUSH4 0xC45A0155 SWAP3 PUSH1 0x4 DUP3 DUP2 ADD SWAP4 SWAP2 SWAP3 DUP3 SWAP1 SUB ADD DUP2 DUP7 DUP1 EXTCODESIZE ISZERO DUP1 ISZERO PUSH3 0x20E JUMPI PUSH1 0x0 DUP1 REVERT JUMPDEST POP GAS STATICCALL ISZERO DUP1 ISZERO PUSH3 0x223 JUMPI RETURNDATASIZE PUSH1 0x0 DUP1 RETURNDATACOPY RETURNDATASIZE PUSH1 0x0 REVERT JUMPDEST POP POP POP POP PUSH1 0x40 MLOAD RETURNDATASIZE PUSH1 0x1F NOT PUSH1 0x1F DUP3 ADD AND DUP3 ADD DUP1 PUSH1 0x40 MSTORE POP DUP2 ADD SWAP1 PUSH3 0x249 SWAP2 SWAP1 PUSH3 0x6AB JUMP JUMPDEST PUSH1 0x2 SLOAD PUSH1 0x40 MLOAD PUSH4 0x64E329CB PUSH1 0xE1 SHL DUP2 MSTORE PUSH1 0x1 PUSH1 0x1 PUSH1 0xA0 SHL SUB SWAP3 DUP4 AND SWAP3 PUSH4 0xC9C65396 SWAP3 PUSH3 0x27E SWAP3 SWAP2 AND SWAP1 ADDRESS SWAP1 PUSH1 0x4 ADD PUSH3 0x7D7 JUMP JUMPDEST PUSH1 0x20 PUSH1 0x40 MLOAD DUP1 DUP4 SUB DUP2 PUSH1 0x0 DUP8 DUP1 EXTCODESIZE ISZERO DUP1 ISZERO PUSH3 0x299 JUMPI PUSH1 0x0 DUP1 REVERT JUMPDEST POP GAS CALL ISZERO DUP1 ISZERO PUSH3 0x2AE JUMPI RETURNDATASIZE PUSH1 0x0 DUP1 RETURNDATACOPY RETURNDATASIZE PUSH1 0x0 REVERT JUMPDEST POP POP POP POP PUSH1 0x40 MLOAD RETURNDATASIZE PUSH1 0x1F NOT PUSH1 0x1F DUP3 ADD AND DUP3 ADD DUP1 PUSH1 0x40 MSTORE POP DUP2 ADD SWAP1 PUSH3 0x2D4 SWAP2 SWAP1 PUSH3 0x6AB JUMP JUMPDEST PUSH1 0x24 DUP1 SLOAD PUSH1 0x1 PUSH1 0x1 PUSH1 0xA0 SHL SUB NOT AND PUSH1 0x1 PUSH1 0x1 PUSH1 0xA0 SHL SUB SWAP3 DUP4 AND OR SWAP1 SSTORE ADDRESS PUSH1 0x0 DUP2 DUP2 MSTORE PUSH1 0xE PUSH1 0x20 SWAP1 DUP2 MSTORE PUSH1 0x40 DUP1 DUP4 KECCAK256 PUSH1 0x23 SLOAD SWAP1 SWAP6 AND DUP4 MSTORE SWAP4 SWAP1 MSTORE DUP3 SWAP1 KECCAK256 PUSH1 0x0 NOT SWAP1 SSTORE SWAP1 MLOAD DUP5 SWAP2 SWAP1 PUSH3 0x325 SWAP1 PUSH3 0x5E0 JUMP JUMPDEST PUSH3 0x332 SWAP3 SWAP2 SWAP1 PUSH3 0x7D7 JUMP JUMPDEST PUSH1 0x40 MLOAD DUP1 SWAP2 SUB SWAP1 PUSH1 0x0 CREATE DUP1 ISZERO DUP1 ISZERO PUSH3 0x34F JUMPI RETURNDATASIZE PUSH1 0x0 DUP1 RETURNDATACOPY RETURNDATASIZE PUSH1 0x0 REVERT JUMPDEST POP PUSH1 0x25 DUP1 SLOAD PUSH1 0x1 PUSH1 0x1 PUSH1 0xA0 SHL SUB NOT SWAP1 DUP2 AND PUSH1 0x1 PUSH1 0x1 PUSH1 0xA0 SHL SUB SWAP4 DUP5 AND OR SWAP1 SWAP2 SSTORE CALLER PUSH1 0x0 DUP2 DUP2 MSTORE PUSH1 0x11 PUSH1 0x20 SWAP1 DUP2 MSTORE PUSH1 0x40 DUP1 DUP4 KECCAK256 DUP1 SLOAD PUSH1 0xFF NOT SWAP1 DUP2 AND PUSH1 0x1 SWAP1 DUP2 OR SWAP1 SWAP3 SSTORE PUSH1 0x5 DUP1 SLOAD DUP10 AND DUP7 MSTORE DUP4 DUP7 KECCAK256 DUP1 SLOAD DUP4 AND DUP5 OR SWAP1 SSTORE DUP7 DUP7 MSTORE PUSH1 0x16 DUP6 MSTORE DUP4 DUP7 KECCAK256 DUP1 SLOAD DUP4 AND DUP5 OR SWAP1 SSTORE DUP1 SLOAD DUP10 AND DUP7 MSTORE DUP4 DUP7 KECCAK256 DUP1 SLOAD DUP4 AND DUP5 OR SWAP1 SSTORE DUP7 DUP7 MSTORE PUSH1 0x17 DUP6 MSTORE DUP4 DUP7 KECCAK256 DUP1 SLOAD DUP4 AND DUP5 OR SWAP1 SSTORE DUP1 SLOAD DUP10 AND DUP7 MSTORE DUP4 DUP7 KECCAK256 DUP1 SLOAD DUP4 AND DUP5 OR SWAP1 SSTORE DUP7 DUP7 MSTORE PUSH1 0x14 DUP6 MSTORE DUP4 DUP7 KECCAK256 DUP1 SLOAD DUP4 AND DUP5 OR SWAP1 SSTORE DUP1 SLOAD DUP10 AND DUP7 MSTORE DUP4 DUP7 KECCAK256 DUP1 SLOAD DUP4 AND DUP5 OR SWAP1 SSTORE PUSH1 0x3 DUP1 SLOAD DUP11 AND DUP8 MSTORE DUP5 DUP8 KECCAK256 DUP1 SLOAD DUP5 AND DUP6 OR SWAP1 SSTORE ADDRESS DUP1 DUP9 MSTORE DUP6 DUP9 KECCAK256 DUP1 SLOAD DUP6 AND DUP7 OR SWAP1 SSTORE PUSH1 0x24 DUP1 SLOAD DUP13 AND DUP10 MSTORE PUSH1 0x13 DUP9 MSTORE DUP7 DUP10 KECCAK256 DUP1 SLOAD DUP7 AND DUP8 OR SWAP1 SSTORE PUSH1 0x23 DUP1 SLOAD DUP14 AND DUP11 MSTORE DUP8 DUP11 KECCAK256 DUP1 SLOAD DUP8 AND DUP9 OR SWAP1 SSTORE DUP3 DUP11 MSTORE DUP8 DUP11 KECCAK256 DUP1 SLOAD DUP8 AND DUP9 OR SWAP1 SSTORE DUP5 SLOAD DUP14 AND DUP11 MSTORE DUP8 DUP11 KECCAK256 DUP1 SLOAD DUP8 AND SWAP1 SSTORE DUP4 SLOAD DUP14 AND DUP11 MSTORE DUP8 DUP11 KECCAK256 DUP1 SLOAD DUP8 AND DUP9 OR SWAP1 SSTORE SWAP1 SLOAD DUP13 AND DUP10 MSTORE PUSH1 0x15 DUP9 MSTORE DUP7 DUP10 KECCAK256 DUP1 SLOAD DUP7 AND DUP8 OR SWAP1 SSTORE SLOAD DUP12 AND DUP9 MSTORE DUP6 DUP9 KECCAK256 DUP1 SLOAD DUP6 AND DUP7 OR SWAP1 SSTORE DUP8 MSTORE DUP5 DUP8 KECCAK256 DUP1 SLOAD DUP5 AND DUP6 OR SWAP1 SSTORE DUP2 SLOAD DUP11 AND DUP8 MSTORE DUP5 DUP8 KECCAK256 DUP1 SLOAD DUP5 AND SWAP1 SSTORE SLOAD DUP10 AND DUP7 MSTORE DUP4 DUP7 KECCAK256 DUP1 SLOAD SWAP1 SWAP3 AND SWAP1 SWAP3 OR SWAP1 SSTORE PUSH1 0x1F DUP1 SLOAD DUP8 AND DUP7 OR SWAP1 SSTORE SLOAD DUP3 SLOAD SWAP7 AND SWAP6 SWAP1 SWAP5 AND SWAP5 SWAP1 SWAP5 OR DUP5 SSTORE PUSH1 0xA SLOAD DUP3 DUP3 MSTORE PUSH1 0xD SWAP1 SWAP5 MSTORE DUP3 DUP2 KECCAK256 DUP5 SWAP1 SSTORE SWAP2 MLOAD SWAP1 SWAP3 PUSH32 0xDDF252AD1BE2C89B69C2B068FC378DAA952BA7F163C4A11628F55A4DF523B3EF SWAP2 PUSH3 0x536 SWAP2 SWAP1 PUSH3 0x7F1 JUMP JUMPDEST PUSH1 0x40 MLOAD DUP1 SWAP2 SUB SWAP1 LOG3 POP POP POP POP POP POP POP PUSH3 0x81E JUMP JUMPDEST DUP3 DUP1 SLOAD PUSH1 0x1 DUP2 PUSH1 0x1 AND ISZERO PUSH2 0x100 MUL SUB AND PUSH1 0x2 SWAP1 DIV SWAP1 PUSH1 0x0 MSTORE PUSH1 0x20 PUSH1 0x0 KECCAK256 SWAP1 PUSH1 0x1F ADD PUSH1 0x20 SWAP1 DIV DUP2 ADD SWAP3 DUP3 PUSH3 0x583 JUMPI PUSH1 0x0 DUP6 SSTORE PUSH3 0x5CE JUMP JUMPDEST DUP3 PUSH1 0x1F LT PUSH3 0x59E JUMPI DUP1 MLOAD PUSH1 0xFF NOT AND DUP4 DUP1 ADD OR DUP6 SSTORE PUSH3 0x5CE JUMP JUMPDEST DUP3 DUP1 ADD PUSH1 0x1 ADD DUP6 SSTORE DUP3 ISZERO PUSH3 0x5CE JUMPI SWAP2 DUP3 ADD JUMPDEST DUP3 DUP2 GT ISZERO PUSH3 0x5CE JUMPI DUP3 MLOAD DUP3 SSTORE SWAP2 PUSH1 0x20 ADD SWAP2 SWAP1 PUSH1 0x1 ADD SWAP1 PUSH3 0x5B1 JUMP JUMPDEST POP PUSH3 0x5DC SWAP3 SWAP2 POP PUSH3 0x5EE JUMP JUMPDEST POP SWAP1 JUMP JUMPDEST PUSH2 0x1119 DUP1 PUSH3 0x3CE2 DUP4 CODECOPY ADD SWAP1 JUMP JUMPDEST JUMPDEST DUP1 DUP3 GT ISZERO PUSH3 0x5DC JUMPI PUSH1 0x0 DUP2 SSTORE PUSH1 0x1 ADD PUSH3 0x5EF JUMP JUMPDEST DUP1 MLOAD PUSH1 0x1 PUSH1 0x1 PUSH1 0xA0 SHL SUB DUP2 AND DUP2 EQ PUSH3 0x61D JUMPI PUSH1 0x0 DUP1 REVERT JUMPDEST SWAP2 SWAP1 POP JUMP JUMPDEST PUSH1 0x0 DUP3 PUSH1 0x1F DUP4 ADD SLT PUSH3 0x633 JUMPI DUP1 DUP2 REVERT JUMPDEST DUP2 MLOAD PUSH1 0x1 PUSH1 0x1 PUSH1 0x40 SHL SUB DUP2 GT ISZERO PUSH3 0x647 JUMPI INVALID JUMPDEST PUSH1 0x20 PUSH3 0x65D PUSH1 0x1F DUP4 ADD PUSH1 0x1F NOT AND DUP3 ADD PUSH3 0x7FA JUMP JUMPDEST DUP3 DUP2 MSTORE DUP6 DUP3 DUP5 DUP8 ADD ADD GT ISZERO PUSH3 0x671 JUMPI DUP4 DUP5 REVERT JUMPDEST DUP4 JUMPDEST DUP4 DUP2 LT ISZERO PUSH3 0x690 JUMPI DUP6 DUP2 ADD DUP4 ADD MLOAD DUP3 DUP3 ADD DUP5 ADD MSTORE DUP3 ADD PUSH3 0x673 JUMP JUMPDEST DUP4 DUP2 GT ISZERO PUSH3 0x6A1 JUMPI DUP5 DUP4 DUP6 DUP5 ADD ADD MSTORE JUMPDEST POP SWAP6 SWAP5 POP POP POP POP POP JUMP JUMPDEST PUSH1 0x0 PUSH1 0x20 DUP3 DUP5 SUB SLT ISZERO PUSH3 0x6BD JUMPI DUP1 DUP2 REVERT JUMPDEST PUSH3 0x6C8 DUP3 PUSH3 0x605 JUMP JUMPDEST SWAP4 SWAP3 POP POP POP JUMP JUMPDEST PUSH1 0x0 DUP1 PUSH1 0x0 DUP1 PUSH1 0x0 DUP1 PUSH1 0x0 DUP8 DUP10 SUB PUSH2 0x140 DUP2 SLT ISZERO PUSH3 0x6EC JUMPI DUP4 DUP5 REVERT JUMPDEST DUP9 MLOAD PUSH1 0x1 PUSH1 0x1 PUSH1 0x40 SHL SUB DUP1 DUP3 GT ISZERO PUSH3 0x703 JUMPI DUP6 DUP7 REVERT JUMPDEST PUSH3 0x711 DUP13 DUP4 DUP14 ADD PUSH3 0x622 JUMP JUMPDEST SWAP10 POP PUSH1 0x20 DUP12 ADD MLOAD SWAP2 POP DUP1 DUP3 GT ISZERO PUSH3 0x727 JUMPI DUP6 DUP7 REVERT JUMPDEST PUSH3 0x735 DUP13 DUP4 DUP14 ADD PUSH3 0x622 JUMP JUMPDEST SWAP9 POP PUSH1 0x40 DUP12 ADD MLOAD SWAP8 POP PUSH1 0x80 PUSH1 0x5F NOT DUP5 ADD SLT ISZERO PUSH3 0x750 JUMPI DUP6 DUP7 REVERT JUMPDEST PUSH1 0x40 MLOAD SWAP3 POP PUSH1 0x80 DUP4 ADD SWAP2 POP DUP3 DUP3 LT DUP2 DUP4 GT OR ISZERO PUSH3 0x76A JUMPI INVALID JUMPDEST POP DUP1 PUSH1 0x40 MSTORE POP PUSH1 0x60 DUP10 ADD MLOAD DUP2 MSTORE PUSH1 0x80 DUP10 ADD MLOAD PUSH1 0x20 DUP3 ADD MSTORE PUSH1 0xA0 DUP10 ADD MLOAD PUSH1 0x40 DUP3 ADD MSTORE PUSH1 0xC0 DUP10 ADD MLOAD PUSH1 0x60 DUP3 ADD MSTORE DUP1 SWAP5 POP POP PUSH3 0x7A7 PUSH1 0xE0 DUP10 ADD PUSH3 0x605 JUMP JUMPDEST SWAP3 POP PUSH3 0x7B8 PUSH2 0x100 DUP10 ADD PUSH3 0x605 JUMP JUMPDEST SWAP2 POP PUSH3 0x7C9 PUSH2 0x120 DUP10 ADD PUSH3 0x605 JUMP JUMPDEST SWAP1 POP SWAP3 SWAP6 SWAP9 SWAP2 SWAP5 SWAP8 POP SWAP3 SWAP6 POP JUMP JUMPDEST PUSH1 0x1 PUSH1 0x1 PUSH1 0xA0 SHL SUB SWAP3 DUP4 AND DUP2 MSTORE SWAP2 AND PUSH1 0x20 DUP3 ADD MSTORE PUSH1 0x40 ADD SWAP1 JUMP JUMPDEST SWAP1 DUP2 MSTORE PUSH1 0x20 ADD SWAP1 JUMP JUMPDEST PUSH1 0x40 MLOAD DUP2 DUP2 ADD PUSH1 0x1 PUSH1 0x1 PUSH1 0x40 SHL SUB DUP2 GT DUP3 DUP3 LT OR ISZERO PUSH3 0x816 JUMPI INVALID JUMPDEST PUSH1 0x40 MSTORE SWAP2 SWAP1 POP JUMP JUMPDEST PUSH2 0x34B4 DUP1 PUSH3 0x82E PUSH1 0x0 CODECOPY PUSH1 0x0 RETURN INVALID PUSH1 0x80 PUSH1 0x40 MSTORE PUSH1 0x4 CALLDATASIZE LT PUSH2 0x2E1 JUMPI PUSH1 0x0 CALLDATALOAD PUSH1 0xE0 SHR DUP1 PUSH3 0x851FB3 EQ PUSH2 0x2ED JUMPI DUP1 PUSH4 0x445B667 EQ PUSH2 0x318 JUMPI DUP1 PUSH4 0x6FDDE03 EQ PUSH2 0x33A JUMPI DUP1 PUSH4 0x9302DC6 EQ PUSH2 0x35C JUMPI DUP1 PUSH4 0x95EA7B3 EQ PUSH2 0x37E JUMPI DUP1 PUSH4 0xD295980 EQ PUSH2 0x3AB JUMPI DUP1 PUSH4 0x1161AE39 EQ PUSH2 0x3CB JUMPI DUP1 PUSH4 0x180B0D7E EQ PUSH2 0x3EB JUMPI DUP1 PUSH4 0x18160DDD EQ PUSH2 0x400 JUMPI DUP1 PUSH4 0x1CA0A28D EQ PUSH2 0x415 JUMPI DUP1 PUSH4 0x1D2CB02D EQ PUSH2 0x435 JUMPI DUP1 PUSH4 0x1DA1DB5E EQ PUSH2 0x44A JUMPI DUP1 PUSH4 0x201E7991 EQ PUSH2 0x46A JUMPI DUP1 PUSH4 0x23B872DD EQ PUSH2 0x48A JUMPI DUP1 PUSH4 0x24F8D179 EQ PUSH2 0x4AA JUMPI DUP1 PUSH4 0x2B112E49 EQ PUSH2 0x4CA JUMPI DUP1 PUSH4 0x2D48E896 EQ PUSH2 0x4DF JUMPI DUP1 PUSH4 0x2D594567 EQ PUSH2 0x4FF JUMPI DUP1 PUSH4 0x2F54BF6E EQ PUSH2 0x51F JUMPI DUP1 PUSH4 0x313CE567 EQ PUSH2 0x53F JUMPI DUP1 PUSH4 0x335F6A43 EQ PUSH2 0x561 JUMPI DUP1 PUSH4 0x33F2A6E9 EQ PUSH2 0x581 JUMPI DUP1 PUSH4 0x363F1E92 EQ PUSH2 0x5A1 JUMPI DUP1 PUSH4 0x3AE2F354 EQ PUSH2 0x5C1 JUMPI DUP1 PUSH4 0x44A33FD2 EQ PUSH2 0x5D6 JUMPI DUP1 PUSH4 0x571AC8B0 EQ PUSH2 0x5F6 JUMPI DUP1 PUSH4 0x5E562F3B EQ PUSH2 0x616 JUMPI DUP1 PUSH4 0x617FE0ED EQ PUSH2 0x636 JUMPI DUP1 PUSH4 0x6DDD1713 EQ PUSH2 0x64B JUMPI DUP1 PUSH4 0x6E5C59AE EQ PUSH2 0x660 JUMPI DUP1 PUSH4 0x70A08231 EQ PUSH2 0x675 JUMPI DUP1 PUSH4 0x722B62AD EQ PUSH2 0x695 JUMPI DUP1 PUSH4 0x78109E54 EQ PUSH2 0x6AA JUMPI DUP1 PUSH4 0x7D1DB4A5 EQ PUSH2 0x6BF JUMPI DUP1 PUSH4 0x875385F3 EQ PUSH2 0x6D4 JUMPI DUP1 PUSH4 0x893D20E8 EQ PUSH2 0x6F4 JUMPI DUP1 PUSH4 0x896648C1 EQ PUSH2 0x709 JUMPI DUP1 PUSH4 0x8E2EEE84 EQ PUSH2 0x71E JUMPI DUP1 PUSH4 0x95D89B41 EQ PUSH2 0x73E JUMPI DUP1 PUSH4 0x9D1944F5 EQ PUSH2 0x753 JUMPI DUP1 PUSH4 0xA4B45C00 EQ PUSH2 0x773 JUMPI DUP1 PUSH4 0xA712FA45 EQ PUSH2 0x793 JUMPI DUP1 PUSH4 0xA8AA1B31 EQ PUSH2 0x7B3 JUMPI DUP1 PUSH4 0xA9059CBB EQ PUSH2 0x7C8 JUMPI DUP1 PUSH4 0xAAA867A0 EQ PUSH2 0x7E8 JUMPI DUP1 PUSH4 0xADF18693 EQ PUSH2 0x808 JUMPI DUP1 PUSH4 0xB6A5D7DE EQ PUSH2 0x828 JUMPI DUP1 PUSH4 0xBC337182 EQ PUSH2 0x848 JUMPI DUP1 PUSH4 0xBD9AB537 EQ PUSH2 0x868 JUMPI DUP1 PUSH4 0xBE617FA0 EQ PUSH2 0x888 JUMPI DUP1 PUSH4 0xBFE10928 EQ PUSH2 0x89D JUMPI DUP1 PUSH4 0xCA33E64C EQ PUSH2 0x8B2 JUMPI DUP1 PUSH4 0xD2138A6D EQ PUSH2 0x8C7 JUMPI DUP1 PUSH4 0xD51ED1C8 EQ PUSH2 0x8E7 JUMPI DUP1 PUSH4 0xDD62ED3E EQ PUSH2 0x907 JUMPI DUP1 PUSH4 0xDF20FD49 EQ PUSH2 0x927 JUMPI DUP1 PUSH4 0xEC72D65F EQ PUSH2 0x947 JUMPI DUP1 PUSH4 0xF0B37C04 EQ PUSH2 0x967 JUMPI DUP1 PUSH4 0xF2FDE38B EQ PUSH2 0x987 JUMPI DUP1 PUSH4 0xF887EA40 EQ PUSH2 0x9A7 JUMPI DUP1 PUSH4 0xFE575A87 EQ PUSH2 0x9BC JUMPI DUP1 PUSH4 0xFE85B42B EQ PUSH2 0x9DC JUMPI DUP1 PUSH4 0xFE9FBB80 EQ PUSH2 0x9F1 JUMPI DUP1 PUSH4 0xFED0D2A1 EQ PUSH2 0xA11 JUMPI DUP1 PUSH4 0xFFB54A99 EQ PUSH2 0xA26 JUMPI PUSH2 0x2E8 JUMP JUMPDEST CALLDATASIZE PUSH2 0x2E8 JUMPI STOP JUMPDEST PUSH1 0x0 DUP1 REVERT JUMPDEST CALLVALUE DUP1 ISZERO PUSH2 0x2F9 JUMPI PUSH1 0x0 DUP1 REVERT JUMPDEST POP PUSH2 0x302 PUSH2 0xA3B JUMP JUMPDEST PUSH1 0x40 MLOAD PUSH2 0x30F SWAP2 SWAP1 PUSH2 0x2F9A JUMP JUMPDEST PUSH1 0x40 MLOAD DUP1 SWAP2 SUB SWAP1 RETURN JUMPDEST CALLVALUE DUP1 ISZERO PUSH2 0x324 JUMPI PUSH1 0x0 DUP1 REVERT JUMPDEST POP PUSH2 0x32D PUSH2 0xA4A JUMP JUMPDEST PUSH1 0x40 MLOAD PUSH2 0x30F SWAP2 SWAP1 PUSH2 0x33C5 JUMP JUMPDEST CALLVALUE DUP1 ISZERO PUSH2 0x346 JUMPI PUSH1 0x0 DUP1 REVERT JUMPDEST POP PUSH2 0x34F PUSH2 0xA50 JUMP JUMPDEST PUSH1 0x40 MLOAD PUSH2 0x30F SWAP2 SWAP1 PUSH2 0x3042 JUMP JUMPDEST CALLVALUE DUP1 ISZERO PUSH2 0x368 JUMPI PUSH1 0x0 DUP1 REVERT JUMPDEST POP PUSH2 0x37C PUSH2 0x377 CALLDATASIZE PUSH1 0x4 PUSH2 0x2EF1 JUMP JUMPDEST PUSH2 0xAE6 JUMP JUMPDEST STOP JUMPDEST CALLVALUE DUP1 ISZERO PUSH2 0x38A JUMPI PUSH1 0x0 DUP1 REVERT JUMPDEST POP PUSH2 0x39E PUSH2 0x399 CALLDATASIZE PUSH1 0x4 PUSH2 0x2DA1 JUMP JUMPDEST PUSH2 0xB2A JUMP JUMPDEST PUSH1 0x40 MLOAD PUSH2 0x30F SWAP2 SWAP1 PUSH2 0x3002 JUMP JUMPDEST CALLVALUE DUP1 ISZERO PUSH2 0x3B7 JUMPI PUSH1 0x0 DUP1 REVERT JUMPDEST POP PUSH2 0x37C PUSH2 0x3C6 CALLDATASIZE PUSH1 0x4 PUSH2 0x2E1D JUMP JUMPDEST PUSH2 0xB95 JUMP JUMPDEST CALLVALUE DUP1 ISZERO PUSH2 0x3D7 JUMPI PUSH1 0x0 DUP1 REVERT JUMPDEST POP PUSH2 0x39E PUSH2 0x3E6 CALLDATASIZE PUSH1 0x4 PUSH2 0x2F09 JUMP JUMPDEST PUSH2 0xBD8 JUMP JUMPDEST CALLVALUE DUP1 ISZERO PUSH2 0x3F7 JUMPI PUSH1 0x0 DUP1 REVERT JUMPDEST POP PUSH2 0x32D PUSH2 0xBEC JUMP JUMPDEST CALLVALUE DUP1 ISZERO PUSH2 0x40C JUMPI PUSH1 0x0 DUP1 REVERT JUMPDEST POP PUSH2 0x32D PUSH2 0xBF2 JUMP JUMPDEST CALLVALUE DUP1 ISZERO PUSH2 0x421 JUMPI PUSH1 0x0 DUP1 REVERT JUMPDEST POP PUSH2 0x37C PUSH2 0x430 CALLDATASIZE PUSH1 0x4 PUSH2 0x2C95 JUMP JUMPDEST PUSH2 0xBF8 JUMP JUMPDEST CALLVALUE DUP1 ISZERO PUSH2 0x441 JUMPI PUSH1 0x0 DUP1 REVERT JUMPDEST POP PUSH2 0x32D PUSH2 0xF19 JUMP JUMPDEST CALLVALUE DUP1 ISZERO PUSH2 0x456 JUMPI PUSH1 0x0 DUP1 REVERT JUMPDEST POP PUSH2 0x37C PUSH2 0x465 CALLDATASIZE PUSH1 0x4 PUSH2 0x2EF1 JUMP JUMPDEST PUSH2 0xF1F JUMP JUMPDEST CALLVALUE DUP1 ISZERO PUSH2 0x476 JUMPI PUSH1 0x0 DUP1 REVERT JUMPDEST POP PUSH2 0x37C PUSH2 0x485 CALLDATASIZE PUSH1 0x4 PUSH2 0x2F09 JUMP JUMPDEST PUSH2 0x103C JUMP JUMPDEST CALLVALUE DUP1 ISZERO PUSH2 0x496 JUMPI PUSH1 0x0 DUP1 REVERT JUMPDEST POP PUSH2 0x39E PUSH2 0x4A5 CALLDATASIZE PUSH1 0x4 PUSH2 0x2C55 JUMP JUMPDEST PUSH2 0x106C JUMP JUMPDEST CALLVALUE DUP1 ISZERO PUSH2 0x4B6 JUMPI PUSH1 0x0 DUP1 REVERT JUMPDEST POP PUSH2 0x37C PUSH2 0x4C5 CALLDATASIZE PUSH1 0x4 PUSH2 0x2D6D JUMP JUMPDEST PUSH2 0x10EE JUMP JUMPDEST CALLVALUE DUP1 ISZERO PUSH2 0x4D6 JUMPI PUSH1 0x0 DUP1 REVERT JUMPDEST POP PUSH2 0x32D PUSH2 0x113E JUMP JUMPDEST CALLVALUE DUP1 ISZERO PUSH2 0x4EB JUMPI PUSH1 0x0 DUP1 REVERT JUMPDEST POP PUSH2 0x37C PUSH2 0x4FA CALLDATASIZE PUSH1 0x4 PUSH2 0x2F09 JUMP JUMPDEST PUSH2 0x1187 JUMP JUMPDEST CALLVALUE DUP1 ISZERO PUSH2 0x50B JUMPI PUSH1 0x0 DUP1 REVERT JUMPDEST POP PUSH2 0x37C PUSH2 0x51A CALLDATASIZE PUSH1 0x4 PUSH2 0x2E52 JUMP JUMPDEST PUSH2 0x120C JUMP JUMPDEST CALLVALUE DUP1 ISZERO PUSH2 0x52B JUMPI PUSH1 0x0 DUP1 REVERT JUMPDEST POP PUSH2 0x39E PUSH2 0x53A CALLDATASIZE PUSH1 0x4 PUSH2 0x2C01 JUMP JUMPDEST PUSH2 0x1257 JUMP JUMPDEST CALLVALUE DUP1 ISZERO PUSH2 0x54B JUMPI PUSH1 0x0 DUP1 REVERT JUMPDEST POP PUSH2 0x554 PUSH2 0x126E JUMP JUMPDEST PUSH1 0x40 MLOAD PUSH2 0x30F SWAP2 SWAP1 PUSH2 0x3418 JUMP JUMPDEST CALLVALUE DUP1 ISZERO PUSH2 0x56D JUMPI PUSH1 0x0 DUP1 REVERT JUMPDEST POP PUSH2 0x37C PUSH2 0x57C CALLDATASIZE PUSH1 0x4 PUSH2 0x2D14 JUMP JUMPDEST PUSH2 0x1277 JUMP JUMPDEST CALLVALUE DUP1 ISZERO PUSH2 0x58D JUMPI PUSH1 0x0 DUP1 REVERT JUMPDEST POP PUSH2 0x37C PUSH2 0x59C CALLDATASIZE PUSH1 0x4 PUSH2 0x2D6D JUMP JUMPDEST PUSH2 0x1536 JUMP JUMPDEST CALLVALUE DUP1 ISZERO PUSH2 0x5AD JUMPI PUSH1 0x0 DUP1 REVERT JUMPDEST POP PUSH2 0x37C PUSH2 0x5BC CALLDATASIZE PUSH1 0x4 PUSH2 0x2D6D JUMP JUMPDEST PUSH2 0x1586 JUMP JUMPDEST CALLVALUE DUP1 ISZERO PUSH2 0x5CD JUMPI PUSH1 0x0 DUP1 REVERT JUMPDEST POP PUSH2 0x32D PUSH2 0x16BA JUMP JUMPDEST CALLVALUE DUP1 ISZERO PUSH2 0x5E2 JUMPI PUSH1 0x0 DUP1 REVERT JUMPDEST POP PUSH2 0x37C PUSH2 0x5F1 CALLDATASIZE PUSH1 0x4 PUSH2 0x2EF1 JUMP JUMPDEST PUSH2 0x16C0 JUMP JUMPDEST CALLVALUE DUP1 ISZERO PUSH2 0x602 JUMPI PUSH1 0x0 DUP1 REVERT JUMPDEST POP PUSH2 0x39E PUSH2 0x611 CALLDATASIZE PUSH1 0x4 PUSH2 0x2C01 JUMP JUMPDEST PUSH2 0x171D JUMP JUMPDEST CALLVALUE DUP1 ISZERO PUSH2 0x622 JUMPI PUSH1 0x0 DUP1 REVERT JUMPDEST POP PUSH2 0x37C PUSH2 0x631 CALLDATASIZE PUSH1 0x4 PUSH2 0x2E1D JUMP JUMPDEST PUSH2 0x172B JUMP JUMPDEST CALLVALUE DUP1 ISZERO PUSH2 0x642 JUMPI PUSH1 0x0 DUP1 REVERT JUMPDEST POP PUSH2 0x39E PUSH2 0x1763 JUMP JUMPDEST CALLVALUE DUP1 ISZERO PUSH2 0x657 JUMPI PUSH1 0x0 DUP1 REVERT JUMPDEST POP PUSH2 0x39E PUSH2 0x176C JUMP JUMPDEST CALLVALUE DUP1 ISZERO PUSH2 0x66C JUMPI PUSH1 0x0 DUP1 REVERT JUMPDEST POP PUSH2 0x32D PUSH2 0x1775 JUMP JUMPDEST CALLVALUE DUP1 ISZERO PUSH2 0x681 JUMPI PUSH1 0x0 DUP1 REVERT JUMPDEST POP PUSH2 0x32D PUSH2 0x690 CALLDATASIZE PUSH1 0x4 PUSH2 0x2C01 JUMP JUMPDEST PUSH2 0x177B JUMP JUMPDEST CALLVALUE DUP1 ISZERO PUSH2 0x6A1 JUMPI PUSH1 0x0 DUP1 REVERT JUMPDEST POP PUSH2 0x554 PUSH2 0x1796 JUMP JUMPDEST CALLVALUE DUP1 ISZERO PUSH2 0x6B6 JUMPI PUSH1 0x0 DUP1 REVERT JUMPDEST POP PUSH2 0x32D PUSH2 0x17A4 JUMP JUMPDEST CALLVALUE DUP1 ISZERO PUSH2 0x6CB JUMPI PUSH1 0x0 DUP1 REVERT JUMPDEST POP PUSH2 0x32D PUSH2 0x17AA JUMP JUMPDEST CALLVALUE DUP1 ISZERO PUSH2 0x6E0 JUMPI PUSH1 0x0 DUP1 REVERT JUMPDEST POP PUSH2 0x37C PUSH2 0x6EF CALLDATASIZE PUSH1 0x4 PUSH2 0x2D6D JUMP JUMPDEST PUSH2 0x17B0 JUMP JUMPDEST CALLVALUE DUP1 ISZERO PUSH2 0x700 JUMPI PUSH1 0x0 DUP1 REVERT JUMPDEST POP PUSH2 0x302 PUSH2 0x1800 JUMP JUMPDEST CALLVALUE DUP1 ISZERO PUSH2 0x715 JUMPI PUSH1 0x0 DUP1 REVERT JUMPDEST POP PUSH2 0x39E PUSH2 0x180F JUMP JUMPDEST CALLVALUE DUP1 ISZERO PUSH2 0x72A JUMPI PUSH1 0x0 DUP1 REVERT JUMPDEST POP PUSH2 0x37C PUSH2 0x739 CALLDATASIZE PUSH1 0x4 PUSH2 0x2DCC JUMP JUMPDEST PUSH2 0x1818 JUMP JUMPDEST CALLVALUE DUP1 ISZERO PUSH2 0x74A JUMPI PUSH1 0x0 DUP1 REVERT JUMPDEST POP PUSH2 0x34F PUSH2 0x18A4 JUMP JUMPDEST CALLVALUE DUP1 ISZERO PUSH2 0x75F JUMPI PUSH1 0x0 DUP1 REVERT JUMPDEST POP PUSH2 0x37C PUSH2 0x76E CALLDATASIZE PUSH1 0x4 PUSH2 0x2EF1 JUMP JUMPDEST PUSH2 0x1905 JUMP JUMPDEST CALLVALUE DUP1 ISZERO PUSH2 0x77F JUMPI PUSH1 0x0 DUP1 REVERT JUMPDEST POP PUSH2 0x37C PUSH2 0x78E CALLDATASIZE PUSH1 0x4 PUSH2 0x2C1D JUMP JUMPDEST PUSH2 0x193E JUMP JUMPDEST CALLVALUE DUP1 ISZERO PUSH2 0x79F JUMPI PUSH1 0x0 DUP1 REVERT JUMPDEST POP PUSH2 0x37C PUSH2 0x7AE CALLDATASIZE PUSH1 0x4 PUSH2 0x2E82 JUMP JUMPDEST PUSH2 0x1991 JUMP JUMPDEST CALLVALUE DUP1 ISZERO PUSH2 0x7BF JUMPI PUSH1 0x0 DUP1 REVERT JUMPDEST POP PUSH2 0x302 PUSH2 0x1A0F JUMP JUMPDEST CALLVALUE DUP1 ISZERO PUSH2 0x7D4 JUMPI PUSH1 0x0 DUP1 REVERT JUMPDEST POP PUSH2 0x39E PUSH2 0x7E3 CALLDATASIZE PUSH1 0x4 PUSH2 0x2DA1 JUMP JUMPDEST PUSH2 0x1A1E JUMP JUMPDEST CALLVALUE DUP1 ISZERO PUSH2 0x7F4 JUMPI PUSH1 0x0 DUP1 REVERT JUMPDEST POP PUSH2 0x37C PUSH2 0x803 CALLDATASIZE PUSH1 0x4 PUSH2 0x2D6D JUMP JUMPDEST PUSH2 0x1A2B JUMP JUMPDEST CALLVALUE DUP1 ISZERO PUSH2 0x814 JUMPI PUSH1 0x0 DUP1 REVERT JUMPDEST POP PUSH2 0x37C PUSH2 0x823 CALLDATASIZE PUSH1 0x4 PUSH2 0x2D6D JUMP JUMPDEST PUSH2 0x1A7B JUMP JUMPDEST CALLVALUE DUP1 ISZERO PUSH2 0x834 JUMPI PUSH1 0x0 DUP1 REVERT JUMPDEST POP PUSH2 0x37C PUSH2 0x843 CALLDATASIZE PUSH1 0x4 PUSH2 0x2C01 JUMP JUMPDEST PUSH2 0x1ACB JUMP JUMPDEST CALLVALUE DUP1 ISZERO PUSH2 0x854 JUMPI PUSH1 0x0 DUP1 REVERT JUMPDEST POP PUSH2 0x37C PUSH2 0x863 CALLDATASIZE PUSH1 0x4 PUSH2 0x2EF1 JUMP JUMPDEST PUSH2 0x1B17 JUMP JUMPDEST CALLVALUE DUP1 ISZERO PUSH2 0x874 JUMPI PUSH1 0x0 DUP1 REVERT JUMPDEST POP PUSH2 0x37C PUSH2 0x883 CALLDATASIZE PUSH1 0x4 PUSH2 0x2EF1 JUMP JUMPDEST PUSH2 0x1B41 JUMP JUMPDEST CALLVALUE DUP1 ISZERO PUSH2 0x894 JUMPI PUSH1 0x0 DUP1 REVERT JUMPDEST POP PUSH2 0x32D PUSH2 0x1B7C JUMP JUMPDEST CALLVALUE DUP1 ISZERO PUSH2 0x8A9 JUMPI PUSH1 0x0 DUP1 REVERT JUMPDEST POP PUSH2 0x302 PUSH2 0x1B82 JUMP JUMPDEST CALLVALUE DUP1 ISZERO PUSH2 0x8BE JUMPI PUSH1 0x0 DUP1 REVERT JUMPDEST POP PUSH2 0x302 PUSH2 0x1B91 JUMP JUMPDEST CALLVALUE DUP1 ISZERO PUSH2 0x8D3 JUMPI PUSH1 0x0 DUP1 REVERT JUMPDEST POP PUSH2 0x37C PUSH2 0x8E2 CALLDATASIZE PUSH1 0x4 PUSH2 0x2D6D JUMP JUMPDEST PUSH2 0x1BA0 JUMP JUMPDEST CALLVALUE DUP1 ISZERO PUSH2 0x8F3 JUMPI PUSH1 0x0 DUP1 REVERT JUMPDEST POP PUSH2 0x32D PUSH2 0x902 CALLDATASIZE PUSH1 0x4 PUSH2 0x2EF1 JUMP JUMPDEST PUSH2 0x1BF0 JUMP JUMPDEST CALLVALUE DUP1 ISZERO PUSH2 0x913 JUMPI PUSH1 0x0 DUP1 REVERT JUMPDEST POP PUSH2 0x32D PUSH2 0x922 CALLDATASIZE PUSH1 0x4 PUSH2 0x2C1D JUMP JUMPDEST PUSH2 0x1C30 JUMP JUMPDEST CALLVALUE DUP1 ISZERO PUSH2 0x933 JUMPI PUSH1 0x0 DUP1 REVERT JUMPDEST POP PUSH2 0x37C PUSH2 0x942 CALLDATASIZE PUSH1 0x4 PUSH2 0x2E37 JUMP JUMPDEST PUSH2 0x1C5B JUMP JUMPDEST CALLVALUE DUP1 ISZERO PUSH2 0x953 JUMPI PUSH1 0x0 DUP1 REVERT JUMPDEST POP PUSH2 0x37C PUSH2 0x962 CALLDATASIZE PUSH1 0x4 PUSH2 0x2EF1 JUMP JUMPDEST PUSH2 0x1C97 JUMP JUMPDEST CALLVALUE DUP1 ISZERO PUSH2 0x973 JUMPI PUSH1 0x0 DUP1 REVERT JUMPDEST POP PUSH2 0x37C PUSH2 0x982 CALLDATASIZE PUSH1 0x4 PUSH2 0x2C01 JUMP JUMPDEST PUSH2 0x1CC1 JUMP JUMPDEST CALLVALUE DUP1 ISZERO PUSH2 0x993 JUMPI PUSH1 0x0 DUP1 REVERT JUMPDEST POP PUSH2 0x37C PUSH2 0x9A2 CALLDATASIZE PUSH1 0x4 PUSH2 0x2C01 JUMP JUMPDEST PUSH2 0x1D07 JUMP JUMPDEST CALLVALUE DUP1 ISZERO PUSH2 0x9B3 JUMPI PUSH1 0x0 DUP1 REVERT JUMPDEST POP PUSH2 0x302 PUSH2 0x1D9C JUMP JUMPDEST CALLVALUE DUP1 ISZERO PUSH2 0x9C8 JUMPI PUSH1 0x0 DUP1 REVERT JUMPDEST POP PUSH2 0x39E PUSH2 0x9D7 CALLDATASIZE PUSH1 0x4 PUSH2 0x2C01 JUMP JUMPDEST PUSH2 0x1DAB JUMP JUMPDEST CALLVALUE DUP1 ISZERO PUSH2 0x9E8 JUMPI PUSH1 0x0 DUP1 REVERT JUMPDEST POP PUSH2 0x32D PUSH2 0x1DC0 JUMP JUMPDEST CALLVALUE DUP1 ISZERO PUSH2 0x9FD JUMPI PUSH1 0x0 DUP1 REVERT JUMPDEST POP PUSH2 0x39E PUSH2 0xA0C CALLDATASIZE PUSH1 0x4 PUSH2 0x2C01 JUMP JUMPDEST PUSH2 0x1DC6 JUMP JUMPDEST CALLVALUE DUP1 ISZERO PUSH2 0xA1D JUMPI PUSH1 0x0 DUP1 REVERT JUMPDEST POP PUSH2 0x32D PUSH2 0x1DE4 JUMP JUMPDEST CALLVALUE DUP1 ISZERO PUSH2 0xA32 JUMPI PUSH1 0x0 DUP1 REVERT JUMPDEST POP PUSH2 0x39E PUSH2 0x1DEA JUMP JUMPDEST PUSH1 0x20 SLOAD PUSH1 0x1 PUSH1 0x1 PUSH1 0xA0 SHL SUB AND DUP2 JUMP JUMPDEST PUSH1 0x2A SLOAD DUP2 JUMP JUMPDEST PUSH1 0x7 DUP1 SLOAD PUSH1 0x40 DUP1 MLOAD PUSH1 0x20 PUSH1 0x1F PUSH1 0x2 PUSH1 0x0 NOT PUSH2 0x100 PUSH1 0x1 DUP9 AND ISZERO MUL ADD SWAP1 SWAP6 AND SWAP5 SWAP1 SWAP5 DIV SWAP4 DUP5 ADD DUP2 SWAP1 DIV DUP2 MUL DUP3 ADD DUP2 ADD SWAP1 SWAP3 MSTORE DUP3 DUP2 MSTORE PUSH1 0x60 SWAP4 SWAP1 SWAP3 SWAP1 SWAP2 DUP4 ADD DUP3 DUP3 DUP1 ISZERO PUSH2 0xADC JUMPI DUP1 PUSH1 0x1F LT PUSH2 0xAB1 JUMPI PUSH2 0x100 DUP1 DUP4 SLOAD DIV MUL DUP4 MSTORE SWAP2 PUSH1 0x20 ADD SWAP2 PUSH2 0xADC JUMP JUMPDEST DUP3 ADD SWAP2 SWAP1 PUSH1 0x0 MSTORE PUSH1 0x20 PUSH1 0x0 KECCAK256 SWAP1 JUMPDEST DUP2 SLOAD DUP2 MSTORE SWAP1 PUSH1 0x1 ADD SWAP1 PUSH1 0x20 ADD DUP1 DUP4 GT PUSH2 0xABF JUMPI DUP3 SWAP1 SUB PUSH1 0x1F AND DUP3 ADD SWAP2 JUMPDEST POP POP POP POP POP SWAP1 POP SWAP1 JUMP JUMPDEST PUSH2 0xAEF CALLER PUSH2 0x1257 JUMP JUMPDEST PUSH2 0xB14 JUMPI PUSH1 0x40 MLOAD PUSH3 0x461BCD PUSH1 0xE5 SHL DUP2 MSTORE PUSH1 0x4 ADD PUSH2 0xB0B SWAP1 PUSH2 0x32EA JUMP JUMPDEST PUSH1 0x40 MLOAD DUP1 SWAP2 SUB SWAP1 REVERT JUMPDEST PUSH2 0x3E8 DUP2 PUSH1 0xA SLOAD MUL DUP2 PUSH2 0xB23 JUMPI INVALID JUMPDEST DIV PUSH1 0xC SSTORE POP JUMP JUMPDEST CALLER PUSH1 0x0 DUP2 DUP2 MSTORE PUSH1 0xE PUSH1 0x20 SWAP1 DUP2 MSTORE PUSH1 0x40 DUP1 DUP4 KECCAK256 PUSH1 0x1 PUSH1 0x1 PUSH1 0xA0 SHL SUB DUP8 AND DUP1 DUP6 MSTORE SWAP3 MSTORE DUP1 DUP4 KECCAK256 DUP6 SWAP1 SSTORE MLOAD SWAP2 SWAP3 SWAP1 SWAP2 PUSH32 0x8C5BE1E5EBEC7D5BD14F71427D1E84F3DD0314C0F7B2291E5B200AC8C7C3B925 SWAP1 PUSH2 0xB83 SWAP1 DUP7 SWAP1 PUSH2 0x33C5 JUMP JUMPDEST PUSH1 0x40 MLOAD DUP1 SWAP2 SUB SWAP1 LOG3 POP PUSH1 0x1 JUMPDEST SWAP3 SWAP2 POP POP JUMP JUMPDEST PUSH2 0xB9E CALLER PUSH2 0x1257 JUMP JUMPDEST PUSH2 0xBBA JUMPI PUSH1 0x40 MLOAD PUSH3 0x461BCD PUSH1 0xE5 SHL DUP2 MSTORE PUSH1 0x4 ADD PUSH2 0xB0B SWAP1 PUSH2 0x32EA JUMP JUMPDEST PUSH1 0x24 DUP1 SLOAD SWAP2 ISZERO ISZERO PUSH1 0x1 PUSH1 0xA0 SHL MUL PUSH1 0xFF PUSH1 0xA0 SHL NOT SWAP1 SWAP3 AND SWAP2 SWAP1 SWAP2 OR SWAP1 SSTORE JUMP JUMPDEST PUSH1 0x0 DUP3 PUSH2 0xBE4 DUP4 PUSH2 0x1BF0 JUMP JUMPDEST GT SWAP4 SWAP3 POP POP POP JUMP JUMPDEST PUSH1 0x1D SLOAD DUP2 JUMP JUMPDEST PUSH1 0xA SLOAD SWAP1 JUMP JUMPDEST PUSH2 0xC01 CALLER PUSH2 0x1257 JUMP JUMPDEST PUSH2 0xC1D JUMPI PUSH1 0x40 MLOAD PUSH3 0x461BCD PUSH1 0xE5 SHL DUP2 MSTORE PUSH1 0x4 ADD PUSH2 0xB0B SWAP1 PUSH2 0x32EA JUMP JUMPDEST PUSH2 0x1F5 DUP4 LT PUSH2 0xC3E JUMPI PUSH1 0x40 MLOAD PUSH3 0x461BCD PUSH1 0xE5 SHL DUP2 MSTORE PUSH1 0x4 ADD PUSH2 0xB0B SWAP1 PUSH2 0x32AF JUMP JUMPDEST DUP3 DUP2 EQ PUSH2 0xC5D JUMPI PUSH1 0x40 MLOAD PUSH3 0x461BCD PUSH1 0xE5 SHL DUP2 MSTORE PUSH1 0x4 ADD PUSH2 0xB0B SWAP1 PUSH2 0x3095 JUMP JUMPDEST PUSH1 0x0 DUP1 JUMPDEST DUP5 DUP2 LT ISZERO PUSH2 0xC8B JUMPI DUP4 DUP4 DUP3 DUP2 DUP2 LT PUSH2 0xC75 JUMPI INVALID JUMPDEST PUSH1 0x20 MUL SWAP2 SWAP1 SWAP2 ADD CALLDATALOAD SWAP3 SWAP1 SWAP3 ADD SWAP2 POP PUSH1 0x1 ADD PUSH2 0xC61 JUMP JUMPDEST POP DUP1 PUSH2 0xC96 DUP8 PUSH2 0x177B JUMP JUMPDEST LT ISZERO PUSH2 0xCB4 JUMPI PUSH1 0x40 MLOAD PUSH3 0x461BCD PUSH1 0xE5 SHL DUP2 MSTORE PUSH1 0x4 ADD PUSH2 0xB0B SWAP1 PUSH2 0x31AE JUMP JUMPDEST PUSH1 0x0 JUMPDEST DUP5 DUP2 LT ISZERO PUSH2 0xE59 JUMPI PUSH2 0xCFC DUP8 DUP8 DUP8 DUP5 DUP2 DUP2 LT PUSH2 0xCCF JUMPI INVALID JUMPDEST SWAP1 POP PUSH1 0x20 MUL ADD PUSH1 0x20 DUP2 ADD SWAP1 PUSH2 0xCE4 SWAP2 SWAP1 PUSH2 0x2C01 JUMP JUMPDEST DUP7 DUP7 DUP6 DUP2 DUP2 LT PUSH2 0xCF0 JUMPI INVALID JUMPDEST SWAP1 POP PUSH1 0x20 MUL ADD CALLDATALOAD PUSH2 0x1DFA JUMP JUMPDEST POP PUSH1 0x13 PUSH1 0x0 DUP8 DUP8 DUP5 DUP2 DUP2 LT PUSH2 0xD0D JUMPI INVALID JUMPDEST SWAP1 POP PUSH1 0x20 MUL ADD PUSH1 0x20 DUP2 ADD SWAP1 PUSH2 0xD22 SWAP2 SWAP1 PUSH2 0x2C01 JUMP JUMPDEST PUSH1 0x1 PUSH1 0x1 PUSH1 0xA0 SHL SUB AND DUP2 MSTORE PUSH1 0x20 DUP2 ADD SWAP2 SWAP1 SWAP2 MSTORE PUSH1 0x40 ADD PUSH1 0x0 KECCAK256 SLOAD PUSH1 0xFF AND ISZERO DUP1 PUSH2 0xD8A JUMPI POP PUSH1 0x15 PUSH1 0x0 DUP8 DUP8 DUP5 DUP2 DUP2 LT PUSH2 0xD56 JUMPI INVALID JUMPDEST SWAP1 POP PUSH1 0x20 MUL ADD PUSH1 0x20 DUP2 ADD SWAP1 PUSH2 0xD6B SWAP2 SWAP1 PUSH2 0x2C01 JUMP JUMPDEST PUSH1 0x1 PUSH1 0x1 PUSH1 0xA0 SHL SUB AND DUP2 MSTORE PUSH1 0x20 DUP2 ADD SWAP2 SWAP1 SWAP2 MSTORE PUSH1 0x40 ADD PUSH1 0x0 KECCAK256 SLOAD PUSH1 0xFF AND ISZERO JUMPDEST ISZERO PUSH2 0xE51 JUMPI PUSH1 0x25 SLOAD PUSH1 0x1 PUSH1 0x1 PUSH1 0xA0 SHL SUB AND PUSH4 0x14B6CA96 DUP8 DUP8 DUP5 DUP2 DUP2 LT PUSH2 0xDAC JUMPI INVALID JUMPDEST SWAP1 POP PUSH1 0x20 MUL ADD PUSH1 0x20 DUP2 ADD SWAP1 PUSH2 0xDC1 SWAP2 SWAP1 PUSH2 0x2C01 JUMP JUMPDEST PUSH1 0xD PUSH1 0x0 DUP11 DUP11 DUP8 DUP2 DUP2 LT PUSH2 0xDD1 JUMPI INVALID JUMPDEST SWAP1 POP PUSH1 0x20 MUL ADD PUSH1 0x20 DUP2 ADD SWAP1 PUSH2 0xDE6 SWAP2 SWAP1 PUSH2 0x2C01 JUMP JUMPDEST PUSH1 0x1 PUSH1 0x1 PUSH1 0xA0 SHL SUB AND PUSH1 0x1 PUSH1 0x1 PUSH1 0xA0 SHL SUB AND DUP2 MSTORE PUSH1 0x20 ADD SWAP1 DUP2 MSTORE PUSH1 0x20 ADD PUSH1 0x0 KECCAK256 SLOAD PUSH1 0x40 MLOAD DUP4 PUSH4 0xFFFFFFFF AND PUSH1 0xE0 SHL DUP2 MSTORE PUSH1 0x4 ADD PUSH2 0xE24 SWAP3 SWAP2 SWAP1 PUSH2 0x2FE9 JUMP JUMPDEST PUSH1 0x0 PUSH1 0x40 MLOAD DUP1 DUP4 SUB DUP2 PUSH1 0x0 DUP8 DUP1 EXTCODESIZE ISZERO DUP1 ISZERO PUSH2 0xE3E JUMPI PUSH1 0x0 DUP1 REVERT JUMPDEST POP GAS CALL SWAP3 POP POP POP DUP1 ISZERO PUSH2 0xE4F JUMPI POP PUSH1 0x1 JUMPDEST POP JUMPDEST PUSH1 0x1 ADD PUSH2 0xCB7 JUMP JUMPDEST POP PUSH1 0x1 PUSH1 0x1 PUSH1 0xA0 SHL SUB DUP7 AND PUSH1 0x0 SWAP1 DUP2 MSTORE PUSH1 0x13 PUSH1 0x20 MSTORE PUSH1 0x40 SWAP1 KECCAK256 SLOAD PUSH1 0xFF AND ISZERO DUP1 PUSH2 0xE9B JUMPI POP PUSH1 0x1 PUSH1 0x1 PUSH1 0xA0 SHL SUB DUP7 AND PUSH1 0x0 SWAP1 DUP2 MSTORE PUSH1 0x15 PUSH1 0x20 MSTORE PUSH1 0x40 SWAP1 KECCAK256 SLOAD PUSH1 0xFF AND ISZERO JUMPDEST ISZERO PUSH2 0xF11 JUMPI PUSH1 0x25 SLOAD PUSH1 0x1 PUSH1 0x1 PUSH1 0xA0 SHL SUB DUP8 DUP2 AND PUSH1 0x0 SWAP1 DUP2 MSTORE PUSH1 0xD PUSH1 0x20 MSTORE PUSH1 0x40 SWAP1 DUP2 SWAP1 KECCAK256 SLOAD SWAP1 MLOAD PUSH4 0xA5B654B PUSH1 0xE1 SHL DUP2 MSTORE SWAP2 SWAP1 SWAP3 AND SWAP2 PUSH4 0x14B6CA96 SWAP2 PUSH2 0xEE4 SWAP2 DUP11 SWAP2 PUSH1 0x4 ADD PUSH2 0x2FE9 JUMP JUMPDEST PUSH1 0x0 PUSH1 0x40 MLOAD DUP1 DUP4 SUB DUP2 PUSH1 0x0 DUP8 DUP1 EXTCODESIZE ISZERO DUP1 ISZERO PUSH2 0xEFE JUMPI PUSH1 0x0 DUP1 REVERT JUMPDEST POP GAS CALL SWAP3 POP POP POP DUP1 ISZERO PUSH2 0xF0F JUMPI POP PUSH1 0x1 JUMPDEST POP JUMPDEST POP POP POP POP POP POP JUMP JUMPDEST PUSH1 0x1A SLOAD DUP2 JUMP JUMPDEST PUSH2 0xF28 CALLER PUSH2 0x1DC6 JUMP JUMPDEST PUSH2 0xF44 JUMPI PUSH1 0x40 MLOAD PUSH3 0x461BCD PUSH1 0xE5 SHL DUP2 MSTORE PUSH1 0x4 ADD PUSH2 0xB0B SWAP1 PUSH2 0x3340 JUMP JUMPDEST PUSH1 0x40 DUP1 MLOAD PUSH1 0x2 DUP1 DUP3 MSTORE PUSH1 0x60 DUP3 ADD DUP4 MSTORE SELFBALANCE SWAP3 PUSH1 0x64 DUP6 DUP6 MUL DIV SWAP3 PUSH1 0x0 SWAP3 SWAP1 SWAP2 PUSH1 0x20 DUP4 ADD SWAP1 DUP1 CALLDATASIZE DUP4 CALLDATACOPY POP POP PUSH1 0x2 SLOAD DUP3 MLOAD SWAP3 SWAP4 POP PUSH1 0x1 PUSH1 0x1 PUSH1 0xA0 SHL SUB AND SWAP2 DUP4 SWAP2 POP PUSH1 0x0 SWAP1 PUSH2 0xF8A JUMPI INVALID JUMPDEST PUSH1 0x1 PUSH1 0x1 PUSH1 0xA0 SHL SUB SWAP3 DUP4 AND PUSH1 0x20 SWAP2 DUP3 MUL SWAP3 SWAP1 SWAP3 ADD ADD MSTORE PUSH1 0x6 SLOAD DUP3 MLOAD SWAP2 AND SWAP1 DUP3 SWAP1 PUSH1 0x1 SWAP1 DUP2 LT PUSH2 0xFB5 JUMPI INVALID JUMPDEST PUSH1 0x1 PUSH1 0x1 PUSH1 0xA0 SHL SUB SWAP3 DUP4 AND PUSH1 0x20 SWAP2 DUP3 MUL SWAP3 SWAP1 SWAP3 ADD DUP2 ADD SWAP2 SWAP1 SWAP2 MSTORE PUSH1 0x23 SLOAD SWAP1 SLOAD PUSH1 0x40 MLOAD PUSH4 0xB6F9DE95 PUSH1 0xE0 SHL DUP2 MSTORE SWAP2 DUP4 AND SWAP3 PUSH4 0xB6F9DE95 SWAP3 DUP7 SWAP3 PUSH2 0x1004 SWAP3 PUSH1 0x0 SWAP3 DUP9 SWAP3 SWAP1 SWAP2 AND SWAP1 TIMESTAMP SWAP1 PUSH1 0x4 ADD PUSH2 0x300D JUMP JUMPDEST PUSH1 0x0 PUSH1 0x40 MLOAD DUP1 DUP4 SUB DUP2 DUP6 DUP9 DUP1 EXTCODESIZE ISZERO DUP1 ISZERO PUSH2 0x101D JUMPI PUSH1 0x0 DUP1 REVERT JUMPDEST POP GAS CALL ISZERO DUP1 ISZERO PUSH2 0x1031 JUMPI RETURNDATASIZE PUSH1 0x0 DUP1 RETURNDATACOPY RETURNDATASIZE PUSH1 0x0 REVERT JUMPDEST POP POP POP POP POP POP POP POP POP JUMP JUMPDEST PUSH2 0x1045 CALLER PUSH2 0x1DC6 JUMP JUMPDEST PUSH2 0x1061 JUMPI PUSH1 0x40 MLOAD PUSH3 0x461BCD PUSH1 0xE5 SHL DUP2 MSTORE PUSH1 0x4 ADD PUSH2 0xB0B SWAP1 PUSH2 0x3340 JUMP JUMPDEST PUSH1 0x21 SWAP2 SWAP1 SWAP2 SSTORE PUSH1 0x22 SSTORE JUMP JUMPDEST PUSH1 0x1 PUSH1 0x1 PUSH1 0xA0 SHL SUB DUP4 AND PUSH1 0x0 SWAP1 DUP2 MSTORE PUSH1 0xE PUSH1 0x20 SWAP1 DUP2 MSTORE PUSH1 0x40 DUP1 DUP4 KECCAK256 CALLER DUP5 MSTORE SWAP1 SWAP2 MSTORE DUP2 KECCAK256 SLOAD DUP3 GT ISZERO PUSH2 0x10AF JUMPI PUSH1 0x40 MLOAD PUSH3 0x461BCD PUSH1 0xE5 SHL DUP2 MSTORE PUSH1 0x4 ADD PUSH2 0xB0B SWAP1 PUSH2 0x3108 JUMP JUMPDEST PUSH1 0x1 PUSH1 0x1 PUSH1 0xA0 SHL SUB DUP5 AND PUSH1 0x0 SWAP1 DUP2 MSTORE PUSH1 0xE PUSH1 0x20 SWAP1 DUP2 MSTORE PUSH1 0x40 DUP1 DUP4 KECCAK256 CALLER DUP5 MSTORE SWAP1 SWAP2 MSTORE SWAP1 KECCAK256 DUP1 SLOAD DUP4 SWAP1 SUB SWAP1 SSTORE PUSH2 0x10E4 DUP5 DUP5 DUP5 PUSH2 0x1ECC JUMP JUMPDEST SWAP1 POP JUMPDEST SWAP4 SWAP3 POP POP POP JUMP JUMPDEST PUSH2 0x10F7 CALLER PUSH2 0x1DC6 JUMP JUMPDEST PUSH2 0x1113 JUMPI PUSH1 0x40 MLOAD PUSH3 0x461BCD PUSH1 0xE5 SHL DUP2 MSTORE PUSH1 0x4 ADD PUSH2 0xB0B SWAP1 PUSH2 0x3340 JUMP JUMPDEST PUSH1 0x1 PUSH1 0x1 PUSH1 0xA0 SHL SUB SWAP2 SWAP1 SWAP2 AND PUSH1 0x0 SWAP1 DUP2 MSTORE PUSH1 0x15 PUSH1 0x20 MSTORE PUSH1 0x40 SWAP1 KECCAK256 DUP1 SLOAD PUSH1 0xFF NOT AND SWAP2 ISZERO ISZERO SWAP2 SWAP1 SWAP2 OR SWAP1 SSTORE JUMP JUMPDEST PUSH1 0x4 SLOAD PUSH1 0x0 SWAP1 PUSH2 0x1182 SWAP1 PUSH2 0x115A SWAP1 PUSH1 0x1 PUSH1 0x1 PUSH1 0xA0 SHL SUB AND PUSH2 0x177B JUMP JUMPDEST PUSH1 0x3 SLOAD PUSH2 0x117C SWAP1 PUSH2 0x1173 SWAP1 PUSH1 0x1 PUSH1 0x1 PUSH1 0xA0 SHL SUB AND PUSH2 0x177B JUMP JUMPDEST PUSH1 0xA SLOAD SWAP1 PUSH2 0x2449 JUMP JUMPDEST SWAP1 PUSH2 0x2449 JUMP JUMPDEST SWAP1 POP SWAP1 JUMP JUMPDEST PUSH2 0x1190 CALLER PUSH2 0x1DC6 JUMP JUMPDEST PUSH2 0x11AC JUMPI PUSH1 0x40 MLOAD PUSH3 0x461BCD PUSH1 0xE5 SHL DUP2 MSTORE PUSH1 0x4 ADD PUSH2 0xB0B SWAP1 PUSH2 0x3340 JUMP JUMPDEST PUSH1 0x25 SLOAD PUSH1 0x40 MLOAD PUSH4 0x16A4744B PUSH1 0xE1 SHL DUP2 MSTORE PUSH1 0x1 PUSH1 0x1 PUSH1 0xA0 SHL SUB SWAP1 SWAP2 AND SWAP1 PUSH4 0x2D48E896 SWAP1 PUSH2 0x11DE SWAP1 DUP6 SWAP1 DUP6 SWAP1 PUSH1 0x4 ADD PUSH2 0x340A JUMP JUMPDEST PUSH1 0x0 PUSH1 0x40 MLOAD DUP1 DUP4 SUB DUP2 PUSH1 0x0 DUP8 DUP1 EXTCODESIZE ISZERO DUP1 ISZERO PUSH2 0x11F8 JUMPI PUSH1 0x0 DUP1 REVERT JUMPDEST POP GAS CALL ISZERO DUP1 ISZERO PUSH2 0xF11 JUMPI RETURNDATASIZE PUSH1 0x0 DUP1 RETURNDATACOPY RETURNDATASIZE PUSH1 0x0 REVERT JUMPDEST PUSH2 0x1215 CALLER PUSH2 0x1257 JUMP JUMPDEST PUSH2 0x1231 JUMPI PUSH1 0x40 MLOAD PUSH3 0x461BCD PUSH1 0xE5 SHL DUP2 MSTORE PUSH1 0x4 ADD PUSH2 0xB0B SWAP1 PUSH2 0x32EA JUMP JUMPDEST PUSH1 0x27 DUP1 SLOAD PUSH1 0xFF NOT AND SWAP3 ISZERO ISZERO SWAP3 SWAP1 SWAP3 OR PUSH2 0xFF00 NOT AND PUSH2 0x100 PUSH1 0xFF SWAP3 SWAP1 SWAP3 AND SWAP2 SWAP1 SWAP2 MUL OR SWAP1 SSTORE JUMP JUMPDEST PUSH1 0x0 SLOAD PUSH1 0x1 PUSH1 0x1 PUSH1 0xA0 SHL SUB DUP3 DUP2 AND SWAP2 AND EQ JUMPDEST SWAP2 SWAP1 POP JUMP JUMPDEST PUSH1 0x9 SLOAD PUSH1 0xFF AND SWAP1 JUMP JUMPDEST PUSH2 0x1280 CALLER PUSH2 0x1257 JUMP JUMPDEST PUSH2 0x129C JUMPI PUSH1 0x40 MLOAD PUSH3 0x461BCD PUSH1 0xE5 SHL DUP2 MSTORE PUSH1 0x4 ADD PUSH2 0xB0B SWAP1 PUSH2 0x32EA JUMP JUMPDEST PUSH2 0x321 DUP3 LT PUSH2 0x12BD JUMPI PUSH1 0x40 MLOAD PUSH3 0x461BCD PUSH1 0xE5 SHL DUP2 MSTORE PUSH1 0x4 ADD PUSH2 0xB0B SWAP1 PUSH2 0x3365 JUMP JUMPDEST DUP1 DUP3 MUL DUP1 PUSH2 0x12CA DUP7 PUSH2 0x177B JUMP JUMPDEST LT ISZERO PUSH2 0x12E8 JUMPI PUSH1 0x40 MLOAD PUSH3 0x461BCD PUSH1 0xE5 SHL DUP2 MSTORE PUSH1 0x4 ADD PUSH2 0xB0B SWAP1 PUSH2 0x31AE JUMP JUMPDEST PUSH1 0x0 JUMPDEST DUP4 DUP2 LT ISZERO PUSH2 0x147B JUMPI PUSH2 0x131E DUP7 DUP7 DUP7 DUP5 DUP2 DUP2 LT PUSH2 0x1303 JUMPI INVALID JUMPDEST SWAP1 POP PUSH1 0x20 MUL ADD PUSH1 0x20 DUP2 ADD SWAP1 PUSH2 0x1318 SWAP2 SWAP1 PUSH2 0x2C01 JUMP JUMPDEST DUP6 PUSH2 0x1DFA JUMP JUMPDEST POP PUSH1 0x13 PUSH1 0x0 DUP7 DUP7 DUP5 DUP2 DUP2 LT PUSH2 0x132F JUMPI INVALID JUMPDEST SWAP1 POP PUSH1 0x20 MUL ADD PUSH1 0x20 DUP2 ADD SWAP1 PUSH2 0x1344 SWAP2 SWAP1 PUSH2 0x2C01 JUMP JUMPDEST PUSH1 0x1 PUSH1 0x1 PUSH1 0xA0 SHL SUB AND DUP2 MSTORE PUSH1 0x20 DUP2 ADD SWAP2 SWAP1 SWAP2 MSTORE PUSH1 0x40 ADD PUSH1 0x0 KECCAK256 SLOAD PUSH1 0xFF AND ISZERO DUP1 PUSH2 0x13AC JUMPI POP PUSH1 0x15 PUSH1 0x0 DUP7 DUP7 DUP5 DUP2 DUP2 LT PUSH2 0x1378 JUMPI INVALID JUMPDEST SWAP1 POP PUSH1 0x20 MUL ADD PUSH1 0x20 DUP2 ADD SWAP1 PUSH2 0x138D SWAP2 SWAP1 PUSH2 0x2C01 JUMP JUMPDEST PUSH1 0x1 PUSH1 0x1 PUSH1 0xA0 SHL SUB AND DUP2 MSTORE PUSH1 0x20 DUP2 ADD SWAP2 SWAP1 SWAP2 MSTORE PUSH1 0x40 ADD PUSH1 0x0 KECCAK256 SLOAD PUSH1 0xFF AND ISZERO JUMPDEST ISZERO PUSH2 0x1473 JUMPI PUSH1 0x25 SLOAD PUSH1 0x1 PUSH1 0x1 PUSH1 0xA0 SHL SUB AND PUSH4 0x14B6CA96 DUP7 DUP7 DUP5 DUP2 DUP2 LT PUSH2 0x13CE JUMPI INVALID JUMPDEST SWAP1 POP PUSH1 0x20 MUL ADD PUSH1 0x20 DUP2 ADD SWAP1 PUSH2 0x13E3 SWAP2 SWAP1 PUSH2 0x2C01 JUMP JUMPDEST PUSH1 0xD PUSH1 0x0 DUP10 DUP10 DUP8 DUP2 DUP2 LT PUSH2 0x13F3 JUMPI INVALID JUMPDEST SWAP1 POP PUSH1 0x20 MUL ADD PUSH1 0x20 DUP2 ADD SWAP1 PUSH2 0x1408 SWAP2 SWAP1 PUSH2 0x2C01 JUMP JUMPDEST PUSH1 0x1 PUSH1 0x1 PUSH1 0xA0 SHL SUB AND PUSH1 0x1 PUSH1 0x1 PUSH1 0xA0 SHL SUB AND DUP2 MSTORE PUSH1 0x20 ADD SWAP1 DUP2 MSTORE PUSH1 0x20 ADD PUSH1 0x0 KECCAK256 SLOAD PUSH1 0x40 MLOAD DUP4 PUSH4 0xFFFFFFFF AND PUSH1 0xE0 SHL DUP2 MSTORE PUSH1 0x4 ADD PUSH2 0x1446 SWAP3 SWAP2 SWAP1 PUSH2 0x2FE9 JUMP JUMPDEST PUSH1 0x0 PUSH1 0x40 MLOAD DUP1 DUP4 SUB DUP2 PUSH1 0x0 DUP8 DUP1 EXTCODESIZE ISZERO DUP1 ISZERO PUSH2 0x1460 JUMPI PUSH1 0x0 DUP1 REVERT JUMPDEST POP GAS CALL SWAP3 POP POP POP DUP1 ISZERO PUSH2 0x1471 JUMPI POP PUSH1 0x1 JUMPDEST POP JUMPDEST PUSH1 0x1 ADD PUSH2 0x12EB JUMP JUMPDEST POP PUSH1 0x1 PUSH1 0x1 PUSH1 0xA0 SHL SUB DUP6 AND PUSH1 0x0 SWAP1 DUP2 MSTORE PUSH1 0x13 PUSH1 0x20 MSTORE PUSH1 0x40 SWAP1 KECCAK256 SLOAD PUSH1 0xFF AND ISZERO DUP1 PUSH2 0x14BD JUMPI POP PUSH1 0x1 PUSH1 0x1 PUSH1 0xA0 SHL SUB DUP6 AND PUSH1 0x0 SWAP1 DUP2 MSTORE PUSH1 0x15 PUSH1 0x20 MSTORE PUSH1 0x40 SWAP1 KECCAK256 SLOAD PUSH1 0xFF AND ISZERO JUMPDEST ISZERO PUSH2 0x152F JUMPI PUSH1 0x25 SLOAD PUSH1 0x1 PUSH1 0x1 PUSH1 0xA0 SHL SUB DUP7 DUP2 AND PUSH1 0x0 SWAP1 DUP2 MSTORE PUSH1 0xD PUSH1 0x20 MSTORE PUSH1 0x40 SWAP1 DUP2 SWAP1 KECCAK256 SLOAD SWAP1 MLOAD PUSH4 0xA5B654B PUSH1 0xE1 SHL DUP2 MSTORE SWAP2 SWAP1 SWAP3 AND SWAP2 PUSH4 0x14B6CA96 SWAP2 PUSH2 0x1506 SWAP2 DUP10 SWAP2 PUSH1 0x4 ADD PUSH2 0x2FE9 JUMP JUMPDEST PUSH1 0x0 PUSH1 0x40 MLOAD DUP1 DUP4 SUB DUP2 PUSH1 0x0 DUP8 DUP1 EXTCODESIZE ISZERO DUP1 ISZERO PUSH2 0x1520 JUMPI PUSH1 0x0 DUP1 REVERT JUMPDEST POP GAS CALL SWAP3 POP POP POP DUP1 ISZERO PUSH2 0xF11 JUMPI POP JUMPDEST POP POP POP POP POP JUMP JUMPDEST PUSH2 0x153F CALLER PUSH2 0x1DC6 JUMP JUMPDEST PUSH2 0x155B JUMPI PUSH1 0x40 MLOAD PUSH3 0x461BCD PUSH1 0xE5 SHL DUP2 MSTORE PUSH1 0x4 ADD PUSH2 0xB0B SWAP1 PUSH2 0x3340 JUMP JUMPDEST PUSH1 0x1 PUSH1 0x1 PUSH1 0xA0 SHL SUB SWAP2 SWAP1 SWAP2 AND PUSH1 0x0 SWAP1 DUP2 MSTORE PUSH1 0x14 PUSH1 0x20 MSTORE PUSH1 0x40 SWAP1 KECCAK256 DUP1 SLOAD PUSH1 0xFF NOT AND SWAP2 ISZERO ISZERO SWAP2 SWAP1 SWAP2 OR SWAP1 SSTORE JUMP JUMPDEST PUSH2 0x158F CALLER PUSH2 0x1DC6 JUMP JUMPDEST PUSH2 0x15AB JUMPI PUSH1 0x40 MLOAD PUSH3 0x461BCD PUSH1 0xE5 SHL DUP2 MSTORE PUSH1 0x4 ADD PUSH2 0xB0B SWAP1 PUSH2 0x3340 JUMP JUMPDEST PUSH1 0x1 PUSH1 0x1 PUSH1 0xA0 SHL SUB DUP3 AND ADDRESS EQ DUP1 ISZERO SWAP1 PUSH2 0x15D2 JUMPI POP PUSH1 0x24 SLOAD PUSH1 0x1 PUSH1 0x1 PUSH1 0xA0 SHL SUB DUP4 DUP2 AND SWAP2 AND EQ ISZERO JUMPDEST PUSH2 0x15DB JUMPI PUSH1 0x0 DUP1 REVERT JUMPDEST PUSH1 0x1 PUSH1 0x1 PUSH1 0xA0 SHL SUB DUP3 AND PUSH1 0x0 SWAP1 DUP2 MSTORE PUSH1 0x13 PUSH1 0x20 MSTORE PUSH1 0x40 SWAP1 KECCAK256 DUP1 SLOAD PUSH1 0xFF NOT AND DUP3 ISZERO DUP1 ISZERO SWAP2 SWAP1 SWAP2 OR SWAP1 SWAP2 SSTORE PUSH2 0x1672 JUMPI PUSH1 0x25 SLOAD PUSH1 0x40 MLOAD PUSH4 0xA5B654B PUSH1 0xE1 SHL DUP2 MSTORE PUSH1 0x1 PUSH1 0x1 PUSH1 0xA0 SHL SUB SWAP1 SWAP2 AND SWAP1 PUSH4 0x14B6CA96 SWAP1 PUSH2 0x163B SWAP1 DUP6 SWAP1 PUSH1 0x0 SWAP1 PUSH1 0x4 ADD PUSH2 0x2FE9 JUMP JUMPDEST PUSH1 0x0 PUSH1 0x40 MLOAD DUP1 DUP4 SUB DUP2 PUSH1 0x0 DUP8 DUP1 EXTCODESIZE ISZERO DUP1 ISZERO PUSH2 0x1655 JUMPI PUSH1 0x0 DUP1 REVERT JUMPDEST POP GAS CALL ISZERO DUP1 ISZERO PUSH2 0x1669 JUMPI RETURNDATASIZE PUSH1 0x0 DUP1 RETURNDATACOPY RETURNDATASIZE PUSH1 0x0 REVERT JUMPDEST POP POP POP POP PUSH2 0x16B6 JUMP JUMPDEST PUSH1 0x25 SLOAD PUSH1 0x1 PUSH1 0x1 PUSH1 0xA0 SHL SUB DUP4 DUP2 AND PUSH1 0x0 SWAP1 DUP2 MSTORE PUSH1 0xD PUSH1 0x20 MSTORE PUSH1 0x40 SWAP1 DUP2 SWAP1 KECCAK256 SLOAD SWAP1 MLOAD PUSH4 0xA5B654B PUSH1 0xE1 SHL DUP2 MSTORE SWAP2 SWAP1 SWAP3 AND SWAP2 PUSH4 0x14B6CA96 SWAP2 PUSH2 0x11DE SWAP2 DUP7 SWAP2 PUSH1 0x4 ADD PUSH2 0x2FE9 JUMP JUMPDEST POP POP JUMP JUMPDEST PUSH1 0x19 SLOAD DUP2 JUMP JUMPDEST PUSH2 0x16C9 CALLER PUSH2 0x1DC6 JUMP JUMPDEST PUSH2 0x16E5 JUMPI PUSH1 0x40 MLOAD PUSH3 0x461BCD PUSH1 0xE5 SHL DUP2 MSTORE PUSH1 0x4 ADD PUSH2 0xB0B SWAP1 PUSH2 0x3340 JUMP JUMPDEST PUSH1 0x40 MLOAD SELFBALANCE SWAP1 CALLER SWAP1 PUSH1 0x64 DUP5 DUP5 MUL DIV DUP1 ISZERO PUSH2 0x8FC MUL SWAP2 PUSH1 0x0 DUP2 DUP2 DUP2 DUP6 DUP9 DUP9 CALL SWAP4 POP POP POP POP ISZERO DUP1 ISZERO PUSH2 0x1718 JUMPI RETURNDATASIZE PUSH1 0x0 DUP1 RETURNDATACOPY RETURNDATASIZE PUSH1 0x0 REVERT JUMPDEST POP POP POP JUMP JUMPDEST PUSH1 0x0 PUSH2 0xB8F DUP3 PUSH1 0x0 NOT PUSH2 0xB2A JUMP JUMPDEST PUSH2 0x1734 CALLER PUSH2 0x1257 JUMP JUMPDEST PUSH2 0x1750 JUMPI PUSH1 0x40 MLOAD PUSH3 0x461BCD PUSH1 0xE5 SHL DUP2 MSTORE PUSH1 0x4 ADD PUSH2 0xB0B SWAP1 PUSH2 0x32EA JUMP JUMPDEST PUSH1 0xF DUP1 SLOAD PUSH1 0xFF NOT AND SWAP2 ISZERO ISZERO SWAP2 SWAP1 SWAP2 OR SWAP1 SSTORE JUMP JUMPDEST PUSH1 0x27 SLOAD PUSH1 0xFF AND DUP2 JUMP JUMPDEST PUSH1 0x29 SLOAD PUSH1 0xFF AND DUP2 JUMP JUMPDEST PUSH1 0x1B SLOAD DUP2 JUMP JUMPDEST PUSH1 0x1 PUSH1 0x1 PUSH1 0xA0 SHL SUB AND PUSH1 0x0 SWAP1 DUP2 MSTORE PUSH1 0xD PUSH1 0x20 MSTORE PUSH1 0x40 SWAP1 KECCAK256 SLOAD SWAP1 JUMP JUMPDEST PUSH1 0x27 SLOAD PUSH2 0x100 SWAP1 DIV PUSH1 0xFF AND DUP2 JUMP JUMPDEST PUSH1 0xC SLOAD DUP2 JUMP JUMPDEST PUSH1 0xB SLOAD DUP2 JUMP JUMPDEST PUSH2 0x17B9 CALLER PUSH2 0x1DC6 JUMP JUMPDEST PUSH2 0x17D5 JUMPI PUSH1 0x40 MLOAD PUSH3 0x461BCD PUSH1 0xE5 SHL DUP2 MSTORE PUSH1 0x4 ADD PUSH2 0xB0B SWAP1 PUSH2 0x3340 JUMP JUMPDEST PUSH1 0x1 PUSH1 0x1 PUSH1 0xA0 SHL SUB SWAP2 SWAP1 SWAP2 AND PUSH1 0x0 SWAP1 DUP2 MSTORE PUSH1 0x12 PUSH1 0x20 MSTORE PUSH1 0x40 SWAP1 KECCAK256 DUP1 SLOAD PUSH1 0xFF NOT AND SWAP2 ISZERO ISZERO SWAP2 SWAP1 SWAP2 OR SWAP1 SSTORE JUMP JUMPDEST PUSH1 0x0 SLOAD PUSH1 0x1 PUSH1 0x1 PUSH1 0xA0 SHL SUB AND SWAP1 JUMP JUMPDEST PUSH1 0xF SLOAD PUSH1 0xFF AND DUP2 JUMP JUMPDEST PUSH2 0x1821 CALLER PUSH2 0x1257 JUMP JUMPDEST PUSH2 0x183D JUMPI PUSH1 0x40 MLOAD PUSH3 0x461BCD PUSH1 0xE5 SHL DUP2 MSTORE PUSH1 0x4 ADD PUSH2 0xB0B SWAP1 PUSH2 0x32EA JUMP JUMPDEST PUSH1 0x0 JUMPDEST DUP3 DUP2 LT ISZERO PUSH2 0x189E JUMPI DUP2 PUSH1 0x10 PUSH1 0x0 DUP7 DUP7 DUP6 DUP2 DUP2 LT PUSH2 0x1859 JUMPI INVALID JUMPDEST SWAP1 POP PUSH1 0x20 MUL ADD PUSH1 0x20 DUP2 ADD SWAP1 PUSH2 0x186E SWAP2 SWAP1 PUSH2 0x2C01 JUMP JUMPDEST PUSH1 0x1 PUSH1 0x1 PUSH1 0xA0 SHL SUB AND DUP2 MSTORE PUSH1 0x20 DUP2 ADD SWAP2 SWAP1 SWAP2 MSTORE PUSH1 0x40 ADD PUSH1 0x0 KECCAK256 DUP1 SLOAD PUSH1 0xFF NOT AND SWAP2 ISZERO ISZERO SWAP2 SWAP1 SWAP2 OR SWAP1 SSTORE PUSH1 0x1 ADD PUSH2 0x1840 JUMP JUMPDEST POP POP POP POP JUMP JUMPDEST PUSH1 0x8 DUP1 SLOAD PUSH1 0x40 DUP1 MLOAD PUSH1 0x20 PUSH1 0x1F PUSH1 0x2 PUSH1 0x0 NOT PUSH2 0x100 PUSH1 0x1 DUP9 AND ISZERO MUL ADD SWAP1 SWAP6 AND SWAP5 SWAP1 SWAP5 DIV SWAP4 DUP5 ADD DUP2 SWAP1 DIV DUP2 MUL DUP3 ADD DUP2 ADD SWAP1 SWAP3 MSTORE DUP3 DUP2 MSTORE PUSH1 0x60 SWAP4 SWAP1 SWAP3 SWAP1 SWAP2 DUP4 ADD DUP3 DUP3 DUP1 ISZERO PUSH2 0xADC JUMPI DUP1 PUSH1 0x1F LT PUSH2 0xAB1 JUMPI PUSH2 0x100 DUP1 DUP4 SLOAD DIV MUL DUP4 MSTORE SWAP2 PUSH1 0x20 ADD SWAP2 PUSH2 0xADC JUMP JUMPDEST PUSH2 0x190E CALLER PUSH2 0x1DC6 JUMP JUMPDEST PUSH2 0x192A JUMPI PUSH1 0x40 MLOAD PUSH3 0x461BCD PUSH1 0xE5 SHL DUP2 MSTORE PUSH1 0x4 ADD PUSH2 0xB0B SWAP1 PUSH2 0x3340 JUMP JUMPDEST PUSH3 0xB71B0 DUP2 LT PUSH2 0x1939 JUMPI PUSH1 0x0 DUP1 REVERT JUMPDEST PUSH1 0x26 SSTORE JUMP JUMPDEST PUSH2 0x1947 CALLER PUSH2 0x1DC6 JUMP JUMPDEST PUSH2 0x1963 JUMPI PUSH1 0x40 MLOAD PUSH3 0x461BCD PUSH1 0xE5 SHL DUP2 MSTORE PUSH1 0x4 ADD PUSH2 0xB0B SWAP1 PUSH2 0x3340 JUMP JUMPDEST PUSH1 0x1F DUP1 SLOAD PUSH1 0x1 PUSH1 0x1 PUSH1 0xA0 SHL SUB SWAP4 DUP5 AND PUSH1 0x1 PUSH1 0x1 PUSH1 0xA0 SHL SUB NOT SWAP2 DUP3 AND OR SWAP1 SWAP2 SSTORE PUSH1 0x20 DUP1 SLOAD SWAP3 SWAP1 SWAP4 AND SWAP2 AND OR SWAP1 SSTORE JUMP JUMPDEST PUSH2 0x199A CALLER PUSH2 0x1DC6 JUMP JUMPDEST PUSH2 0x19B6 JUMPI PUSH1 0x40 MLOAD PUSH3 0x461BCD PUSH1 0xE5 SHL DUP2 MSTORE PUSH1 0x4 ADD PUSH2 0xB0B SWAP1 PUSH2 0x3340 JUMP JUMPDEST DUP2 MLOAD PUSH1 0x18 DUP2 SWAP1 SSTORE PUSH1 0x20 DUP4 ADD MLOAD PUSH1 0x19 DUP2 SWAP1 SSTORE PUSH1 0x40 DUP5 ADD MLOAD PUSH1 0x1A DUP2 SWAP1 SSTORE PUSH1 0x60 DUP6 ADD MLOAD PUSH1 0x1B DUP2 SWAP1 SSTORE SWAP2 SWAP1 SWAP3 ADD SWAP1 SWAP2 ADD ADD PUSH1 0x1C SSTORE PUSH1 0x1D DUP2 SWAP1 SSTORE PUSH1 0x3 DUP2 DIV PUSH1 0x1C SLOAD LT PUSH2 0x16B6 JUMPI PUSH1 0x40 MLOAD PUSH3 0x461BCD PUSH1 0xE5 SHL DUP2 MSTORE PUSH1 0x4 ADD PUSH2 0xB0B SWAP1 PUSH2 0x330A JUMP JUMPDEST PUSH1 0x24 SLOAD PUSH1 0x1 PUSH1 0x1 PUSH1 0xA0 SHL SUB AND DUP2 JUMP JUMPDEST PUSH1 0x0 PUSH2 0x10E7 CALLER DUP5 DUP5 PUSH2 0x1ECC JUMP JUMPDEST PUSH2 0x1A34 CALLER PUSH2 0x1DC6 JUMP JUMPDEST PUSH2 0x1A50 JUMPI PUSH1 0x40 MLOAD PUSH3 0x461BCD PUSH1 0xE5 SHL DUP2 MSTORE PUSH1 0x4 ADD PUSH2 0xB0B SWAP1 PUSH2 0x3340 JUMP JUMPDEST PUSH1 0x1 PUSH1 0x1 PUSH1 0xA0 SHL SUB SWAP2 SWAP1 SWAP2 AND PUSH1 0x0 SWAP1 DUP2 MSTORE PUSH1 0x17 PUSH1 0x20 MSTORE PUSH1 0x40 SWAP1 KECCAK256 DUP1 SLOAD PUSH1 0xFF NOT AND SWAP2 ISZERO ISZERO SWAP2 SWAP1 SWAP2 OR SWAP1 SSTORE JUMP JUMPDEST PUSH2 0x1A84 CALLER PUSH2 0x1DC6 JUMP JUMPDEST PUSH2 0x1AA0 JUMPI PUSH1 0x40 MLOAD PUSH3 0x461BCD PUSH1 0xE5 SHL DUP2 MSTORE PUSH1 0x4 ADD PUSH2 0xB0B SWAP1 PUSH2 0x3340 JUMP JUMPDEST PUSH1 0x1 PUSH1 0x1 PUSH1 0xA0 SHL SUB SWAP2 SWAP1 SWAP2 AND PUSH1 0x0 SWAP1 DUP2 MSTORE PUSH1 0x11 PUSH1 0x20 MSTORE PUSH1 0x40 SWAP1 KECCAK256 DUP1 SLOAD PUSH1 0xFF NOT AND SWAP2 ISZERO ISZERO SWAP2 SWAP1 SWAP2 OR SWAP1 SSTORE JUMP JUMPDEST PUSH2 0x1AD4 CALLER PUSH2 0x1257 JUMP JUMPDEST PUSH2 0x1AF0 JUMPI PUSH1 0x40 MLOAD PUSH3 0x461BCD PUSH1 0xE5 SHL DUP2 MSTORE PUSH1 0x4 ADD PUSH2 0xB0B SWAP1 PUSH2 0x32EA JUMP JUMPDEST PUSH1 0x1 PUSH1 0x1 PUSH1 0xA0 SHL SUB AND PUSH1 0x0 SWAP1 DUP2 MSTORE PUSH1 0x1 PUSH1 0x20 DUP2 SWAP1 MSTORE PUSH1 0x40 SWAP1 SWAP2 KECCAK256 DUP1 SLOAD PUSH1 0xFF NOT AND SWAP1 SWAP2 OR SWAP1 SSTORE JUMP JUMPDEST PUSH2 0x1B20 CALLER PUSH2 0x1DC6 JUMP JUMPDEST PUSH2 0x1B3C JUMPI PUSH1 0x40 MLOAD PUSH3 0x461BCD PUSH1 0xE5 SHL DUP2 MSTORE PUSH1 0x4 ADD PUSH2 0xB0B SWAP1 PUSH2 0x3340 JUMP JUMPDEST PUSH1 0xB SSTORE JUMP JUMPDEST PUSH2 0x1B4A CALLER PUSH2 0x1257 JUMP JUMPDEST PUSH2 0x1B66 JUMPI PUSH1 0x40 MLOAD PUSH3 0x461BCD PUSH1 0xE5 SHL DUP2 MSTORE PUSH1 0x4 ADD PUSH2 0xB0B SWAP1 PUSH2 0x32EA JUMP JUMPDEST PUSH2 0x3E8 DUP2 PUSH1 0xA SLOAD MUL DUP2 PUSH2 0x1B75 JUMPI INVALID JUMPDEST DIV PUSH1 0xB SSTORE POP JUMP JUMPDEST PUSH1 0x18 SLOAD DUP2 JUMP JUMPDEST PUSH1 0x25 SLOAD PUSH1 0x1 PUSH1 0x1 PUSH1 0xA0 SHL SUB AND DUP2 JUMP JUMPDEST PUSH1 0x1F SLOAD PUSH1 0x1 PUSH1 0x1 PUSH1 0xA0 SHL SUB AND DUP2 JUMP JUMPDEST PUSH2 0x1BA9 CALLER PUSH2 0x1DC6 JUMP JUMPDEST PUSH2 0x1BC5 JUMPI PUSH1 0x40 MLOAD PUSH3 0x461BCD PUSH1 0xE5 SHL DUP2 MSTORE PUSH1 0x4 ADD PUSH2 0xB0B SWAP1 PUSH2 0x3340 JUMP JUMPDEST PUSH1 0x1 PUSH1 0x1 PUSH1 0xA0 SHL SUB SWAP2 SWAP1 SWAP2 AND PUSH1 0x0 SWAP1 DUP2 MSTORE PUSH1 0x16 PUSH1 0x20 MSTORE PUSH1 0x40 SWAP1 KECCAK256 DUP1 SLOAD PUSH1 0xFF NOT AND SWAP2 ISZERO ISZERO SWAP2 SWAP1 SWAP2 OR SWAP1 SSTORE JUMP JUMPDEST PUSH1 0x0 PUSH2 0xB8F PUSH2 0x1BFD PUSH2 0x113E JUMP JUMPDEST PUSH1 0x24 SLOAD PUSH2 0x1C2A SWAP1 PUSH2 0x1C23 SWAP1 PUSH1 0x2 SWAP1 PUSH2 0x1C1D SWAP1 PUSH1 0x1 PUSH1 0x1 PUSH1 0xA0 SHL SUB AND PUSH2 0x177B JUMP JUMPDEST SWAP1 PUSH2 0x248B JUMP JUMPDEST DUP6 SWAP1 PUSH2 0x248B JUMP JUMPDEST SWAP1 PUSH2 0x24C5 JUMP JUMPDEST PUSH1 0x1 PUSH1 0x1 PUSH1 0xA0 SHL SUB SWAP2 DUP3 AND PUSH1 0x0 SWAP1 DUP2 MSTORE PUSH1 0xE PUSH1 0x20 SWAP1 DUP2 MSTORE PUSH1 0x40 DUP1 DUP4 KECCAK256 SWAP4 SWAP1 SWAP5 AND DUP3 MSTORE SWAP2 SWAP1 SWAP2 MSTORE KECCAK256 SLOAD SWAP1 JUMP JUMPDEST PUSH2 0x1C64 CALLER PUSH2 0x1DC6 JUMP JUMPDEST PUSH2 0x1C80 JUMPI PUSH1 0x40 MLOAD PUSH3 0x461BCD PUSH1 0xE5 SHL DUP2 MSTORE PUSH1 0x4 ADD PUSH2 0xB0B SWAP1 PUSH2 0x3340 JUMP JUMPDEST PUSH1 0x29 DUP1 SLOAD PUSH1 0xFF NOT AND SWAP3 ISZERO ISZERO SWAP3 SWAP1 SWAP3 OR SWAP1 SWAP2 SSTORE PUSH1 0x2A SSTORE JUMP JUMPDEST PUSH2 0x1CA0 CALLER PUSH2 0x1257 JUMP JUMPDEST PUSH2 0x1CBC JUMPI PUSH1 0x40 MLOAD PUSH3 0x461BCD PUSH1 0xE5 SHL DUP2 MSTORE PUSH1 0x4 ADD PUSH2 0xB0B SWAP1 PUSH2 0x32EA JUMP JUMPDEST PUSH1 0x1E SSTORE JUMP JUMPDEST PUSH2 0x1CCA CALLER PUSH2 0x1257 JUMP JUMPDEST PUSH2 0x1CE6 JUMPI PUSH1 0x40 MLOAD PUSH3 0x461BCD PUSH1 0xE5 SHL DUP2 MSTORE PUSH1 0x4 ADD PUSH2 0xB0B SWAP1 PUSH2 0x32EA JUMP JUMPDEST PUSH1 0x1 PUSH1 0x1 PUSH1 0xA0 SHL SUB AND PUSH1 0x0 SWAP1 DUP2 MSTORE PUSH1 0x1 PUSH1 0x20 MSTORE PUSH1 0x40 SWAP1 KECCAK256 DUP1 SLOAD PUSH1 0xFF NOT AND SWAP1 SSTORE JUMP JUMPDEST PUSH2 0x1D10 CALLER PUSH2 0x1257 JUMP JUMPDEST PUSH2 0x1D2C JUMPI PUSH1 0x40 MLOAD PUSH3 0x461BCD PUSH1 0xE5 SHL DUP2 MSTORE PUSH1 0x4 ADD PUSH2 0xB0B SWAP1 PUSH2 0x32EA JUMP JUMPDEST PUSH1 0x0 DUP1 SLOAD PUSH1 0x1 PUSH1 0x1 PUSH1 0xA0 SHL SUB NOT AND PUSH1 0x1 PUSH1 0x1 PUSH1 0xA0 SHL SUB DUP4 AND SWAP1 DUP2 OR DUP3 SSTORE DUP2 MSTORE PUSH1 0x1 PUSH1 0x20 DUP2 SWAP1 MSTORE PUSH1 0x40 SWAP2 DUP3 SWAP1 KECCAK256 DUP1 SLOAD PUSH1 0xFF NOT AND SWAP1 SWAP2 OR SWAP1 SSTORE MLOAD PUSH32 0x4DBA622D284ED0014EE4B9A6A68386BE1A4C08A4913AE272DE89199CC686163 SWAP1 PUSH2 0x1D91 SWAP1 DUP4 SWAP1 PUSH2 0x2F9A JUMP JUMPDEST PUSH1 0x40 MLOAD DUP1 SWAP2 SUB SWAP1 LOG1 POP JUMP JUMPDEST PUSH1 0x23 SLOAD PUSH1 0x1 PUSH1 0x1 PUSH1 0xA0 SHL SUB AND DUP2 JUMP JUMPDEST PUSH1 0x10 PUSH1 0x20 MSTORE PUSH1 0x0 SWAP1 DUP2 MSTORE PUSH1 0x40 SWAP1 KECCAK256 SLOAD PUSH1 0xFF AND DUP2 JUMP JUMPDEST PUSH1 0x1C SLOAD DUP2 JUMP JUMPDEST PUSH1 0x1 PUSH1 0x1 PUSH1 0xA0 SHL SUB AND PUSH1 0x0 SWAP1 DUP2 MSTORE PUSH1 0x1 PUSH1 0x20 MSTORE PUSH1 0x40 SWAP1 KECCAK256 SLOAD PUSH1 0xFF AND SWAP1 JUMP JUMPDEST PUSH1 0x1E SLOAD DUP2 JUMP JUMPDEST PUSH1 0x24 SLOAD PUSH1 0x1 PUSH1 0xA0 SHL SWAP1 DIV PUSH1 0xFF AND DUP2 JUMP JUMPDEST PUSH1 0x40 DUP1 MLOAD DUP1 DUP3 ADD DUP3 MSTORE PUSH1 0x14 DUP2 MSTORE PUSH20 0x496E73756666696369656E742042616C616E6365 PUSH1 0x60 SHL PUSH1 0x20 DUP1 DUP4 ADD SWAP2 SWAP1 SWAP2 MSTORE PUSH1 0x1 PUSH1 0x1 PUSH1 0xA0 SHL SUB DUP7 AND PUSH1 0x0 SWAP1 DUP2 MSTORE PUSH1 0xD SWAP1 SWAP2 MSTORE SWAP2 DUP3 KECCAK256 SLOAD PUSH2 0x1E4B SWAP2 DUP5 SWAP1 PUSH2 0x2504 JUMP JUMPDEST PUSH1 0x1 PUSH1 0x1 PUSH1 0xA0 SHL SUB DUP1 DUP7 AND PUSH1 0x0 SWAP1 DUP2 MSTORE PUSH1 0xD PUSH1 0x20 MSTORE PUSH1 0x40 DUP1 DUP3 KECCAK256 SWAP4 SWAP1 SWAP4 SSTORE SWAP1 DUP6 AND DUP2 MSTORE KECCAK256 SLOAD PUSH2 0x1E7A SWAP1 DUP4 PUSH2 0x2530 JUMP JUMPDEST PUSH1 0x1 PUSH1 0x1 PUSH1 0xA0 SHL SUB DUP1 DUP6 AND PUSH1 0x0 DUP2 DUP2 MSTORE PUSH1 0xD PUSH1 0x20 MSTORE PUSH1 0x40 SWAP1 DUP2 SWAP1 KECCAK256 SWAP4 SWAP1 SWAP4 SSTORE SWAP2 MLOAD SWAP1 DUP7 AND SWAP1 PUSH1 0x0 DUP1 MLOAD PUSH1 0x20 PUSH2 0x345F DUP4 CODECOPY DUP2 MLOAD SWAP2 MSTORE SWAP1 PUSH2 0x1EBA SWAP1 DUP7 SWAP1 PUSH2 0x33C5 JUMP JUMPDEST PUSH1 0x40 MLOAD DUP1 SWAP2 SUB SWAP1 LOG3 POP PUSH1 0x1 SWAP4 SWAP3 POP POP POP JUMP JUMPDEST PUSH1 0x2B SLOAD PUSH1 0x0 SWAP1 PUSH1 0xFF AND ISZERO PUSH2 0x1EEC JUMPI PUSH2 0x1EE5 DUP5 DUP5 DUP5 PUSH2 0x1DFA JUMP JUMPDEST SWAP1 POP PUSH2 0x10E7 JUMP JUMPDEST PUSH1 0x1 PUSH1 0x1 PUSH1 0xA0 SHL SUB DUP5 AND PUSH1 0x0 SWAP1 DUP2 MSTORE PUSH1 0x1 PUSH1 0x20 MSTORE PUSH1 0x40 SWAP1 KECCAK256 SLOAD PUSH1 0xFF AND ISZERO DUP1 ISZERO PUSH2 0x1F2E JUMPI POP PUSH1 0x1 PUSH1 0x1 PUSH1 0xA0 SHL SUB DUP4 AND PUSH1 0x0 SWAP1 DUP2 MSTORE PUSH1 0x1 PUSH1 0x20 MSTORE PUSH1 0x40 SWAP1 KECCAK256 SLOAD PUSH1 0xFF AND ISZERO JUMPDEST ISZERO PUSH2 0x1F5C JUMPI PUSH1 0x24 SLOAD PUSH1 0x1 PUSH1 0xA0 SHL SWAP1 DIV PUSH1 0xFF AND PUSH2 0x1F5C JUMPI PUSH1 0x40 MLOAD PUSH3 0x461BCD PUSH1 0xE5 SHL DUP2 MSTORE PUSH1 0x4 ADD PUSH2 0xB0B SWAP1 PUSH2 0x31E3 JUMP JUMPDEST PUSH1 0xF SLOAD PUSH1 0xFF AND ISZERO PUSH2 0x1FC5 JUMPI PUSH1 0x1 PUSH1 0x1 PUSH1 0xA0 SHL SUB DUP5 AND PUSH1 0x0 SWAP1 DUP2 MSTORE PUSH1 0x10 PUSH1 0x20 MSTORE PUSH1 0x40 SWAP1 KECCAK256 SLOAD PUSH1 0xFF AND ISZERO DUP1 ISZERO PUSH2 0x1FA9 JUMPI POP PUSH1 0x1 PUSH1 0x1 PUSH1 0xA0 SHL SUB DUP4 AND PUSH1 0x0 SWAP1 DUP2 MSTORE PUSH1 0x10 PUSH1 0x20 MSTORE PUSH1 0x40 SWAP1 KECCAK256 SLOAD PUSH1 0xFF AND ISZERO JUMPDEST PUSH2 0x1FC5 JUMPI PUSH1 0x40 MLOAD PUSH3 0x461BCD PUSH1 0xE5 SHL DUP2 MSTORE PUSH1 0x4 ADD PUSH2 0xB0B SWAP1 PUSH2 0x33A0 JUMP JUMPDEST PUSH1 0x1 PUSH1 0x1 PUSH1 0xA0 SHL SUB DUP5 AND PUSH1 0x0 SWAP1 DUP2 MSTORE PUSH1 0x1 PUSH1 0x20 MSTORE PUSH1 0x40 SWAP1 KECCAK256 SLOAD PUSH1 0xFF AND ISZERO DUP1 ISZERO PUSH2 0x1FF7 JUMPI POP PUSH1 0x1 PUSH1 0x1 PUSH1 0xA0 SHL SUB DUP4 AND ADDRESS EQ ISZERO JUMPDEST DUP1 ISZERO PUSH2 0x2011 JUMPI POP PUSH1 0x3 SLOAD PUSH1 0x1 PUSH1 0x1 PUSH1 0xA0 SHL SUB DUP5 DUP2 AND SWAP2 AND EQ ISZERO JUMPDEST DUP1 ISZERO PUSH2 0x202B JUMPI POP PUSH1 0x24 SLOAD PUSH1 0x1 PUSH1 0x1 PUSH1 0xA0 SHL SUB DUP5 DUP2 AND SWAP2 AND EQ ISZERO JUMPDEST DUP1 ISZERO PUSH2 0x2045 JUMPI POP PUSH1 0x20 SLOAD PUSH1 0x1 PUSH1 0x1 PUSH1 0xA0 SHL SUB DUP5 DUP2 AND SWAP2 AND EQ ISZERO JUMPDEST DUP1 ISZERO PUSH2 0x205F JUMPI POP PUSH1 0x1F SLOAD PUSH1 0x1 PUSH1 0x1 PUSH1 0xA0 SHL SUB DUP5 DUP2 AND SWAP2 AND EQ ISZERO JUMPDEST ISZERO PUSH2 0x2097 JUMPI PUSH1 0x0 PUSH2 0x206F DUP5 PUSH2 0x177B JUMP JUMPDEST SWAP1 POP PUSH1 0xC SLOAD DUP4 DUP3 ADD GT ISZERO PUSH2 0x2095 JUMPI PUSH1 0x40 MLOAD PUSH3 0x461BCD PUSH1 0xE5 SHL DUP2 MSTORE PUSH1 0x4 ADD PUSH2 0xB0B SWAP1 PUSH2 0x3252 JUMP JUMPDEST POP JUMPDEST PUSH1 0x24 SLOAD PUSH1 0x1 PUSH1 0x1 PUSH1 0xA0 SHL SUB DUP6 DUP2 AND SWAP2 AND EQ DUP1 ISZERO PUSH2 0x20B6 JUMPI POP PUSH1 0x27 SLOAD PUSH1 0xFF AND JUMPDEST DUP1 ISZERO PUSH2 0x20DB JUMPI POP PUSH1 0x1 PUSH1 0x1 PUSH1 0xA0 SHL SUB DUP4 AND PUSH1 0x0 SWAP1 DUP2 MSTORE PUSH1 0x14 PUSH1 0x20 MSTORE PUSH1 0x40 SWAP1 KECCAK256 SLOAD PUSH1 0xFF AND ISZERO JUMPDEST ISZERO PUSH2 0x2140 JUMPI PUSH1 0x1 PUSH1 0x1 PUSH1 0xA0 SHL SUB DUP4 AND PUSH1 0x0 SWAP1 DUP2 MSTORE PUSH1 0x28 PUSH1 0x20 MSTORE PUSH1 0x40 SWAP1 KECCAK256 SLOAD TIMESTAMP GT PUSH2 0x2117 JUMPI PUSH1 0x40 MLOAD PUSH3 0x461BCD PUSH1 0xE5 SHL DUP2 MSTORE PUSH1 0x4 ADD PUSH2 0xB0B SWAP1 PUSH2 0x3169 JUMP JUMPDEST PUSH1 0x27 SLOAD PUSH1 0x1 PUSH1 0x1 PUSH1 0xA0 SHL SUB DUP5 AND PUSH1 0x0 SWAP1 DUP2 MSTORE PUSH1 0x28 PUSH1 0x20 MSTORE PUSH1 0x40 SWAP1 KECCAK256 PUSH2 0x100 SWAP1 SWAP2 DIV PUSH1 0xFF AND TIMESTAMP ADD SWAP1 SSTORE JUMPDEST PUSH2 0x214A DUP5 DUP4 PUSH2 0x2555 JUMP JUMPDEST PUSH2 0x2152 PUSH2 0x259A JUMP JUMPDEST ISZERO PUSH2 0x215F JUMPI PUSH2 0x215F PUSH2 0x25E9 JUMP JUMPDEST PUSH1 0x40 DUP1 MLOAD DUP1 DUP3 ADD DUP3 MSTORE PUSH1 0x14 DUP2 MSTORE PUSH20 0x496E73756666696369656E742042616C616E6365 PUSH1 0x60 SHL PUSH1 0x20 DUP1 DUP4 ADD SWAP2 SWAP1 SWAP2 MSTORE PUSH1 0x1 PUSH1 0x1 PUSH1 0xA0 SHL SUB DUP8 AND PUSH1 0x0 SWAP1 DUP2 MSTORE PUSH1 0xD SWAP1 SWAP2 MSTORE SWAP2 SWAP1 SWAP2 KECCAK256 SLOAD PUSH2 0x21B1 SWAP2 DUP5 SWAP1 PUSH2 0x2504 JUMP JUMPDEST PUSH1 0x1 PUSH1 0x1 PUSH1 0xA0 SHL SUB DUP6 AND PUSH1 0x0 SWAP1 DUP2 MSTORE PUSH1 0xD PUSH1 0x20 MSTORE PUSH1 0x40 DUP2 KECCAK256 SWAP2 SWAP1 SWAP2 SSTORE PUSH2 0x21D6 DUP6 PUSH2 0x2AA4 JUMP JUMPDEST PUSH2 0x21E0 JUMPI DUP3 PUSH2 0x21FE JUMP JUMPDEST PUSH1 0x24 SLOAD PUSH2 0x21FE SWAP1 DUP7 SWAP1 DUP6 SWAP1 PUSH1 0x1 PUSH1 0x1 PUSH1 0xA0 SHL SUB DUP9 DUP2 AND SWAP2 AND EQ PUSH2 0x2AC3 JUMP JUMPDEST PUSH1 0x1 PUSH1 0x1 PUSH1 0xA0 SHL SUB DUP6 AND PUSH1 0x0 SWAP1 DUP2 MSTORE PUSH1 0xD PUSH1 0x20 MSTORE PUSH1 0x40 SWAP1 KECCAK256 SLOAD SWAP1 SWAP2 POP PUSH2 0x2224 SWAP1 DUP3 PUSH2 0x2530 JUMP JUMPDEST PUSH1 0x1 PUSH1 0x1 PUSH1 0xA0 SHL SUB DUP1 DUP7 AND PUSH1 0x0 SWAP1 DUP2 MSTORE PUSH1 0xD PUSH1 0x20 SWAP1 DUP2 MSTORE PUSH1 0x40 DUP1 DUP4 KECCAK256 SWAP5 SWAP1 SWAP5 SSTORE SWAP2 DUP9 AND DUP2 MSTORE PUSH1 0x13 SWAP1 SWAP2 MSTORE KECCAK256 SLOAD PUSH1 0xFF AND ISZERO DUP1 PUSH2 0x2278 JUMPI POP PUSH1 0x1 PUSH1 0x1 PUSH1 0xA0 SHL SUB DUP6 AND PUSH1 0x0 SWAP1 DUP2 MSTORE PUSH1 0x15 PUSH1 0x20 MSTORE PUSH1 0x40 SWAP1 KECCAK256 SLOAD PUSH1 0xFF AND ISZERO JUMPDEST ISZERO PUSH2 0x22EE JUMPI PUSH1 0x25 SLOAD PUSH1 0x1 PUSH1 0x1 PUSH1 0xA0 SHL SUB DUP7 DUP2 AND PUSH1 0x0 SWAP1 DUP2 MSTORE PUSH1 0xD PUSH1 0x20 MSTORE PUSH1 0x40 SWAP1 DUP2 SWAP1 KECCAK256 SLOAD SWAP1 MLOAD PUSH4 0xA5B654B PUSH1 0xE1 SHL DUP2 MSTORE SWAP2 SWAP1 SWAP3 AND SWAP2 PUSH4 0x14B6CA96 SWAP2 PUSH2 0x22C1 SWAP2 DUP10 SWAP2 PUSH1 0x4 ADD PUSH2 0x2FE9 JUMP JUMPDEST PUSH1 0x0 PUSH1 0x40 MLOAD DUP1 DUP4 SUB DUP2 PUSH1 0x0 DUP8 DUP1 EXTCODESIZE ISZERO DUP1 ISZERO PUSH2 0x22DB JUMPI PUSH1 0x0 DUP1 REVERT JUMPDEST POP GAS CALL SWAP3 POP POP POP DUP1 ISZERO PUSH2 0x22EC JUMPI POP PUSH1 0x1 JUMPDEST POP JUMPDEST PUSH1 0x1 PUSH1 0x1 PUSH1 0xA0 SHL SUB DUP5 AND PUSH1 0x0 SWAP1 DUP2 MSTORE PUSH1 0x13 PUSH1 0x20 MSTORE PUSH1 0x40 SWAP1 KECCAK256 SLOAD PUSH1 0xFF AND ISZERO DUP1 PUSH2 0x232F JUMPI POP PUSH1 0x1 PUSH1 0x1 PUSH1 0xA0 SHL SUB DUP5 AND PUSH1 0x0 SWAP1 DUP2 MSTORE PUSH1 0x15 PUSH1 0x20 MSTORE PUSH1 0x40 SWAP1 KECCAK256 SLOAD PUSH1 0xFF AND ISZERO JUMPDEST ISZERO PUSH2 0x23A5 JUMPI PUSH1 0x25 SLOAD PUSH1 0x1 PUSH1 0x1 PUSH1 0xA0 SHL SUB DUP6 DUP2 AND PUSH1 0x0 SWAP1 DUP2 MSTORE PUSH1 0xD PUSH1 0x20 MSTORE PUSH1 0x40 SWAP1 DUP2 SWAP1 KECCAK256 SLOAD SWAP1 MLOAD PUSH4 0xA5B654B PUSH1 0xE1 SHL DUP2 MSTORE SWAP2 SWAP1 SWAP3 AND SWAP2 PUSH4 0x14B6CA96 SWAP2 PUSH2 0x2378 SWAP2 DUP9 SWAP2 PUSH1 0x4 ADD PUSH2 0x2FE9 JUMP JUMPDEST PUSH1 0x0 PUSH1 0x40 MLOAD DUP1 DUP4 SUB DUP2 PUSH1 0x0 DUP8 DUP1 EXTCODESIZE ISZERO DUP1 ISZERO PUSH2 0x2392 JUMPI PUSH1 0x0 DUP1 REVERT JUMPDEST POP GAS CALL SWAP3 POP POP POP DUP1 ISZERO PUSH2 0x23A3 JUMPI POP PUSH1 0x1 JUMPDEST POP JUMPDEST PUSH1 0x25 SLOAD PUSH1 0x26 SLOAD PUSH1 0x40 MLOAD PUSH1 0x1 PUSH3 0x4D3B87 PUSH1 0xE0 SHL SUB NOT DUP2 MSTORE PUSH1 0x1 PUSH1 0x1 PUSH1 0xA0 SHL SUB SWAP1 SWAP3 AND SWAP2 PUSH4 0xFFB2C479 SWAP2 PUSH2 0x23D9 SWAP2 PUSH1 0x4 ADD PUSH2 0x33C5 JUMP JUMPDEST PUSH1 0x0 PUSH1 0x40 MLOAD DUP1 DUP4 SUB DUP2 PUSH1 0x0 DUP8 DUP1 EXTCODESIZE ISZERO DUP1 ISZERO PUSH2 0x23F3 JUMPI PUSH1 0x0 DUP1 REVERT JUMPDEST POP GAS CALL SWAP3 POP POP POP DUP1 ISZERO PUSH2 0x2404 JUMPI POP PUSH1 0x1 JUMPDEST POP DUP4 PUSH1 0x1 PUSH1 0x1 PUSH1 0xA0 SHL SUB AND DUP6 PUSH1 0x1 PUSH1 0x1 PUSH1 0xA0 SHL SUB AND PUSH1 0x0 DUP1 MLOAD PUSH1 0x20 PUSH2 0x345F DUP4 CODECOPY DUP2 MLOAD SWAP2 MSTORE DUP4 PUSH1 0x40 MLOAD PUSH2 0x2436 SWAP2 SWAP1 PUSH2 0x33C5 JUMP JUMPDEST PUSH1 0x40 MLOAD DUP1 SWAP2 SUB SWAP1 LOG3 POP PUSH1 0x1 SWAP5 SWAP4 POP POP POP POP JUMP JUMPDEST PUSH1 0x0 PUSH2 0x10E7 DUP4 DUP4 PUSH1 0x40 MLOAD DUP1 PUSH1 0x40 ADD PUSH1 0x40 MSTORE DUP1 PUSH1 0x1E DUP2 MSTORE PUSH1 0x20 ADD PUSH32 0x536166654D6174683A207375627472616374696F6E206F766572666C6F770000 DUP2 MSTORE POP PUSH2 0x2504 JUMP JUMPDEST PUSH1 0x0 DUP3 PUSH2 0x249A JUMPI POP PUSH1 0x0 PUSH2 0xB8F JUMP JUMPDEST DUP3 DUP3 MUL DUP3 DUP5 DUP3 DUP2 PUSH2 0x24A7 JUMPI INVALID JUMPDEST DIV EQ PUSH2 0x10E7 JUMPI PUSH1 0x40 MLOAD PUSH3 0x461BCD PUSH1 0xE5 SHL DUP2 MSTORE PUSH1 0x4 ADD PUSH2 0xB0B SWAP1 PUSH2 0x3211 JUMP JUMPDEST PUSH1 0x0 PUSH2 0x10E7 DUP4 DUP4 PUSH1 0x40 MLOAD DUP1 PUSH1 0x40 ADD PUSH1 0x40 MSTORE DUP1 PUSH1 0x1A DUP2 MSTORE PUSH1 0x20 ADD PUSH26 0x536166654D6174683A206469766973696F6E206279207A65726F PUSH1 0x30 SHL DUP2 MSTORE POP PUSH2 0x2B72 JUMP JUMPDEST PUSH1 0x0 DUP2 DUP5 DUP5 GT ISZERO PUSH2 0x2528 JUMPI PUSH1 0x40 MLOAD PUSH3 0x461BCD PUSH1 0xE5 SHL DUP2 MSTORE PUSH1 0x4 ADD PUSH2 0xB0B SWAP2 SWAP1 PUSH2 0x3042 JUMP JUMPDEST POP POP POP SWAP1 SUB SWAP1 JUMP JUMPDEST PUSH1 0x0 DUP3 DUP3 ADD DUP4 DUP2 LT ISZERO PUSH2 0x10E7 JUMPI PUSH1 0x40 MLOAD PUSH3 0x461BCD PUSH1 0xE5 SHL DUP2 MSTORE PUSH1 0x4 ADD PUSH2 0xB0B SWAP1 PUSH2 0x3134 JUMP JUMPDEST PUSH1 0xB SLOAD DUP2 GT ISZERO DUP1 PUSH2 0x257E JUMPI POP PUSH1 0x1 PUSH1 0x1 PUSH1 0xA0 SHL SUB DUP3 AND PUSH1 0x0 SWAP1 DUP2 MSTORE PUSH1 0x16 PUSH1 0x20 MSTORE PUSH1 0x40 SWAP1 KECCAK256 SLOAD PUSH1 0xFF AND JUMPDEST PUSH2 0x16B6 JUMPI PUSH1 0x40 MLOAD PUSH3 0x461BCD PUSH1 0xE5 SHL DUP2 MSTORE PUSH1 0x4 ADD PUSH2 0xB0B SWAP1 PUSH2 0x30DD JUMP JUMPDEST PUSH1 0x24 SLOAD PUSH1 0x0 SWAP1 PUSH1 0x1 PUSH1 0x1 PUSH1 0xA0 SHL SUB AND CALLER EQ DUP1 ISZERO SWAP1 PUSH2 0x25BB JUMPI POP PUSH1 0x2B SLOAD PUSH1 0xFF AND ISZERO JUMPDEST DUP1 ISZERO PUSH2 0x25C9 JUMPI POP PUSH1 0x29 SLOAD PUSH1 0xFF AND JUMPDEST DUP1 ISZERO PUSH2 0x1182 JUMPI POP POP PUSH1 0x2A SLOAD ADDRESS PUSH1 0x0 SWAP1 DUP2 MSTORE PUSH1 0xD PUSH1 0x20 MSTORE PUSH1 0x40 SWAP1 KECCAK256 SLOAD LT ISZERO SWAP1 JUMP JUMPDEST PUSH1 0x2B DUP1 SLOAD PUSH1 0xFF NOT AND PUSH1 0x1 OR SWAP1 SSTORE PUSH1 0x21 SLOAD PUSH1 0x22 SLOAD PUSH1 0x0 SWAP2 PUSH2 0x2608 SWAP2 PUSH2 0xBD8 JUMP JUMPDEST PUSH2 0x2614 JUMPI PUSH1 0x18 SLOAD PUSH2 0x2617 JUMP JUMPDEST PUSH1 0x0 JUMPDEST SWAP1 POP PUSH1 0x0 PUSH2 0x263B PUSH1 0x2 PUSH2 0x1C2A PUSH1 0x1C SLOAD PUSH2 0x1C2A DUP7 PUSH1 0x2A SLOAD PUSH2 0x248B SWAP1 SWAP2 SWAP1 PUSH4 0xFFFFFFFF AND JUMP JUMPDEST SWAP1 POP PUSH1 0x0 PUSH2 0x2654 DUP3 PUSH1 0x2A SLOAD PUSH2 0x2449 SWAP1 SWAP2 SWAP1 PUSH4 0xFFFFFFFF AND JUMP JUMPDEST PUSH1 0x40 DUP1 MLOAD PUSH1 0x2 DUP1 DUP3 MSTORE PUSH1 0x60 DUP3 ADD DUP4 MSTORE SWAP3 SWAP4 POP PUSH1 0x0 SWAP3 SWAP1 SWAP2 PUSH1 0x20 DUP4 ADD SWAP1 DUP1 CALLDATASIZE DUP4 CALLDATACOPY ADD SWAP1 POP POP SWAP1 POP ADDRESS DUP2 PUSH1 0x0 DUP2 MLOAD DUP2 LT PUSH2 0x2688 JUMPI INVALID JUMPDEST PUSH1 0x1 PUSH1 0x1 PUSH1 0xA0 SHL SUB SWAP3 DUP4 AND PUSH1 0x20 SWAP2 DUP3 MUL SWAP3 SWAP1 SWAP3 ADD ADD MSTORE PUSH1 0x2 SLOAD DUP3 MLOAD SWAP2 AND SWAP1 DUP3 SWAP1 PUSH1 0x1 SWAP1 DUP2 LT PUSH2 0x26B3 JUMPI INVALID JUMPDEST PUSH1 0x1 PUSH1 0x1 PUSH1 0xA0 SHL SUB SWAP1 SWAP3 AND PUSH1 0x20 SWAP3 DUP4 MUL SWAP2 SWAP1 SWAP2 ADD SWAP1 SWAP2 ADD MSTORE SELFBALANCE DUP3 PUSH2 0x26DB JUMPI POP POP POP POP POP PUSH2 0x2A98 JUMP JUMPDEST PUSH1 0x23 SLOAD PUSH1 0x40 MLOAD PUSH4 0x791AC947 PUSH1 0xE0 SHL DUP2 MSTORE PUSH1 0x1 PUSH1 0x1 PUSH1 0xA0 SHL SUB SWAP1 SWAP2 AND SWAP1 PUSH4 0x791AC947 SWAP1 PUSH2 0x2714 SWAP1 DUP7 SWAP1 PUSH1 0x0 SWAP1 DUP8 SWAP1 ADDRESS SWAP1 TIMESTAMP SWAP1 PUSH1 0x4 ADD PUSH2 0x33CE JUMP JUMPDEST PUSH1 0x0 PUSH1 0x40 MLOAD DUP1 DUP4 SUB DUP2 PUSH1 0x0 DUP8 DUP1 EXTCODESIZE ISZERO DUP1 ISZERO PUSH2 0x272E JUMPI PUSH1 0x0 DUP1 REVERT JUMPDEST POP GAS CALL ISZERO DUP1 ISZERO PUSH2 0x2742 JUMPI RETURNDATASIZE PUSH1 0x0 DUP1 RETURNDATACOPY RETURNDATASIZE PUSH1 0x0 REVERT JUMPDEST POP POP POP POP PUSH1 0x0 PUSH2 0x275B DUP3 SELFBALANCE PUSH2 0x2449 SWAP1 SWAP2 SWAP1 PUSH4 0xFFFFFFFF AND JUMP JUMPDEST SWAP1 POP PUSH1 0x0 PUSH2 0x2776 PUSH2 0x276D DUP9 PUSH1 0x2 PUSH2 0x24C5 JUMP JUMPDEST PUSH1 0x1C SLOAD SWAP1 PUSH2 0x2449 JUMP JUMPDEST SWAP1 POP PUSH1 0x0 PUSH2 0x278B PUSH1 0x2 PUSH2 0x1C2A DUP5 DUP2 DUP8 DUP14 PUSH2 0x248B JUMP JUMPDEST SWAP1 POP PUSH1 0x0 PUSH2 0x27A8 DUP4 PUSH2 0x1C2A PUSH1 0x19 SLOAD DUP8 PUSH2 0x248B SWAP1 SWAP2 SWAP1 PUSH4 0xFFFFFFFF AND JUMP JUMPDEST SWAP1 POP PUSH1 0x0 PUSH2 0x27C5 DUP5 PUSH2 0x1C2A PUSH1 0x1B SLOAD DUP9 PUSH2 0x248B SWAP1 SWAP2 SWAP1 PUSH4 0xFFFFFFFF AND JUMP JUMPDEST SWAP1 POP PUSH1 0x0 PUSH2 0x27E2 DUP6 PUSH2 0x1C2A PUSH1 0x1A SLOAD DUP10 PUSH2 0x248B SWAP1 SWAP2 SWAP1 PUSH4 0xFFFFFFFF AND JUMP JUMPDEST SWAP1 POP PUSH1 0x25 PUSH1 0x0 SWAP1 SLOAD SWAP1 PUSH2 0x100 EXP SWAP1 DIV PUSH1 0x1 PUSH1 0x1 PUSH1 0xA0 SHL SUB AND PUSH1 0x1 PUSH1 0x1 PUSH1 0xA0 SHL SUB AND PUSH4 0xDE353ECB DUP5 PUSH1 0x40 MLOAD DUP3 PUSH4 0xFFFFFFFF AND PUSH1 0xE0 SHL DUP2 MSTORE PUSH1 0x4 ADD PUSH1 0x0 PUSH1 0x40 MLOAD DUP1 DUP4 SUB DUP2 DUP6 DUP9 DUP1 EXTCODESIZE ISZERO DUP1 ISZERO PUSH2 0x2834 JUMPI PUSH1 0x0 DUP1 REVERT JUMPDEST POP GAS CALL SWAP4 POP POP POP POP DUP1 ISZERO PUSH2 0x2846 JUMPI POP PUSH1 0x1 JUMPDEST POP PUSH1 0x25 PUSH1 0x0 SWAP1 SLOAD SWAP1 PUSH2 0x100 EXP SWAP1 DIV PUSH1 0x1 PUSH1 0x1 PUSH1 0xA0 SHL SUB AND PUSH1 0x1 PUSH1 0x1 PUSH1 0xA0 SHL SUB AND PUSH4 0x152111F7 DUP4 PUSH1 0x40 MLOAD DUP3 PUSH4 0xFFFFFFFF AND PUSH1 0xE0 SHL DUP2 MSTORE PUSH1 0x4 ADD PUSH1 0x0 PUSH1 0x40 MLOAD DUP1 DUP4 SUB DUP2 DUP6 DUP9 DUP1 EXTCODESIZE ISZERO DUP1 ISZERO PUSH2 0x2897 JUMPI PUSH1 0x0 DUP1 REVERT JUMPDEST POP GAS CALL SWAP4 POP POP POP POP DUP1 ISZERO PUSH2 0x28A9 JUMPI POP PUSH1 0x1 JUMPDEST POP PUSH1 0x40 DUP1 MLOAD PUSH1 0x2 DUP1 DUP3 MSTORE PUSH1 0x60 DUP3 ADD DUP4 MSTORE PUSH1 0x0 SWAP3 PUSH1 0x20 DUP4 ADD SWAP1 DUP1 CALLDATASIZE DUP4 CALLDATACOPY POP POP PUSH1 0x2 SLOAD DUP3 MLOAD SWAP3 SWAP4 POP PUSH1 0x1 PUSH1 0x1 PUSH1 0xA0 SHL SUB AND SWAP2 DUP4 SWAP2 POP PUSH1 0x0 SWAP1 PUSH2 0x28E5 JUMPI INVALID JUMPDEST PUSH1 0x1 PUSH1 0x1 PUSH1 0xA0 SHL SUB SWAP3 DUP4 AND PUSH1 0x20 SWAP2 DUP3 MUL SWAP3 SWAP1 SWAP3 ADD ADD MSTORE PUSH1 0x6 SLOAD DUP3 MLOAD SWAP2 AND SWAP1 DUP3 SWAP1 PUSH1 0x1 SWAP1 DUP2 LT PUSH2 0x2910 JUMPI INVALID JUMPDEST PUSH1 0x1 PUSH1 0x1 PUSH1 0xA0 SHL SUB SWAP3 DUP4 AND PUSH1 0x20 SWAP2 DUP3 MUL SWAP3 SWAP1 SWAP3 ADD DUP2 ADD SWAP2 SWAP1 SWAP2 MSTORE PUSH1 0x23 SLOAD SWAP1 SLOAD PUSH1 0x40 MLOAD PUSH4 0xB6F9DE95 PUSH1 0xE0 SHL DUP2 MSTORE SWAP2 DUP4 AND SWAP3 PUSH4 0xB6F9DE95 SWAP3 DUP7 SWAP3 PUSH2 0x295F SWAP3 PUSH1 0x0 SWAP3 DUP9 SWAP3 SWAP1 SWAP2 AND SWAP1 TIMESTAMP SWAP1 PUSH1 0x4 ADD PUSH2 0x300D JUMP JUMPDEST PUSH1 0x0 PUSH1 0x40 MLOAD DUP1 DUP4 SUB DUP2 DUP6 DUP9 DUP1 EXTCODESIZE ISZERO DUP1 ISZERO PUSH2 0x2978 JUMPI PUSH1 0x0 DUP1 REVERT JUMPDEST POP GAS CALL ISZERO DUP1 ISZERO PUSH2 0x298C JUMPI RETURNDATASIZE PUSH1 0x0 DUP1 RETURNDATACOPY RETURNDATASIZE PUSH1 0x0 REVERT JUMPDEST POP POP POP POP POP PUSH1 0x0 DUP12 GT ISZERO PUSH2 0x2A8B JUMPI PUSH1 0x23 PUSH1 0x0 SWAP1 SLOAD SWAP1 PUSH2 0x100 EXP SWAP1 DIV PUSH1 0x1 PUSH1 0x1 PUSH1 0xA0 SHL SUB AND PUSH1 0x1 PUSH1 0x1 PUSH1 0xA0 SHL SUB AND PUSH4 0xF305D719 DUP7 ADDRESS DUP15 PUSH1 0x0 DUP1 PUSH1 0x1F PUSH1 0x0 SWAP1 SLOAD SWAP1 PUSH2 0x100 EXP SWAP1 DIV PUSH1 0x1 PUSH1 0x1 PUSH1 0xA0 SHL SUB AND TIMESTAMP PUSH1 0x40 MLOAD DUP9 PUSH4 0xFFFFFFFF AND PUSH1 0xE0 SHL DUP2 MSTORE PUSH1 0x4 ADD PUSH2 0x29FC SWAP7 SWAP6 SWAP5 SWAP4 SWAP3 SWAP2 SWAP1 PUSH2 0x2FAE JUMP JUMPDEST PUSH1 0x60 PUSH1 0x40 MLOAD DUP1 DUP4 SUB DUP2 DUP6 DUP9 DUP1 EXTCODESIZE ISZERO DUP1 ISZERO PUSH2 0x2A15 JUMPI PUSH1 0x0 DUP1 REVERT JUMPDEST POP GAS CALL ISZERO DUP1 ISZERO PUSH2 0x2A29 JUMPI RETURNDATASIZE PUSH1 0x0 DUP1 RETURNDATACOPY RETURNDATASIZE PUSH1 0x0 REVERT JUMPDEST POP POP POP POP POP PUSH1 0x40 MLOAD RETURNDATASIZE PUSH1 0x1F NOT PUSH1 0x1F DUP3 ADD AND DUP3 ADD DUP1 PUSH1 0x40 MSTORE POP DUP2 ADD SWAP1 PUSH2 0x2A4E SWAP2 SWAP1 PUSH2 0x2F2A JUMP JUMPDEST POP POP POP PUSH32 0x424DB2872186FA7E7AFA7A5E902ED3B49A2EF19C2F5431E672462495DD6B4506 DUP6 DUP13 PUSH1 0x40 MLOAD PUSH2 0x2A82 SWAP3 SWAP2 SWAP1 PUSH2 0x340A JUMP JUMPDEST PUSH1 0x40 MLOAD DUP1 SWAP2 SUB SWAP1 LOG1 JUMPDEST POP POP POP POP POP POP POP POP POP POP POP POP JUMPDEST PUSH1 0x2B DUP1 SLOAD PUSH1 0xFF NOT AND SWAP1 SSTORE JUMP JUMPDEST PUSH1 0x1 PUSH1 0x1 PUSH1 0xA0 SHL SUB AND PUSH1 0x0 SWAP1 DUP2 MSTORE PUSH1 0x11 PUSH1 0x20 MSTORE PUSH1 0x40 SWAP1 KECCAK256 SLOAD PUSH1 0xFF AND ISZERO SWAP1 JUMP JUMPDEST PUSH1 0x0 DUP1 DUP3 PUSH2 0x2AD2 JUMPI PUSH1 0x64 PUSH2 0x2AD6 JUMP JUMPDEST PUSH1 0x1E SLOAD JUMPDEST SWAP1 POP PUSH1 0x0 PUSH2 0x2AFC PUSH1 0x1D SLOAD PUSH1 0x64 MUL PUSH2 0x1C2A DUP5 PUSH2 0x1C1D PUSH1 0x1C SLOAD DUP11 PUSH2 0x248B SWAP1 SWAP2 SWAP1 PUSH4 0xFFFFFFFF AND JUMP JUMPDEST ADDRESS PUSH1 0x0 SWAP1 DUP2 MSTORE PUSH1 0xD PUSH1 0x20 MSTORE PUSH1 0x40 SWAP1 KECCAK256 SLOAD SWAP1 SWAP2 POP PUSH2 0x2B19 SWAP1 DUP3 PUSH2 0x2530 JUMP JUMPDEST ADDRESS PUSH1 0x0 DUP2 DUP2 MSTORE PUSH1 0xD PUSH1 0x20 MSTORE PUSH1 0x40 SWAP1 DUP2 SWAP1 KECCAK256 SWAP3 SWAP1 SWAP3 SSTORE SWAP1 MLOAD PUSH1 0x1 PUSH1 0x1 PUSH1 0xA0 SHL SUB DUP9 AND SWAP1 PUSH1 0x0 DUP1 MLOAD PUSH1 0x20 PUSH2 0x345F DUP4 CODECOPY DUP2 MLOAD SWAP2 MSTORE SWAP1 PUSH2 0x2B56 SWAP1 DUP6 SWAP1 PUSH2 0x33C5 JUMP JUMPDEST PUSH1 0x40 MLOAD DUP1 SWAP2 SUB SWAP1 LOG3 PUSH2 0x2B68 DUP6 DUP3 PUSH2 0x2449 JUMP JUMPDEST SWAP7 SWAP6 POP POP POP POP POP POP JUMP JUMPDEST PUSH1 0x0 DUP2 DUP4 PUSH2 0x2B93 JUMPI PUSH1 0x40 MLOAD PUSH3 0x461BCD PUSH1 0xE5 SHL DUP2 MSTORE PUSH1 0x4 ADD PUSH2 0xB0B SWAP2 SWAP1 PUSH2 0x3042 JUMP JUMPDEST POP PUSH1 0x0 DUP4 DUP6 DUP2 PUSH2 0x2B9F JUMPI INVALID JUMPDEST DIV SWAP6 SWAP5 POP POP POP POP POP JUMP JUMPDEST PUSH1 0x0 DUP1 DUP4 PUSH1 0x1F DUP5 ADD SLT PUSH2 0x2BBA JUMPI DUP2 DUP3 REVERT JUMPDEST POP DUP2 CALLDATALOAD PUSH1 0x1 PUSH1 0x1 PUSH1 0x40 SHL SUB DUP2 GT ISZERO PUSH2 0x2BD0 JUMPI DUP2 DUP3 REVERT JUMPDEST PUSH1 0x20 DUP4 ADD SWAP2 POP DUP4 PUSH1 0x20 DUP1 DUP4 MUL DUP6 ADD ADD GT ISZERO PUSH2 0x2BEA JUMPI PUSH1 0x0 DUP1 REVERT JUMPDEST SWAP3 POP SWAP3 SWAP1 POP JUMP JUMPDEST DUP1 CALLDATALOAD DUP1 ISZERO ISZERO DUP2 EQ PUSH2 0x1269 JUMPI PUSH1 0x0 DUP1 REVERT JUMPDEST PUSH1 0x0 PUSH1 0x20 DUP3 DUP5 SUB SLT ISZERO PUSH2 0x2C12 JUMPI DUP1 DUP2 REVERT JUMPDEST DUP2 CALLDATALOAD PUSH2 0x10E7 DUP2 PUSH2 0x3426 JUMP JUMPDEST PUSH1 0x0 DUP1 PUSH1 0x40 DUP4 DUP6 SUB SLT ISZERO PUSH2 0x2C2F JUMPI DUP1 DUP2 REVERT JUMPDEST DUP3 CALLDATALOAD PUSH2 0x2C3A DUP2 PUSH2 0x3426 JUMP JUMPDEST SWAP2 POP PUSH1 0x20 DUP4 ADD CALLDATALOAD PUSH2 0x2C4A DUP2 PUSH2 0x3426 JUMP JUMPDEST DUP1 SWAP2 POP POP SWAP3 POP SWAP3 SWAP1 POP JUMP JUMPDEST PUSH1 0x0 DUP1 PUSH1 0x0 PUSH1 0x60 DUP5 DUP7 SUB SLT ISZERO PUSH2 0x2C69 JUMPI DUP1 DUP2 REVERT JUMPDEST DUP4 CALLDATALOAD PUSH2 0x2C74 DUP2 PUSH2 0x3426 JUMP JUMPDEST SWAP3 POP PUSH1 0x20 DUP5 ADD CALLDATALOAD PUSH2 0x2C84 DUP2 PUSH2 0x3426 JUMP JUMPDEST SWAP3 SWAP6 SWAP3 SWAP5 POP POP POP PUSH1 0x40 SWAP2 SWAP1 SWAP2 ADD CALLDATALOAD SWAP1 JUMP JUMPDEST PUSH1 0x0 DUP1 PUSH1 0x0 DUP1 PUSH1 0x0 PUSH1 0x60 DUP7 DUP9 SUB SLT ISZERO PUSH2 0x2CAC JUMPI DUP1 DUP2 REVERT JUMPDEST DUP6 CALLDATALOAD PUSH2 0x2CB7 DUP2 PUSH2 0x3426 JUMP JUMPDEST SWAP5 POP PUSH1 0x20 DUP7 ADD CALLDATALOAD PUSH1 0x1 PUSH1 0x1 PUSH1 0x40 SHL SUB DUP1 DUP3 GT ISZERO PUSH2 0x2CD2 JUMPI DUP3 DUP4 REVERT JUMPDEST PUSH2 0x2CDE DUP10 DUP4 DUP11 ADD PUSH2 0x2BA9 JUMP JUMPDEST SWAP1 SWAP7 POP SWAP5 POP PUSH1 0x40 DUP9 ADD CALLDATALOAD SWAP2 POP DUP1 DUP3 GT ISZERO PUSH2 0x2CF6 JUMPI DUP3 DUP4 REVERT JUMPDEST POP PUSH2 0x2D03 DUP9 DUP3 DUP10 ADD PUSH2 0x2BA9 JUMP JUMPDEST SWAP7 SWAP10 SWAP6 SWAP9 POP SWAP4 SWAP7 POP SWAP3 SWAP5 SWAP4 SWAP3 POP POP POP JUMP JUMPDEST PUSH1 0x0 DUP1 PUSH1 0x0 DUP1 PUSH1 0x60 DUP6 DUP8 SUB SLT ISZERO PUSH2 0x2D29 JUMPI DUP4 DUP5 REVERT JUMPDEST DUP5 CALLDATALOAD PUSH2 0x2D34 DUP2 PUSH2 0x3426 JUMP JUMPDEST SWAP4 POP PUSH1 0x20 DUP6 ADD CALLDATALOAD PUSH1 0x1 PUSH1 0x1 PUSH1 0x40 SHL SUB DUP2 GT ISZERO PUSH2 0x2D4E JUMPI DUP4 DUP5 REVERT JUMPDEST PUSH2 0x2D5A DUP8 DUP3 DUP9 ADD PUSH2 0x2BA9 JUMP JUMPDEST SWAP6 SWAP9 SWAP1 SWAP8 POP SWAP5 SWAP6 PUSH1 0x40 ADD CALLDATALOAD SWAP5 SWAP4 POP POP POP POP JUMP JUMPDEST PUSH1 0x0 DUP1 PUSH1 0x40 DUP4 DUP6 SUB SLT ISZERO PUSH2 0x2D7F JUMPI DUP2 DUP3 REVERT JUMPDEST DUP3 CALLDATALOAD PUSH2 0x2D8A DUP2 PUSH2 0x3426 JUMP JUMPDEST SWAP2 POP PUSH2 0x2D98 PUSH1 0x20 DUP5 ADD PUSH2 0x2BF1 JUMP JUMPDEST SWAP1 POP SWAP3 POP SWAP3 SWAP1 POP JUMP JUMPDEST PUSH1 0x0 DUP1 PUSH1 0x40 DUP4 DUP6 SUB SLT ISZERO PUSH2 0x2DB3 JUMPI DUP2 DUP3 REVERT JUMPDEST DUP3 CALLDATALOAD PUSH2 0x2DBE DUP2 PUSH2 0x3426 JUMP JUMPDEST SWAP5 PUSH1 0x20 SWAP4 SWAP1 SWAP4 ADD CALLDATALOAD SWAP4 POP POP POP JUMP JUMPDEST PUSH1 0x0 DUP1 PUSH1 0x0 PUSH1 0x40 DUP5 DUP7 SUB SLT ISZERO PUSH2 0x2DE0 JUMPI DUP3 DUP4 REVERT JUMPDEST DUP4 CALLDATALOAD PUSH1 0x1 PUSH1 0x1 PUSH1 0x40 SHL SUB DUP2 GT ISZERO PUSH2 0x2DF5 JUMPI DUP4 DUP5 REVERT JUMPDEST PUSH2 0x2E01 DUP7 DUP3 DUP8 ADD PUSH2 0x2BA9 JUMP JUMPDEST SWAP1 SWAP5 POP SWAP3 POP PUSH2 0x2E14 SWAP1 POP PUSH1 0x20 DUP6 ADD PUSH2 0x2BF1 JUMP JUMPDEST SWAP1 POP SWAP3 POP SWAP3 POP SWAP3 JUMP JUMPDEST PUSH1 0x0 PUSH1 0x20 DUP3 DUP5 SUB SLT ISZERO PUSH2 0x2E2E JUMPI DUP1 DUP2 REVERT JUMPDEST PUSH2 0x10E7 DUP3 PUSH2 0x2BF1 JUMP JUMPDEST PUSH1 0x0 DUP1 PUSH1 0x40 DUP4 DUP6 SUB SLT ISZERO PUSH2 0x2E49 JUMPI DUP2 DUP3 REVERT JUMPDEST PUSH2 0x2DBE DUP4 PUSH2 0x2BF1 JUMP JUMPDEST PUSH1 0x0 DUP1 PUSH1 0x40 DUP4 DUP6 SUB SLT ISZERO PUSH2 0x2E64 JUMPI DUP2 DUP3 REVERT JUMPDEST PUSH2 0x2E6D DUP4 PUSH2 0x2BF1 JUMP JUMPDEST SWAP2 POP PUSH1 0x20 DUP4 ADD CALLDATALOAD PUSH1 0xFF DUP2 AND DUP2 EQ PUSH2 0x2C4A JUMPI DUP2 DUP3 REVERT JUMPDEST PUSH1 0x0 DUP1 DUP3 DUP5 SUB PUSH1 0xA0 DUP2 SLT ISZERO PUSH2 0x2E95 JUMPI DUP3 DUP4 REVERT JUMPDEST PUSH1 0x80 DUP2 SLT ISZERO PUSH2 0x2EA2 JUMPI DUP3 DUP4 REVERT JUMPDEST POP PUSH1 0x40 MLOAD PUSH1 0x80 DUP2 ADD PUSH1 0x1 PUSH1 0x1 PUSH1 0x40 SHL SUB DUP2 GT DUP3 DUP3 LT OR ISZERO PUSH2 0x2EBF JUMPI INVALID JUMPDEST PUSH1 0x40 SWAP1 DUP2 MSTORE DUP5 CALLDATALOAD DUP3 MSTORE PUSH1 0x20 DUP1 DUP7 ADD CALLDATALOAD SWAP1 DUP4 ADD MSTORE DUP5 DUP2 ADD CALLDATALOAD SWAP1 DUP3 ADD MSTORE PUSH1 0x60 DUP1 DUP6 ADD CALLDATALOAD SWAP1 DUP3 ADD MSTORE SWAP5 PUSH1 0x80 SWAP1 SWAP4 ADD CALLDATALOAD SWAP4 POP POP POP JUMP JUMPDEST PUSH1 0x0 PUSH1 0x20 DUP3 DUP5 SUB SLT ISZERO PUSH2 0x2F02 JUMPI DUP1 DUP2 REVERT JUMPDEST POP CALLDATALOAD SWAP2 SWAP1 POP JUMP JUMPDEST PUSH1 0x0 DUP1 PUSH1 0x40 DUP4 DUP6 SUB SLT ISZERO PUSH2 0x2F1B JUMPI DUP2 DUP3 REVERT JUMPDEST POP POP DUP1 CALLDATALOAD SWAP3 PUSH1 0x20 SWAP1 SWAP2 ADD CALLDATALOAD SWAP2 POP JUMP JUMPDEST PUSH1 0x0 DUP1 PUSH1 0x0 PUSH1 0x60 DUP5 DUP7 SUB SLT ISZERO PUSH2 0x2F3E JUMPI DUP1 DUP2 REVERT JUMPDEST DUP4 MLOAD SWAP3 POP PUSH1 0x20 DUP5 ADD MLOAD SWAP2 POP PUSH1 0x40 DUP5 ADD MLOAD SWAP1 POP SWAP3 POP SWAP3 POP SWAP3 JUMP JUMPDEST PUSH1 0x0 DUP2 MLOAD DUP1 DUP5 MSTORE PUSH1 0x20 DUP1 DUP6 ADD SWAP5 POP DUP1 DUP5 ADD DUP4 JUMPDEST DUP4 DUP2 LT ISZERO PUSH2 0x2F8F JUMPI DUP2 MLOAD PUSH1 0x1 PUSH1 0x1 PUSH1 0xA0 SHL SUB AND DUP8 MSTORE SWAP6 DUP3 ADD SWAP6 SWAP1 DUP3 ADD SWAP1 PUSH1 0x1 ADD PUSH2 0x2F6A JUMP JUMPDEST POP SWAP5 SWAP6 SWAP5 POP POP POP POP POP JUMP JUMPDEST PUSH1 0x1 PUSH1 0x1 PUSH1 0xA0 SHL SUB SWAP2 SWAP1 SWAP2 AND DUP2 MSTORE PUSH1 0x20 ADD SWAP1 JUMP JUMPDEST PUSH1 0x1 PUSH1 0x1 PUSH1 0xA0 SHL SUB SWAP7 DUP8 AND DUP2 MSTORE PUSH1 0x20 DUP2 ADD SWAP6 SWAP1 SWAP6 MSTORE PUSH1 0x40 DUP6 ADD SWAP4 SWAP1 SWAP4 MSTORE PUSH1 0x60 DUP5 ADD SWAP2 SWAP1 SWAP2 MSTORE SWAP1 SWAP3 AND PUSH1 0x80 DUP3 ADD MSTORE PUSH1 0xA0 DUP2 ADD SWAP2 SWAP1 SWAP2 MSTORE PUSH1 0xC0 ADD SWAP1 JUMP JUMPDEST PUSH1 0x1 PUSH1 0x1 PUSH1 0xA0 SHL SUB SWAP3 SWAP1 SWAP3 AND DUP3 MSTORE PUSH1 0x20 DUP3 ADD MSTORE PUSH1 0x40 ADD SWAP1 JUMP JUMPDEST SWAP1 ISZERO ISZERO DUP2 MSTORE PUSH1 0x20 ADD SWAP1 JUMP JUMPDEST PUSH1 0x0 DUP6 DUP3 MSTORE PUSH1 0x80 PUSH1 0x20 DUP4 ADD MSTORE PUSH2 0x3026 PUSH1 0x80 DUP4 ADD DUP7 PUSH2 0x2F57 JUMP JUMPDEST PUSH1 0x1 PUSH1 0x1 PUSH1 0xA0 SHL SUB SWAP5 SWAP1 SWAP5 AND PUSH1 0x40 DUP4 ADD MSTORE POP PUSH1 0x60 ADD MSTORE SWAP3 SWAP2 POP POP JUMP JUMPDEST PUSH1 0x0 PUSH1 0x20 DUP1 DUP4 MSTORE DUP4 MLOAD DUP1 DUP3 DUP6 ADD MSTORE DUP3 JUMPDEST DUP2 DUP2 LT ISZERO PUSH2 0x306E JUMPI DUP6 DUP2 ADD DUP4 ADD MLOAD DUP6 DUP3 ADD PUSH1 0x40 ADD MSTORE DUP3 ADD PUSH2 0x3052 JUMP JUMPDEST DUP2 DUP2 GT ISZERO PUSH2 0x307F JUMPI DUP4 PUSH1 0x40 DUP4 DUP8 ADD ADD MSTORE JUMPDEST POP PUSH1 0x1F ADD PUSH1 0x1F NOT AND SWAP3 SWAP1 SWAP3 ADD PUSH1 0x40 ADD SWAP4 SWAP3 POP POP POP JUMP JUMPDEST PUSH1 0x20 DUP1 DUP3 MSTORE PUSH1 0x28 SWAP1 DUP3 ADD MSTORE PUSH32 0x4D69736D61746368206265747765656E204164647265737320616E6420746F6B PUSH1 0x40 DUP3 ADD MSTORE PUSH8 0x195B8818DBDD5B9D PUSH1 0xC2 SHL PUSH1 0x60 DUP3 ADD MSTORE PUSH1 0x80 ADD SWAP1 JUMP JUMPDEST PUSH1 0x20 DUP1 DUP3 MSTORE PUSH1 0x11 SWAP1 DUP3 ADD MSTORE PUSH17 0x151608131A5B5A5D08115E18D959591959 PUSH1 0x7A SHL PUSH1 0x40 DUP3 ADD MSTORE PUSH1 0x60 ADD SWAP1 JUMP JUMPDEST PUSH1 0x20 DUP1 DUP3 MSTORE PUSH1 0x12 SWAP1 DUP3 ADD MSTORE PUSH18 0x125B9CDD59999A58D95B9D08105B5BDD5B9D PUSH1 0x72 SHL PUSH1 0x40 DUP3 ADD MSTORE PUSH1 0x60 ADD SWAP1 JUMP JUMPDEST PUSH1 0x20 DUP1 DUP3 MSTORE PUSH1 0x1B SWAP1 DUP3 ADD MSTORE PUSH27 0x536166654D6174683A206164646974696F6E206F766572666C6F77 PUSH1 0x28 SHL PUSH1 0x40 DUP3 ADD MSTORE PUSH1 0x60 ADD SWAP1 JUMP JUMPDEST PUSH1 0x20 DUP1 DUP3 MSTORE PUSH1 0x25 SWAP1 DUP3 ADD MSTORE PUSH32 0x506C65617365207761697420666F7220316D696E206265747765656E2074776F PUSH1 0x40 DUP3 ADD MSTORE PUSH5 0x2062757973 PUSH1 0xD8 SHL PUSH1 0x60 DUP3 ADD MSTORE PUSH1 0x80 ADD SWAP1 JUMP JUMPDEST PUSH1 0x20 DUP1 DUP3 MSTORE PUSH1 0x1B SWAP1 DUP3 ADD MSTORE PUSH27 0x139BDD08195B9BDD59DA081D1BDAD95B9CC81A5B881DD85B1B195D PUSH1 0x2A SHL PUSH1 0x40 DUP3 ADD MSTORE PUSH1 0x60 ADD SWAP1 JUMP JUMPDEST PUSH1 0x20 DUP1 DUP3 MSTORE PUSH1 0x14 SWAP1 DUP3 ADD MSTORE PUSH20 0x151C98591A5B99C81B9BDD081BDC195B881E595D PUSH1 0x62 SHL PUSH1 0x40 DUP3 ADD MSTORE PUSH1 0x60 ADD SWAP1 JUMP JUMPDEST PUSH1 0x20 DUP1 DUP3 MSTORE PUSH1 0x21 SWAP1 DUP3 ADD MSTORE PUSH32 0x536166654D6174683A206D756C7469706C69636174696F6E206F766572666C6F PUSH1 0x40 DUP3 ADD MSTORE PUSH1 0x77 PUSH1 0xF8 SHL PUSH1 0x60 DUP3 ADD MSTORE PUSH1 0x80 ADD SWAP1 JUMP JUMPDEST PUSH1 0x20 DUP1 DUP3 MSTORE PUSH1 0x3E SWAP1 DUP3 ADD MSTORE PUSH32 0x546F74616C20486F6C64696E672069732063757272656E746C79206C696D6974 PUSH1 0x40 DUP3 ADD MSTORE PUSH32 0x65642C20796F752063616E206E6F74206275792074686174206D7563682E0000 PUSH1 0x60 DUP3 ADD MSTORE PUSH1 0x80 ADD SWAP1 JUMP JUMPDEST PUSH1 0x20 DUP1 DUP3 MSTORE PUSH1 0x2D SWAP1 DUP3 ADD MSTORE PUSH1 0x0 DUP1 MLOAD PUSH1 0x20 PUSH2 0x343F DUP4 CODECOPY DUP2 MLOAD SWAP2 MSTORE PUSH1 0x40 DUP3 ADD MSTORE PUSH13 0x35303020616464726573736573 PUSH1 0x98 SHL PUSH1 0x60 DUP3 ADD MSTORE PUSH1 0x80 ADD SWAP1 JUMP JUMPDEST PUSH1 0x20 DUP1 DUP3 MSTORE PUSH1 0x6 SWAP1 DUP3 ADD MSTORE PUSH6 0x10A7ABA722A9 PUSH1 0xD1 SHL PUSH1 0x40 DUP3 ADD MSTORE PUSH1 0x60 ADD SWAP1 JUMP JUMPDEST PUSH1 0x20 DUP1 DUP3 MSTORE PUSH1 0x1C SWAP1 DUP3 ADD MSTORE PUSH28 0x466565732063616E6E6F74206265206D6F7265207468616E20333325 PUSH1 0x20 SHL PUSH1 0x40 DUP3 ADD MSTORE PUSH1 0x60 ADD SWAP1 JUMP JUMPDEST PUSH1 0x20 DUP1 DUP3 MSTORE PUSH1 0xB SWAP1 DUP3 ADD MSTORE PUSH11 0x85055551213D492569151 PUSH1 0xAA SHL PUSH1 0x40 DUP3 ADD MSTORE PUSH1 0x60 ADD SWAP1 JUMP JUMPDEST PUSH1 0x20 DUP1 DUP3 MSTORE PUSH1 0x2D SWAP1 DUP3 ADD MSTORE PUSH1 0x0 DUP1 MLOAD PUSH1 0x20 PUSH2 0x343F DUP4 CODECOPY DUP2 MLOAD SWAP2 MSTORE PUSH1 0x40 DUP3 ADD MSTORE PUSH13 0x38303020616464726573736573 PUSH1 0x98 SHL PUSH1 0x60 DUP3 ADD MSTORE PUSH1 0x80 ADD SWAP1 JUMP JUMPDEST PUSH1 0x20 DUP1 DUP3 MSTORE PUSH1 0xB SWAP1 DUP3 ADD MSTORE PUSH11 0x109B1858DADB1A5CDD1959 PUSH1 0xAA SHL PUSH1 0x40 DUP3 ADD MSTORE PUSH1 0x60 ADD SWAP1 JUMP JUMPDEST SWAP1 DUP2 MSTORE PUSH1 0x20 ADD SWAP1 JUMP JUMPDEST PUSH1 0x0 DUP7 DUP3 MSTORE DUP6 PUSH1 0x20 DUP4 ADD MSTORE PUSH1 0xA0 PUSH1 0x40 DUP4 ADD MSTORE PUSH2 0x33ED PUSH1 0xA0 DUP4 ADD DUP7 PUSH2 0x2F57 JUMP JUMPDEST PUSH1 0x1 PUSH1 0x1 PUSH1 0xA0 SHL SUB SWAP5 SWAP1 SWAP5 AND PUSH1 0x60 DUP4 ADD MSTORE POP PUSH1 0x80 ADD MSTORE SWAP4 SWAP3 POP POP POP JUMP JUMPDEST SWAP2 DUP3 MSTORE PUSH1 0x20 DUP3 ADD MSTORE PUSH1 0x40 ADD SWAP1 JUMP JUMPDEST PUSH1 0xFF SWAP2 SWAP1 SWAP2 AND DUP2 MSTORE PUSH1 0x20 ADD SWAP1 JUMP JUMPDEST PUSH1 0x1 PUSH1 0x1 PUSH1 0xA0 SHL SUB DUP2 AND DUP2 EQ PUSH2 0x343B JUMPI PUSH1 0x0 DUP1 REVERT JUMPDEST POP JUMP INVALID SELFBALANCE COINBASE MSTORE8 KECCAK256 GASLIMIT PUSH19 0x726F723A206D61782061697264726F70206C69 PUSH14 0x697420697320DDF252AD1BE2C89B PUSH10 0xC2B068FC378DAA952BA7 CALL PUSH4 0xC4A11628 CREATE2 GAS 0x4D CREATE2 0x23 0xB3 0xEF LOG2 PUSH5 0x6970667358 0x22 SLT KECCAK256 PUSH24 0x15EAE6C10F9DBCDC737993DADC20841D768321BAF1A3319E PUSH30 0xDA200F40B92464736F6C6343000706003360806040526003805460016001 PUSH1 0xA0 SHL SUB NOT AND PUSH20 0xBB4CDB9CBD36B01BD1CBAEBF2DE08D9173BC095C OR SWAP1 SSTORE PUSH15 0xC097CE7BC90715B34B9F1000000000 PUSH1 0xD SSTORE PUSH2 0xA8C PUSH1 0xE SSTORE PUSH6 0x9184E72A000 PUSH1 0xF SSTORE CALLVALUE DUP1 ISZERO PUSH2 0x59 JUMPI PUSH1 0x0 DUP1 REVERT JUMPDEST POP PUSH1 0x40 MLOAD PUSH2 0x1119 CODESIZE SUB DUP1 PUSH2 0x1119 DUP4 CODECOPY DUP2 ADD PUSH1 0x40 DUP2 SWAP1 MSTORE PUSH2 0x78 SWAP2 PUSH2 0xEE JUMP JUMPDEST PUSH1 0x4 DUP1 SLOAD PUSH1 0x1 PUSH1 0x1 PUSH1 0xA0 SHL SUB NOT SWAP1 DUP2 AND PUSH20 0x10ED43C718714EB63D5AA57B78B54704E256024E OR SWAP1 SWAP2 SSTORE PUSH1 0x0 DUP1 SLOAD DUP3 AND CALLER OR SWAP1 SSTORE PUSH1 0x1 DUP1 SLOAD PUSH1 0x1 PUSH1 0x1 PUSH1 0xA0 SHL SUB SWAP5 DUP6 AND SWAP1 DUP4 AND OR SWAP1 SSTORE PUSH1 0x2 DUP1 SLOAD SWAP3 SWAP1 SWAP4 AND SWAP2 AND OR SWAP1 SSTORE PUSH2 0x120 JUMP JUMPDEST DUP1 MLOAD PUSH1 0x1 PUSH1 0x1 PUSH1 0xA0 SHL SUB DUP2 AND DUP2 EQ PUSH2 0xE9 JUMPI PUSH1 0x0 DUP1 REVERT JUMPDEST SWAP2 SWAP1 POP JUMP JUMPDEST PUSH1 0x0 DUP1 PUSH1 0x40 DUP4 DUP6 SUB SLT ISZERO PUSH2 0x100 JUMPI DUP2 DUP3 REVERT JUMPDEST PUSH2 0x109 DUP4 PUSH2 0xD2 JUMP JUMPDEST SWAP2 POP PUSH2 0x117 PUSH1 0x20 DUP5 ADD PUSH2 0xD2 JUMP JUMPDEST SWAP1 POP SWAP3 POP SWAP3 SWAP1 POP JUMP JUMPDEST PUSH2 0xFEA DUP1 PUSH2 0x12F PUSH1 0x0 CODECOPY PUSH1 0x0 RETURN INVALID PUSH1 0x80 PUSH1 0x40 MSTORE PUSH1 0x4 CALLDATASIZE LT PUSH2 0xB8 JUMPI PUSH1 0x0 CALLDATALOAD PUSH1 0xE0 SHR DUP1 PUSH4 0x11CE023D EQ PUSH2 0xBD JUMPI DUP1 PUSH4 0x14B6CA96 EQ PUSH2 0xE8 JUMPI DUP1 PUSH4 0x152111F7 EQ PUSH2 0x10A JUMPI DUP1 PUSH4 0x28FD3198 EQ PUSH2 0x112 JUMPI DUP1 PUSH4 0x2D48E896 EQ PUSH2 0x132 JUMPI DUP1 PUSH4 0x3A98EF39 EQ PUSH2 0x152 JUMPI DUP1 PUSH4 0x4FAB0AE8 EQ PUSH2 0x167 JUMPI DUP1 PUSH4 0x997664D7 EQ PUSH2 0x17C JUMPI DUP1 PUSH4 0xCE7C2AC2 EQ PUSH2 0x191 JUMPI DUP1 PUSH4 0xDE353ECB EQ PUSH2 0x1C0 JUMPI DUP1 PUSH4 0xE2D2E219 EQ PUSH2 0x1C8 JUMPI DUP1 PUSH4 0xEFCA2EED EQ PUSH2 0x1DD JUMPI DUP1 PUSH4 0xF0FC6BCA EQ PUSH2 0x1F2 JUMPI DUP1 PUSH4 0xFFB2C479 EQ PUSH2 0x207 JUMPI DUP1 PUSH4 0xFFD49C84 EQ PUSH2 0x227 JUMPI JUMPDEST PUSH1 0x0 DUP1 REVERT JUMPDEST CALLVALUE DUP1 ISZERO PUSH2 0xC9 JUMPI PUSH1 0x0 DUP1 REVERT JUMPDEST POP PUSH2 0xD2 PUSH2 0x23C JUMP JUMPDEST PUSH1 0x40 MLOAD PUSH2 0xDF SWAP2 SWAP1 PUSH2 0xF95 JUMP JUMPDEST PUSH1 0x40 MLOAD DUP1 SWAP2 SUB SWAP1 RETURN JUMPDEST CALLVALUE DUP1 ISZERO PUSH2 0xF4 JUMPI PUSH1 0x0 DUP1 REVERT JUMPDEST POP PUSH2 0x108 PUSH2 0x103 CALLDATASIZE PUSH1 0x4 PUSH2 0xD9C JUMP JUMPDEST PUSH2 0x242 JUMP JUMPDEST STOP JUMPDEST PUSH2 0x108 PUSH2 0x367 JUMP JUMPDEST CALLVALUE DUP1 ISZERO PUSH2 0x11E JUMPI PUSH1 0x0 DUP1 REVERT JUMPDEST POP PUSH2 0xD2 PUSH2 0x12D CALLDATASIZE PUSH1 0x4 PUSH2 0xD82 JUMP JUMPDEST PUSH2 0x5B1 JUMP JUMPDEST CALLVALUE DUP1 ISZERO PUSH2 0x13E JUMPI PUSH1 0x0 DUP1 REVERT JUMPDEST POP PUSH2 0x108 PUSH2 0x14D CALLDATASIZE PUSH1 0x4 PUSH2 0xE15 JUMP JUMPDEST PUSH2 0x63D JUMP JUMPDEST CALLVALUE DUP1 ISZERO PUSH2 0x15E JUMPI PUSH1 0x0 DUP1 REVERT JUMPDEST POP PUSH2 0xD2 PUSH2 0x65F JUMP JUMPDEST CALLVALUE DUP1 ISZERO PUSH2 0x173 JUMPI PUSH1 0x0 DUP1 REVERT JUMPDEST POP PUSH2 0xD2 PUSH2 0x665 JUMP JUMPDEST CALLVALUE DUP1 ISZERO PUSH2 0x188 JUMPI PUSH1 0x0 DUP1 REVERT JUMPDEST POP PUSH2 0xD2 PUSH2 0x66B JUMP JUMPDEST CALLVALUE DUP1 ISZERO PUSH2 0x19D JUMPI PUSH1 0x0 DUP1 REVERT JUMPDEST POP PUSH2 0x1B1 PUSH2 0x1AC CALLDATASIZE PUSH1 0x4 PUSH2 0xD82 JUMP JUMPDEST PUSH2 0x671 JUMP JUMPDEST PUSH1 0x40 MLOAD PUSH2 0xDF SWAP4 SWAP3 SWAP2 SWAP1 PUSH2 0xF9E JUMP JUMPDEST PUSH2 0x108 PUSH2 0x692 JUMP JUMPDEST CALLVALUE DUP1 ISZERO PUSH2 0x1D4 JUMPI PUSH1 0x0 DUP1 REVERT JUMPDEST POP PUSH2 0xD2 PUSH2 0x845 JUMP JUMPDEST CALLVALUE DUP1 ISZERO PUSH2 0x1E9 JUMPI PUSH1 0x0 DUP1 REVERT JUMPDEST POP PUSH2 0xD2 PUSH2 0x84B JUMP JUMPDEST CALLVALUE DUP1 ISZERO PUSH2 0x1FE JUMPI PUSH1 0x0 DUP1 REVERT JUMPDEST POP PUSH2 0x108 PUSH2 0x851 JUMP JUMPDEST CALLVALUE DUP1 ISZERO PUSH2 0x213 JUMPI PUSH1 0x0 DUP1 REVERT JUMPDEST POP PUSH2 0x108 PUSH2 0x222 CALLDATASIZE PUSH1 0x4 PUSH2 0xDE5 JUMP JUMPDEST PUSH2 0x85C JUMP JUMPDEST CALLVALUE DUP1 ISZERO PUSH2 0x233 JUMPI PUSH1 0x0 DUP1 REVERT JUMPDEST POP PUSH2 0xD2 PUSH2 0x93E JUMP JUMPDEST PUSH1 0xD SLOAD DUP2 JUMP JUMPDEST PUSH1 0x0 SLOAD PUSH1 0x1 PUSH1 0x1 PUSH1 0xA0 SHL SUB AND CALLER EQ PUSH2 0x259 JUMPI PUSH1 0x0 DUP1 REVERT JUMPDEST PUSH1 0x1 PUSH1 0x1 PUSH1 0xA0 SHL SUB DUP3 AND PUSH1 0x0 SWAP1 DUP2 MSTORE PUSH1 0x8 PUSH1 0x20 MSTORE PUSH1 0x40 SWAP1 KECCAK256 SLOAD ISZERO PUSH2 0x280 JUMPI PUSH2 0x280 DUP3 PUSH2 0x944 JUMP JUMPDEST PUSH1 0x0 DUP2 GT DUP1 ISZERO PUSH2 0x2A6 JUMPI POP PUSH1 0x1 PUSH1 0x1 PUSH1 0xA0 SHL SUB DUP3 AND PUSH1 0x0 SWAP1 DUP2 MSTORE PUSH1 0x8 PUSH1 0x20 MSTORE PUSH1 0x40 SWAP1 KECCAK256 SLOAD ISZERO JUMPDEST ISZERO PUSH2 0x2B9 JUMPI PUSH2 0x2B4 DUP3 PUSH2 0xA6F JUMP JUMPDEST PUSH2 0x2EC JUMP JUMPDEST DUP1 ISZERO DUP1 ISZERO PUSH2 0x2DE JUMPI POP PUSH1 0x1 PUSH1 0x1 PUSH1 0xA0 SHL SUB DUP3 AND PUSH1 0x0 SWAP1 DUP2 MSTORE PUSH1 0x8 PUSH1 0x20 MSTORE PUSH1 0x40 SWAP1 KECCAK256 SLOAD ISZERO ISZERO JUMPDEST ISZERO PUSH2 0x2EC JUMPI PUSH2 0x2EC DUP3 PUSH2 0xAD0 JUMP JUMPDEST PUSH1 0x1 PUSH1 0x1 PUSH1 0xA0 SHL SUB DUP3 AND PUSH1 0x0 SWAP1 DUP2 MSTORE PUSH1 0x8 PUSH1 0x20 MSTORE PUSH1 0x40 SWAP1 KECCAK256 SLOAD PUSH1 0x9 SLOAD PUSH2 0x31D SWAP2 DUP4 SWAP2 PUSH2 0x317 SWAP2 PUSH2 0xBBD JUMP JUMPDEST SWAP1 PUSH2 0xC08 JUMP JUMPDEST PUSH1 0x9 SSTORE PUSH1 0x1 PUSH1 0x1 PUSH1 0xA0 SHL SUB DUP3 AND PUSH1 0x0 SWAP1 DUP2 MSTORE PUSH1 0x8 PUSH1 0x20 MSTORE PUSH1 0x40 SWAP1 KECCAK256 DUP2 SWAP1 SSTORE PUSH2 0x344 DUP2 PUSH2 0xC36 JUMP JUMPDEST PUSH1 0x1 PUSH1 0x1 PUSH1 0xA0 SHL SUB SWAP1 SWAP3 AND PUSH1 0x0 SWAP1 DUP2 MSTORE PUSH1 0x8 PUSH1 0x20 MSTORE PUSH1 0x40 SWAP1 KECCAK256 PUSH1 0x1 ADD SWAP2 SWAP1 SWAP2 SSTORE POP JUMP JUMPDEST PUSH1 0x0 SLOAD PUSH1 0x1 PUSH1 0x1 PUSH1 0xA0 SHL SUB AND CALLER EQ PUSH2 0x37E JUMPI PUSH1 0x0 DUP1 REVERT JUMPDEST PUSH1 0x1 SLOAD PUSH1 0x40 MLOAD PUSH4 0x70A08231 PUSH1 0xE0 SHL DUP2 MSTORE PUSH1 0x0 SWAP2 PUSH1 0x1 PUSH1 0x1 PUSH1 0xA0 SHL SUB AND SWAP1 PUSH4 0x70A08231 SWAP1 PUSH2 0x3AF SWAP1 ADDRESS SWAP1 PUSH1 0x4 ADD PUSH2 0xE36 JUMP JUMPDEST PUSH1 0x20 PUSH1 0x40 MLOAD DUP1 DUP4 SUB DUP2 DUP7 DUP1 EXTCODESIZE ISZERO DUP1 ISZERO PUSH2 0x3C7 JUMPI PUSH1 0x0 DUP1 REVERT JUMPDEST POP GAS STATICCALL ISZERO DUP1 ISZERO PUSH2 0x3DB JUMPI RETURNDATASIZE PUSH1 0x0 DUP1 RETURNDATACOPY RETURNDATASIZE PUSH1 0x0 REVERT JUMPDEST POP POP POP POP PUSH1 0x40 MLOAD RETURNDATASIZE PUSH1 0x1F NOT PUSH1 0x1F DUP3 ADD AND DUP3 ADD DUP1 PUSH1 0x40 MSTORE POP DUP2 ADD SWAP1 PUSH2 0x3FF SWAP2 SWAP1 PUSH2 0xDFD JUMP JUMPDEST PUSH1 0x40 DUP1 MLOAD PUSH1 0x2 DUP1 DUP3 MSTORE PUSH1 0x60 DUP3 ADD DUP4 MSTORE SWAP3 SWAP4 POP PUSH1 0x0 SWAP3 SWAP1 SWAP2 PUSH1 0x20 DUP4 ADD SWAP1 DUP1 CALLDATASIZE DUP4 CALLDATACOPY POP POP PUSH1 0x3 SLOAD DUP3 MLOAD SWAP3 SWAP4 POP PUSH1 0x1 PUSH1 0x1 PUSH1 0xA0 SHL SUB AND SWAP2 DUP4 SWAP2 POP PUSH1 0x0 SWAP1 PUSH2 0x43F JUMPI INVALID JUMPDEST PUSH1 0x1 PUSH1 0x1 PUSH1 0xA0 SHL SUB SWAP3 DUP4 AND PUSH1 0x20 SWAP2 DUP3 MUL SWAP3 SWAP1 SWAP3 ADD ADD MSTORE PUSH1 0x1 DUP1 SLOAD DUP4 MLOAD SWAP3 AND SWAP2 DUP4 SWAP2 SWAP1 DUP2 LT PUSH2 0x469 JUMPI INVALID JUMPDEST PUSH1 0x1 PUSH1 0x1 PUSH1 0xA0 SHL SUB SWAP3 DUP4 AND PUSH1 0x20 SWAP2 DUP3 MUL SWAP3 SWAP1 SWAP3 ADD ADD MSTORE PUSH1 0x4 DUP1 SLOAD PUSH1 0x40 MLOAD PUSH4 0xB6F9DE95 PUSH1 0xE0 SHL DUP2 MSTORE SWAP3 AND SWAP2 PUSH4 0xB6F9DE95 SWAP2 CALLVALUE SWAP2 PUSH2 0x4AE SWAP2 PUSH1 0x0 SWAP2 DUP8 SWAP2 ADDRESS SWAP2 TIMESTAMP SWAP2 ADD PUSH2 0xE63 JUMP JUMPDEST PUSH1 0x0 PUSH1 0x40 MLOAD DUP1 DUP4 SUB DUP2 DUP6 DUP9 DUP1 EXTCODESIZE ISZERO DUP1 ISZERO PUSH2 0x4C7 JUMPI PUSH1 0x0 DUP1 REVERT JUMPDEST POP GAS CALL ISZERO DUP1 ISZERO PUSH2 0x4DB JUMPI RETURNDATASIZE PUSH1 0x0 DUP1 RETURNDATACOPY RETURNDATASIZE PUSH1 0x0 REVERT JUMPDEST POP POP PUSH1 0x1 SLOAD PUSH1 0x40 MLOAD PUSH4 0x70A08231 PUSH1 0xE0 SHL DUP2 MSTORE PUSH1 0x0 SWAP5 POP PUSH2 0x56F SWAP4 POP DUP7 SWAP3 POP PUSH1 0x1 PUSH1 0x1 PUSH1 0xA0 SHL SUB SWAP1 SWAP2 AND SWAP1 PUSH4 0x70A08231 SWAP1 PUSH2 0x519 SWAP1 ADDRESS SWAP1 PUSH1 0x4 ADD PUSH2 0xE36 JUMP JUMPDEST PUSH1 0x20 PUSH1 0x40 MLOAD DUP1 DUP4 SUB DUP2 DUP7 DUP1 EXTCODESIZE ISZERO DUP1 ISZERO PUSH2 0x531 JUMPI PUSH1 0x0 DUP1 REVERT JUMPDEST POP GAS STATICCALL ISZERO DUP1 ISZERO PUSH2 0x545 JUMPI RETURNDATASIZE PUSH1 0x0 DUP1 RETURNDATACOPY RETURNDATASIZE PUSH1 0x0 REVERT JUMPDEST POP POP POP POP PUSH1 0x40 MLOAD RETURNDATASIZE PUSH1 0x1F NOT PUSH1 0x1F DUP3 ADD AND DUP3 ADD DUP1 PUSH1 0x40 MSTORE POP DUP2 ADD SWAP1 PUSH2 0x569 SWAP2 SWAP1 PUSH2 0xDFD JUMP JUMPDEST SWAP1 PUSH2 0xBBD JUMP JUMPDEST PUSH1 0xA SLOAD SWAP1 SWAP2 POP PUSH2 0x57F SWAP1 DUP3 PUSH2 0xC08 JUMP JUMPDEST PUSH1 0xA SSTORE PUSH1 0x9 SLOAD PUSH1 0xD SLOAD PUSH2 0x5A9 SWAP2 PUSH2 0x5A0 SWAP2 PUSH2 0x59A SWAP1 DUP6 PUSH2 0xC53 JUMP JUMPDEST SWAP1 PUSH2 0xC8D JUMP JUMPDEST PUSH1 0xC SLOAD SWAP1 PUSH2 0xC08 JUMP JUMPDEST PUSH1 0xC SSTORE POP POP POP JUMP JUMPDEST PUSH1 0x1 PUSH1 0x1 PUSH1 0xA0 SHL SUB DUP2 AND PUSH1 0x0 SWAP1 DUP2 MSTORE PUSH1 0x8 PUSH1 0x20 MSTORE PUSH1 0x40 DUP2 KECCAK256 SLOAD PUSH2 0x5D6 JUMPI POP PUSH1 0x0 PUSH2 0x638 JUMP JUMPDEST PUSH1 0x1 PUSH1 0x1 PUSH1 0xA0 SHL SUB DUP3 AND PUSH1 0x0 SWAP1 DUP2 MSTORE PUSH1 0x8 PUSH1 0x20 MSTORE PUSH1 0x40 DUP2 KECCAK256 SLOAD PUSH2 0x5F8 SWAP1 PUSH2 0xC36 JUMP JUMPDEST PUSH1 0x1 PUSH1 0x1 PUSH1 0xA0 SHL SUB DUP5 AND PUSH1 0x0 SWAP1 DUP2 MSTORE PUSH1 0x8 PUSH1 0x20 MSTORE PUSH1 0x40 SWAP1 KECCAK256 PUSH1 0x1 ADD SLOAD SWAP1 SWAP2 POP DUP1 DUP3 GT PUSH2 0x629 JUMPI PUSH1 0x0 SWAP3 POP POP POP PUSH2 0x638 JUMP JUMPDEST PUSH2 0x633 DUP3 DUP3 PUSH2 0xBBD JUMP JUMPDEST SWAP3 POP POP POP JUMPDEST SWAP2 SWAP1 POP JUMP JUMPDEST PUSH1 0x0 SLOAD PUSH1 0x1 PUSH1 0x1 PUSH1 0xA0 SHL SUB AND CALLER EQ PUSH2 0x654 JUMPI PUSH1 0x0 DUP1 REVERT JUMPDEST PUSH1 0xE SWAP2 SWAP1 SWAP2 SSTORE PUSH1 0xF SSTORE JUMP JUMPDEST PUSH1 0x9 SLOAD DUP2 JUMP JUMPDEST PUSH1 0xF SLOAD DUP2 JUMP JUMPDEST PUSH1 0xA SLOAD DUP2 JUMP JUMPDEST PUSH1 0x8 PUSH1 0x20 MSTORE PUSH1 0x0 SWAP1 DUP2 MSTORE PUSH1 0x40 SWAP1 KECCAK256 DUP1 SLOAD PUSH1 0x1 DUP3 ADD SLOAD PUSH1 0x2 SWAP1 SWAP3 ADD SLOAD SWAP1 SWAP2 SWAP1 DUP4 JUMP JUMPDEST PUSH1 0x0 SLOAD PUSH1 0x1 PUSH1 0x1 PUSH1 0xA0 SHL SUB AND CALLER EQ PUSH2 0x6A9 JUMPI PUSH1 0x0 DUP1 REVERT JUMPDEST PUSH1 0x1 SLOAD PUSH1 0x40 MLOAD PUSH4 0x70A08231 PUSH1 0xE0 SHL DUP2 MSTORE PUSH1 0x0 SWAP2 PUSH1 0x1 PUSH1 0x1 PUSH1 0xA0 SHL SUB AND SWAP1 PUSH4 0x70A08231 SWAP1 PUSH2 0x6DA SWAP1 ADDRESS SWAP1 PUSH1 0x4 ADD PUSH2 0xE36 JUMP JUMPDEST PUSH1 0x20 PUSH1 0x40 MLOAD DUP1 DUP4 SUB DUP2 DUP7 DUP1 EXTCODESIZE ISZERO DUP1 ISZERO PUSH2 0x6F2 JUMPI PUSH1 0x0 DUP1 REVERT JUMPDEST POP GAS STATICCALL ISZERO DUP1 ISZERO PUSH2 0x706 JUMPI RETURNDATASIZE PUSH1 0x0 DUP1 RETURNDATACOPY RETURNDATASIZE PUSH1 0x0 REVERT JUMPDEST POP POP POP POP PUSH1 0x40 MLOAD RETURNDATASIZE PUSH1 0x1F NOT PUSH1 0x1F DUP3 ADD AND DUP3 ADD DUP1 PUSH1 0x40 MSTORE POP DUP2 ADD SWAP1 PUSH2 0x72A SWAP2 SWAP1 PUSH2 0xDFD JUMP JUMPDEST PUSH1 0x40 DUP1 MLOAD PUSH1 0x2 DUP1 DUP3 MSTORE PUSH1 0x60 DUP3 ADD DUP4 MSTORE SWAP3 SWAP4 POP PUSH1 0x0 SWAP3 SWAP1 SWAP2 PUSH1 0x20 DUP4 ADD SWAP1 DUP1 CALLDATASIZE DUP4 CALLDATACOPY POP POP PUSH1 0x3 SLOAD DUP3 MLOAD SWAP3 SWAP4 POP PUSH1 0x1 PUSH1 0x1 PUSH1 0xA0 SHL SUB AND SWAP2 DUP4 SWAP2 POP PUSH1 0x0 SWAP1 PUSH2 0x76A JUMPI INVALID JUMPDEST PUSH1 0x1 PUSH1 0x1 PUSH1 0xA0 SHL SUB SWAP3 DUP4 AND PUSH1 0x20 SWAP2 DUP3 MUL SWAP3 SWAP1 SWAP3 ADD ADD MSTORE PUSH1 0x2 SLOAD DUP3 MLOAD SWAP2 AND SWAP1 DUP3 SWAP1 PUSH1 0x1 SWAP1 DUP2 LT PUSH2 0x795 JUMPI INVALID JUMPDEST PUSH1 0x1 PUSH1 0x1 PUSH1 0xA0 SHL SUB SWAP3 DUP4 AND PUSH1 0x20 SWAP2 DUP3 MUL SWAP3 SWAP1 SWAP3 ADD ADD MSTORE PUSH1 0x4 DUP1 SLOAD PUSH1 0x40 MLOAD PUSH4 0xB6F9DE95 PUSH1 0xE0 SHL DUP2 MSTORE SWAP3 AND SWAP2 PUSH4 0xB6F9DE95 SWAP2 CALLVALUE SWAP2 PUSH2 0x7DA SWAP2 PUSH1 0x0 SWAP2 DUP8 SWAP2 ADDRESS SWAP2 TIMESTAMP SWAP2 ADD PUSH2 0xE63 JUMP JUMPDEST PUSH1 0x0 PUSH1 0x40 MLOAD DUP1 DUP4 SUB DUP2 DUP6 DUP9 DUP1 EXTCODESIZE ISZERO DUP1 ISZERO PUSH2 0x7F3 JUMPI PUSH1 0x0 DUP1 REVERT JUMPDEST POP GAS CALL ISZERO DUP1 ISZERO PUSH2 0x807 JUMPI RETURNDATASIZE PUSH1 0x0 DUP1 RETURNDATACOPY RETURNDATASIZE PUSH1 0x0 REVERT JUMPDEST POP POP PUSH1 0x2 SLOAD PUSH1 0x40 MLOAD PUSH4 0x70A08231 PUSH1 0xE0 SHL DUP2 MSTORE PUSH1 0x0 SWAP5 POP PUSH2 0x56F SWAP4 POP DUP7 SWAP3 POP PUSH1 0x1 PUSH1 0x1 PUSH1 0xA0 SHL SUB SWAP1 SWAP2 AND SWAP1 PUSH4 0x70A08231 SWAP1 PUSH2 0x519 SWAP1 ADDRESS SWAP1 PUSH1 0x4 ADD PUSH2 0xE36 JUMP JUMPDEST PUSH1 0xC SLOAD DUP2 JUMP JUMPDEST PUSH1 0xB SLOAD DUP2 JUMP JUMPDEST PUSH2 0x85A CALLER PUSH2 0x944 JUMP JUMPDEST JUMP JUMPDEST PUSH1 0x0 SLOAD PUSH1 0x1 PUSH1 0x1 PUSH1 0xA0 SHL SUB AND CALLER EQ PUSH2 0x873 JUMPI PUSH1 0x0 DUP1 REVERT JUMPDEST PUSH1 0x5 SLOAD DUP1 PUSH2 0x881 JUMPI POP PUSH2 0x93B JUMP JUMPDEST PUSH1 0x0 DUP1 GAS SWAP1 POP PUSH1 0x0 JUMPDEST DUP5 DUP4 LT DUP1 ISZERO PUSH2 0x898 JUMPI POP DUP4 DUP2 LT JUMPDEST ISZERO PUSH2 0x936 JUMPI DUP4 PUSH1 0x10 SLOAD LT PUSH2 0x8AC JUMPI PUSH1 0x0 PUSH1 0x10 SSTORE JUMPDEST PUSH2 0x8D8 PUSH1 0x5 PUSH1 0x10 SLOAD DUP2 SLOAD DUP2 LT PUSH2 0x8BE JUMPI INVALID JUMPDEST PUSH1 0x0 SWAP2 DUP3 MSTORE PUSH1 0x20 SWAP1 SWAP2 KECCAK256 ADD SLOAD PUSH1 0x1 PUSH1 0x1 PUSH1 0xA0 SHL SUB AND PUSH2 0xCCC JUMP JUMPDEST ISZERO PUSH2 0x909 JUMPI PUSH2 0x909 PUSH1 0x5 PUSH1 0x10 SLOAD DUP2 SLOAD DUP2 LT PUSH2 0x8EF JUMPI INVALID JUMPDEST PUSH1 0x0 SWAP2 DUP3 MSTORE PUSH1 0x20 SWAP1 SWAP2 KECCAK256 ADD SLOAD PUSH1 0x1 PUSH1 0x1 PUSH1 0xA0 SHL SUB AND PUSH2 0x944 JUMP JUMPDEST PUSH2 0x91E PUSH2 0x917 GAS DUP5 SWAP1 PUSH2 0xBBD JUMP JUMPDEST DUP5 SWAP1 PUSH2 0xC08 JUMP JUMPDEST SWAP3 POP GAS PUSH1 0x10 DUP1 SLOAD PUSH1 0x1 SWAP1 DUP2 ADD SWAP1 SWAP2 SSTORE SWAP1 SWAP3 POP ADD PUSH2 0x88A JUMP JUMPDEST POP POP POP POP JUMPDEST POP JUMP JUMPDEST PUSH1 0xE SLOAD DUP2 JUMP JUMPDEST PUSH1 0x1 PUSH1 0x1 PUSH1 0xA0 SHL SUB DUP2 AND PUSH1 0x0 SWAP1 DUP2 MSTORE PUSH1 0x8 PUSH1 0x20 MSTORE PUSH1 0x40 SWAP1 KECCAK256 SLOAD PUSH2 0x966 JUMPI PUSH2 0x93B JUMP JUMPDEST PUSH1 0x0 PUSH2 0x971 DUP3 PUSH2 0x5B1 JUMP JUMPDEST SWAP1 POP DUP1 ISZERO PUSH2 0xA6B JUMPI PUSH1 0xB SLOAD PUSH2 0x986 SWAP1 DUP3 PUSH2 0xC08 JUMP JUMPDEST PUSH1 0xB SSTORE PUSH1 0x1 SLOAD PUSH1 0x40 MLOAD PUSH4 0xA9059CBB PUSH1 0xE0 SHL DUP2 MSTORE PUSH1 0x1 PUSH1 0x1 PUSH1 0xA0 SHL SUB SWAP1 SWAP2 AND SWAP1 PUSH4 0xA9059CBB SWAP1 PUSH2 0x9BB SWAP1 DUP6 SWAP1 DUP6 SWAP1 PUSH1 0x4 ADD PUSH2 0xE4A JUMP JUMPDEST PUSH1 0x20 PUSH1 0x40 MLOAD DUP1 DUP4 SUB DUP2 PUSH1 0x0 DUP8 DUP1 EXTCODESIZE ISZERO DUP1 ISZERO PUSH2 0x9D5 JUMPI PUSH1 0x0 DUP1 REVERT JUMPDEST POP GAS CALL ISZERO DUP1 ISZERO PUSH2 0x9E9 JUMPI RETURNDATASIZE PUSH1 0x0 DUP1 RETURNDATACOPY RETURNDATASIZE PUSH1 0x0 REVERT JUMPDEST POP POP POP POP PUSH1 0x40 MLOAD RETURNDATASIZE PUSH1 0x1F NOT PUSH1 0x1F DUP3 ADD AND DUP3 ADD DUP1 PUSH1 0x40 MSTORE POP DUP2 ADD SWAP1 PUSH2 0xA0D SWAP2 SWAP1 PUSH2 0xDC5 JUMP JUMPDEST POP PUSH1 0x1 PUSH1 0x1 PUSH1 0xA0 SHL SUB DUP3 AND PUSH1 0x0 SWAP1 DUP2 MSTORE PUSH1 0x7 PUSH1 0x20 SWAP1 DUP2 MSTORE PUSH1 0x40 DUP1 DUP4 KECCAK256 TIMESTAMP SWAP1 SSTORE PUSH1 0x8 SWAP1 SWAP2 MSTORE SWAP1 KECCAK256 PUSH1 0x2 ADD SLOAD PUSH2 0xA41 SWAP1 DUP3 PUSH2 0xC08 JUMP JUMPDEST PUSH1 0x1 PUSH1 0x1 PUSH1 0xA0 SHL SUB DUP4 AND PUSH1 0x0 SWAP1 DUP2 MSTORE PUSH1 0x8 PUSH1 0x20 MSTORE PUSH1 0x40 SWAP1 KECCAK256 PUSH1 0x2 DUP2 ADD SWAP2 SWAP1 SWAP2 SSTORE SLOAD PUSH2 0x344 SWAP1 PUSH2 0xC36 JUMP JUMPDEST POP POP JUMP JUMPDEST PUSH1 0x5 DUP1 SLOAD PUSH1 0x1 PUSH1 0x1 PUSH1 0xA0 SHL SUB SWAP1 SWAP3 AND PUSH1 0x0 DUP2 DUP2 MSTORE PUSH1 0x6 PUSH1 0x20 MSTORE PUSH1 0x40 DUP2 KECCAK256 DUP5 SWAP1 SSTORE PUSH1 0x1 DUP5 ADD DUP4 SSTORE SWAP2 SWAP1 SWAP2 MSTORE PUSH32 0x36B6384B5ECA791C62761152D0C79BB0604C104A5FB6F4EB0703F3154BB3DB0 SWAP1 SWAP2 ADD DUP1 SLOAD PUSH1 0x1 PUSH1 0x1 PUSH1 0xA0 SHL SUB NOT AND SWAP1 SWAP2 OR SWAP1 SSTORE JUMP JUMPDEST PUSH1 0x5 DUP1 SLOAD PUSH1 0x0 NOT DUP2 ADD SWAP1 DUP2 LT PUSH2 0xAE2 JUMPI INVALID JUMPDEST PUSH1 0x0 SWAP2 DUP3 MSTORE PUSH1 0x20 DUP1 DUP4 KECCAK256 SWAP1 SWAP2 ADD SLOAD PUSH1 0x1 PUSH1 0x1 PUSH1 0xA0 SHL SUB DUP5 DUP2 AND DUP5 MSTORE PUSH1 0x6 SWAP1 SWAP3 MSTORE PUSH1 0x40 SWAP1 SWAP3 KECCAK256 SLOAD PUSH1 0x5 DUP1 SLOAD SWAP3 SWAP1 SWAP4 AND SWAP3 SWAP2 DUP2 LT PUSH2 0xB1A JUMPI INVALID JUMPDEST PUSH1 0x0 SWAP2 DUP3 MSTORE PUSH1 0x20 DUP1 DUP4 KECCAK256 SWAP2 SWAP1 SWAP2 ADD DUP1 SLOAD PUSH1 0x1 PUSH1 0x1 PUSH1 0xA0 SHL SUB NOT AND PUSH1 0x1 PUSH1 0x1 PUSH1 0xA0 SHL SUB SWAP5 DUP6 AND OR SWAP1 SSTORE SWAP2 DUP4 AND DUP2 MSTORE PUSH1 0x6 SWAP2 DUP3 SWAP1 MSTORE PUSH1 0x40 DUP2 KECCAK256 SLOAD PUSH1 0x5 DUP1 SLOAD SWAP2 SWAP4 SWAP3 SWAP2 PUSH1 0x0 NOT DUP2 ADD SWAP1 DUP2 LT PUSH2 0xB68 JUMPI INVALID JUMPDEST PUSH1 0x0 SWAP2 DUP3 MSTORE PUSH1 0x20 DUP1 DUP4 KECCAK256 SWAP1 SWAP2 ADD SLOAD PUSH1 0x1 PUSH1 0x1 PUSH1 0xA0 SHL SUB AND DUP4 MSTORE DUP3 ADD SWAP3 SWAP1 SWAP3 MSTORE PUSH1 0x40 ADD SWAP1 KECCAK256 SSTORE PUSH1 0x5 DUP1 SLOAD DUP1 PUSH2 0xB98 JUMPI INVALID JUMPDEST PUSH1 0x0 DUP3 DUP2 MSTORE PUSH1 0x20 SWAP1 KECCAK256 DUP2 ADD PUSH1 0x0 NOT SWAP1 DUP2 ADD DUP1 SLOAD PUSH1 0x1 PUSH1 0x1 PUSH1 0xA0 SHL SUB NOT AND SWAP1 SSTORE ADD SWAP1 SSTORE POP JUMP JUMPDEST PUSH1 0x0 PUSH2 0xBFF DUP4 DUP4 PUSH1 0x40 MLOAD DUP1 PUSH1 0x40 ADD PUSH1 0x40 MSTORE DUP1 PUSH1 0x1E DUP2 MSTORE PUSH1 0x20 ADD PUSH32 0x536166654D6174683A207375627472616374696F6E206F766572666C6F770000 DUP2 MSTORE POP PUSH2 0xD08 JUMP JUMPDEST SWAP1 POP JUMPDEST SWAP3 SWAP2 POP POP JUMP JUMPDEST PUSH1 0x0 DUP3 DUP3 ADD DUP4 DUP2 LT ISZERO PUSH2 0xBFF JUMPI PUSH1 0x40 MLOAD PUSH3 0x461BCD PUSH1 0xE5 SHL DUP2 MSTORE PUSH1 0x4 ADD PUSH2 0xC2D SWAP1 PUSH2 0xF1F JUMP JUMPDEST PUSH1 0x40 MLOAD DUP1 SWAP2 SUB SWAP1 REVERT JUMPDEST PUSH1 0x0 PUSH2 0xC02 PUSH1 0xD SLOAD PUSH2 0x59A PUSH1 0xC SLOAD DUP6 PUSH2 0xC53 SWAP1 SWAP2 SWAP1 PUSH4 0xFFFFFFFF AND JUMP JUMPDEST PUSH1 0x0 DUP3 PUSH2 0xC62 JUMPI POP PUSH1 0x0 PUSH2 0xC02 JUMP JUMPDEST DUP3 DUP3 MUL DUP3 DUP5 DUP3 DUP2 PUSH2 0xC6F JUMPI INVALID JUMPDEST DIV EQ PUSH2 0xBFF JUMPI PUSH1 0x40 MLOAD PUSH3 0x461BCD PUSH1 0xE5 SHL DUP2 MSTORE PUSH1 0x4 ADD PUSH2 0xC2D SWAP1 PUSH2 0xF54 JUMP JUMPDEST PUSH1 0x0 PUSH2 0xBFF DUP4 DUP4 PUSH1 0x40 MLOAD DUP1 PUSH1 0x40 ADD PUSH1 0x40 MSTORE DUP1 PUSH1 0x1A DUP2 MSTORE PUSH1 0x20 ADD PUSH26 0x536166654D6174683A206469766973696F6E206279207A65726F PUSH1 0x30 SHL DUP2 MSTORE POP PUSH2 0xD34 JUMP JUMPDEST PUSH1 0xE SLOAD PUSH1 0x1 PUSH1 0x1 PUSH1 0xA0 SHL SUB DUP3 AND PUSH1 0x0 SWAP1 DUP2 MSTORE PUSH1 0x7 PUSH1 0x20 MSTORE PUSH1 0x40 DUP2 KECCAK256 SLOAD SWAP1 SWAP2 TIMESTAMP SWAP2 ADD LT DUP1 ISZERO PUSH2 0xC02 JUMPI POP PUSH1 0xF SLOAD PUSH2 0xD01 DUP4 PUSH2 0x5B1 JUMP JUMPDEST GT SWAP3 SWAP2 POP POP JUMP JUMPDEST PUSH1 0x0 DUP2 DUP5 DUP5 GT ISZERO PUSH2 0xD2C JUMPI PUSH1 0x40 MLOAD PUSH3 0x461BCD PUSH1 0xE5 SHL DUP2 MSTORE PUSH1 0x4 ADD PUSH2 0xC2D SWAP2 SWAP1 PUSH2 0xECC JUMP JUMPDEST POP POP POP SWAP1 SUB SWAP1 JUMP JUMPDEST PUSH1 0x0 DUP2 DUP4 PUSH2 0xD55 JUMPI PUSH1 0x40 MLOAD PUSH3 0x461BCD PUSH1 0xE5 SHL DUP2 MSTORE PUSH1 0x4 ADD PUSH2 0xC2D SWAP2 SWAP1 PUSH2 0xECC JUMP JUMPDEST POP PUSH1 0x0 DUP4 DUP6 DUP2 PUSH2 0xD61 JUMPI INVALID JUMPDEST DIV SWAP6 SWAP5 POP POP POP POP POP JUMP JUMPDEST DUP1 CALLDATALOAD PUSH1 0x1 PUSH1 0x1 PUSH1 0xA0 SHL SUB DUP2 AND DUP2 EQ PUSH2 0x638 JUMPI PUSH1 0x0 DUP1 REVERT JUMPDEST PUSH1 0x0 PUSH1 0x20 DUP3 DUP5 SUB SLT ISZERO PUSH2 0xD93 JUMPI DUP1 DUP2 REVERT JUMPDEST PUSH2 0xBFF DUP3 PUSH2 0xD6B JUMP JUMPDEST PUSH1 0x0 DUP1 PUSH1 0x40 DUP4 DUP6 SUB SLT ISZERO PUSH2 0xDAE JUMPI DUP1 DUP2 REVERT JUMPDEST PUSH2 0xDB7 DUP4 PUSH2 0xD6B JUMP JUMPDEST SWAP5 PUSH1 0x20 SWAP4 SWAP1 SWAP4 ADD CALLDATALOAD SWAP4 POP POP POP JUMP JUMPDEST PUSH1 0x0 PUSH1 0x20 DUP3 DUP5 SUB SLT ISZERO PUSH2 0xDD6 JUMPI DUP1 DUP2 REVERT JUMPDEST DUP2 MLOAD DUP1 ISZERO ISZERO DUP2 EQ PUSH2 0xBFF JUMPI DUP2 DUP3 REVERT JUMPDEST PUSH1 0x0 PUSH1 0x20 DUP3 DUP5 SUB SLT ISZERO PUSH2 0xDF6 JUMPI DUP1 DUP2 REVERT JUMPDEST POP CALLDATALOAD SWAP2 SWAP1 POP JUMP JUMPDEST PUSH1 0x0 PUSH1 0x20 DUP3 DUP5 SUB SLT ISZERO PUSH2 0xE0E JUMPI DUP1 DUP2 REVERT JUMPDEST POP MLOAD SWAP2 SWAP1 POP JUMP JUMPDEST PUSH1 0x0 DUP1 PUSH1 0x40 DUP4 DUP6 SUB SLT ISZERO PUSH2 0xE27 JUMPI DUP2 DUP3 REVERT JUMPDEST POP POP DUP1 CALLDATALOAD SWAP3 PUSH1 0x20 SWAP1 SWAP2 ADD CALLDATALOAD SWAP2 POP JUMP JUMPDEST PUSH1 0x1 PUSH1 0x1 PUSH1 0xA0 SHL SUB SWAP2 SWAP1 SWAP2 AND DUP2 MSTORE PUSH1 0x20 ADD SWAP1 JUMP JUMPDEST PUSH1 0x1 PUSH1 0x1 PUSH1 0xA0 SHL SUB SWAP3 SWAP1 SWAP3 AND DUP3 MSTORE PUSH1 0x20 DUP3 ADD MSTORE PUSH1 0x40 ADD SWAP1 JUMP JUMPDEST PUSH1 0x0 PUSH1 0x80 DUP3 ADD DUP7 DUP4 MSTORE PUSH1 0x20 PUSH1 0x80 DUP2 DUP6 ADD MSTORE DUP2 DUP8 MLOAD DUP1 DUP5 MSTORE PUSH1 0xA0 DUP7 ADD SWAP2 POP DUP3 DUP10 ADD SWAP4 POP DUP5 JUMPDEST DUP2 DUP2 LT ISZERO PUSH2 0xEAC JUMPI DUP5 MLOAD PUSH1 0x1 PUSH1 0x1 PUSH1 0xA0 SHL SUB AND DUP4 MSTORE SWAP4 DUP4 ADD SWAP4 SWAP2 DUP4 ADD SWAP2 PUSH1 0x1 ADD PUSH2 0xE87 JUMP JUMPDEST POP POP PUSH1 0x1 PUSH1 0x1 PUSH1 0xA0 SHL SUB SWAP7 SWAP1 SWAP7 AND PUSH1 0x40 DUP6 ADD MSTORE POP POP POP PUSH1 0x60 ADD MSTORE SWAP3 SWAP2 POP POP JUMP JUMPDEST PUSH1 0x0 PUSH1 0x20 DUP1 DUP4 MSTORE DUP4 MLOAD DUP1 DUP3 DUP6 ADD MSTORE DUP3 JUMPDEST DUP2 DUP2 LT ISZERO PUSH2 0xEF8 JUMPI DUP6 DUP2 ADD DUP4 ADD MLOAD DUP6 DUP3 ADD PUSH1 0x40 ADD MSTORE DUP3 ADD PUSH2 0xEDC JUMP JUMPDEST DUP2 DUP2 GT ISZERO PUSH2 0xF09 JUMPI DUP4 PUSH1 0x40 DUP4 DUP8 ADD ADD MSTORE JUMPDEST POP PUSH1 0x1F ADD PUSH1 0x1F NOT AND SWAP3 SWAP1 SWAP3 ADD PUSH1 0x40 ADD SWAP4 SWAP3 POP POP POP JUMP JUMPDEST PUSH1 0x20 DUP1 DUP3 MSTORE PUSH1 0x1B SWAP1 DUP3 ADD MSTORE PUSH27 0x536166654D6174683A206164646974696F6E206F766572666C6F77 PUSH1 0x28 SHL PUSH1 0x40 DUP3 ADD MSTORE PUSH1 0x60 ADD SWAP1 JUMP JUMPDEST PUSH1 0x20 DUP1 DUP3 MSTORE PUSH1 0x21 SWAP1 DUP3 ADD MSTORE PUSH32 0x536166654D6174683A206D756C7469706C69636174696F6E206F766572666C6F PUSH1 0x40 DUP3 ADD MSTORE PUSH1 0x77 PUSH1 0xF8 SHL PUSH1 0x60 DUP3 ADD MSTORE PUSH1 0x80 ADD SWAP1 JUMP JUMPDEST SWAP1 DUP2 MSTORE PUSH1 0x20 ADD SWAP1 JUMP JUMPDEST SWAP3 DUP4 MSTORE PUSH1 0x20 DUP4 ADD SWAP2 SWAP1 SWAP2 MSTORE PUSH1 0x40 DUP3 ADD MSTORE PUSH1 0x60 ADD SWAP1 JUMP INVALID LOG2 PUSH5 0x6970667358 0x22 SLT KECCAK256 PUSH10 0x144DA55A2806471A5D8A PUSH13 0x48DAEC117C61FB2557F40084DE 0xC5 PUSH12 0x14DC1B118764736F6C634300 SMOD MOD STOP CALLER "
		},
		"gasEstimates": {
			"creation": {
				"codeDepositCost": "2698400",
				"executionCost": "infinite",
				"totalCost": "infinite"
			},
			"external": {
				"_maxTxAmount()": "1732",
				"_maxWalletToken()": "1710",
				"allowance(address,address)": "infinite",
				"approve(address,uint256)": "22499",
				"approveMax(address)": "infinite",
				"authorize(address)": "23091",
				"autoLiquidityReceiver()": "2170",
				"balanceOf(address)": "1902",
				"blacklistMode()": "1810",
				"buyCooldownEnabled()": "1612",
				"clearStuckBalance(uint256)": "infinite",
				"clearStuckBalance_sender(uint256)": "infinite",
				"cooldownEnabled(bool,uint8)": "infinite",
				"cooldownTimerInterval()": "1717",
				"decimals()": "1442",
				"distributor()": "2148",
				"enable_blacklist(bool)": "infinite",
				"feeDenominator()": "1160",
				"getCirculatingSupply()": "infinite",
				"getLiquidityBacking(uint256)": "infinite",
				"getOwner()": "1818",
				"isAuthorized(address)": "2618",
				"isBlacklisted(address)": "2556",
				"isOverLiquified(uint256,uint256)": "infinite",
				"isOwner(address)": "1599",
				"liquidityTax()": "2084",
				"manage_blacklist(address[],bool)": "infinite",
				"marketingTax()": "1226",
				"marketingTaxWallet()": "1048",
				"multiTransfer(address,address[],uint256[])": "infinite",
				"multiTransfer_fixed(address,address[],uint256)": "infinite",
				"name()": "infinite",
				"pair()": "1972",
				"reflectionTax()": "1512",
				"rewardTax()": "1644",
				"router()": "2346",
				"sellMultiplier()": "2392",
				"setDistributionCriteria(uint256,uint256)": "infinite",
				"setDistributorSettings(uint256)": "22019",
				"setFeeReceivers(address,address)": "infinite",
				"setFees((uint256,uint256,uint256,uint256),uint256)": "123343",
				"setIsExcludedFromFees(address,bool)": "23222",
				"setIsExcludedFromMaxTx(address,bool)": "23376",
				"setIsExcludedFromMaxWallet(address,bool)": "23200",
				"setIsExcludedFromReflections(address,bool)": "22540",
				"setIsExcludedFromRewards(address,bool)": "infinite",
				"setIsExcludedFromTimeLock(address,bool)": "22694",
				"setIsExcludedFromTx(address,bool)": "22980",
				"setMaxTx(uint256)": "22172",
				"setMaxTxPercent_base1000(uint256)": "22981",
				"setMaxWalletPercent_base1000(uint256)": "21991",
				"setSwapBackSettings(bool,uint256)": "43280",
				"setTargetLiquidity(uint256,uint256)": "41437",
				"set_sell_multiplier(uint256)": "22319",
				"swapEnabled()": "1634",
				"swapThreshold()": "1028",
				"symbol()": "infinite",
				"totalSupply()": "1182",
				"totalTax()": "2348",
				"tradingOpen()": "2443",
				"tradingStatus(bool)": "infinite",
				"transfer(address,uint256)": "infinite",
				"transferFrom(address,address,uint256)": "infinite",
				"transferOwnership(address)": "45310",
				"unauthorize(address)": "23315"
			},
			"internal": {
				"_basicTransfer(address,address,uint256)": "infinite",
				"_transferFrom(address,address,uint256)": "infinite",
				"checkMaxTx(address,uint256)": "infinite",
				"shouldSwapBack()": "4221",
				"shouldTakeFee(address)": "914",
				"swapBack()": "infinite",
				"takeFee(address,uint256,bool)": "infinite"
			}
		},
		"methodIdentifiers": {
			"_maxTxAmount()": "7d1db4a5",
			"_maxWalletToken()": "78109e54",
			"allowance(address,address)": "dd62ed3e",
			"approve(address,uint256)": "095ea7b3",
			"approveMax(address)": "571ac8b0",
			"authorize(address)": "b6a5d7de",
			"autoLiquidityReceiver()": "ca33e64c",
			"balanceOf(address)": "70a08231",
			"blacklistMode()": "896648c1",
			"buyCooldownEnabled()": "617fe0ed",
			"clearStuckBalance(uint256)": "1da1db5e",
			"clearStuckBalance_sender(uint256)": "44a33fd2",
			"cooldownEnabled(bool,uint8)": "2d594567",
			"cooldownTimerInterval()": "722b62ad",
			"decimals()": "313ce567",
			"distributor()": "bfe10928",
			"enable_blacklist(bool)": "5e562f3b",
			"feeDenominator()": "180b0d7e",
			"getCirculatingSupply()": "2b112e49",
			"getLiquidityBacking(uint256)": "d51ed1c8",
			"getOwner()": "893d20e8",
			"isAuthorized(address)": "fe9fbb80",
			"isBlacklisted(address)": "fe575a87",
			"isOverLiquified(uint256,uint256)": "1161ae39",
			"isOwner(address)": "2f54bf6e",
			"liquidityTax()": "be617fa0",
			"manage_blacklist(address[],bool)": "8e2eee84",
			"marketingTax()": "1d2cb02d",
			"marketingTaxWallet()": "00851fb3",
			"multiTransfer(address,address[],uint256[])": "1ca0a28d",
			"multiTransfer_fixed(address,address[],uint256)": "335f6a43",
			"name()": "06fdde03",
			"pair()": "a8aa1b31",
			"reflectionTax()": "3ae2f354",
			"rewardTax()": "6e5c59ae",
			"router()": "f887ea40",
			"sellMultiplier()": "fed0d2a1",
			"setDistributionCriteria(uint256,uint256)": "2d48e896",
			"setDistributorSettings(uint256)": "9d1944f5",
			"setFeeReceivers(address,address)": "a4b45c00",
			"setFees((uint256,uint256,uint256,uint256),uint256)": "a712fa45",
			"setIsExcludedFromFees(address,bool)": "adf18693",
			"setIsExcludedFromMaxTx(address,bool)": "d2138a6d",
			"setIsExcludedFromMaxWallet(address,bool)": "aaa867a0",
			"setIsExcludedFromReflections(address,bool)": "24f8d179",
			"setIsExcludedFromRewards(address,bool)": "363f1e92",
			"setIsExcludedFromTimeLock(address,bool)": "33f2a6e9",
			"setIsExcludedFromTx(address,bool)": "875385f3",
			"setMaxTx(uint256)": "bc337182",
			"setMaxTxPercent_base1000(uint256)": "bd9ab537",
			"setMaxWalletPercent_base1000(uint256)": "09302dc6",
			"setSwapBackSettings(bool,uint256)": "df20fd49",
			"setTargetLiquidity(uint256,uint256)": "201e7991",
			"set_sell_multiplier(uint256)": "ec72d65f",
			"swapEnabled()": "6ddd1713",
			"swapThreshold()": "0445b667",
			"symbol()": "95d89b41",
			"totalSupply()": "18160ddd",
			"totalTax()": "fe85b42b",
			"tradingOpen()": "ffb54a99",
			"tradingStatus(bool)": "0d295980",
			"transfer(address,uint256)": "a9059cbb",
			"transferFrom(address,address,uint256)": "23b872dd",
			"transferOwnership(address)": "f2fde38b",
			"unauthorize(address)": "f0b37c04"
		}
	},
	"abi": [
		{
			"inputs": [
				{
					"internalType": "string",
					"name": "name_",
					"type": "string"
				},
				{
					"internalType": "string",
					"name": "symbol_",
					"type": "string"
				},
				{
					"internalType": "uint256",
					"name": "_supply",
					"type": "uint256"
				},
				{
					"components": [
						{
							"internalType": "uint256",
							"name": "liquidityTax",
							"type": "uint256"
						},
						{
							"internalType": "uint256",
							"name": "reflectionTax",
							"type": "uint256"
						},
						{
							"internalType": "uint256",
							"name": "marketingTax",
							"type": "uint256"
						},
						{
							"internalType": "uint256",
							"name": "rewardTax",
							"type": "uint256"
						}
					],
					"internalType": "struct RWRD.Fees",
					"name": "fees",
					"type": "tuple"
				},
				{
					"internalType": "address",
					"name": "rwrd_token",
					"type": "address"
				},
				{
					"internalType": "address",
					"name": "team_wallet",
					"type": "address"
				},
				{
					"internalType": "address",
					"name": "marketing_token",
					"type": "address"
				}
			],
			"stateMutability": "nonpayable",
			"type": "constructor"
		},
		{
			"anonymous": false,
			"inputs": [
				{
					"indexed": true,
					"internalType": "address",
					"name": "owner",
					"type": "address"
				},
				{
					"indexed": true,
					"internalType": "address",
					"name": "spender",
					"type": "address"
				},
				{
					"indexed": false,
					"internalType": "uint256",
					"name": "value",
					"type": "uint256"
				}
			],
			"name": "Approval",
			"type": "event"
		},
		{
			"anonymous": false,
			"inputs": [
				{
					"indexed": false,
					"internalType": "uint256",
					"name": "amountBNB",
					"type": "uint256"
				},
				{
					"indexed": false,
					"internalType": "uint256",
					"name": "amountBOG",
					"type": "uint256"
				}
			],
			"name": "AutoLiquify",
			"type": "event"
		},
		{
			"anonymous": false,
			"inputs": [
				{
					"indexed": false,
					"internalType": "address",
					"name": "owner",
					"type": "address"
				}
			],
			"name": "OwnershipTransferred",
			"type": "event"
		},
		{
			"anonymous": false,
			"inputs": [
				{
					"indexed": true,
					"internalType": "address",
					"name": "from",
					"type": "address"
				},
				{
					"indexed": true,
					"internalType": "address",
					"name": "to",
					"type": "address"
				},
				{
					"indexed": false,
					"internalType": "uint256",
					"name": "value",
					"type": "uint256"
				}
			],
			"name": "Transfer",
			"type": "event"
		},
		{
			"inputs": [],
			"name": "_maxTxAmount",
			"outputs": [
				{
					"internalType": "uint256",
					"name": "",
					"type": "uint256"
				}
			],
			"stateMutability": "view",
			"type": "function"
		},
		{
			"inputs": [],
			"name": "_maxWalletToken",
			"outputs": [
				{
					"internalType": "uint256",
					"name": "",
					"type": "uint256"
				}
			],
			"stateMutability": "view",
			"type": "function"
		},
		{
			"inputs": [
				{
					"internalType": "address",
					"name": "holder",
					"type": "address"
				},
				{
					"internalType": "address",
					"name": "spender",
					"type": "address"
				}
			],
			"name": "allowance",
			"outputs": [
				{
					"internalType": "uint256",
					"name": "",
					"type": "uint256"
				}
			],
			"stateMutability": "view",
			"type": "function"
		},
		{
			"inputs": [
				{
					"internalType": "address",
					"name": "spender",
					"type": "address"
				},
				{
					"internalType": "uint256",
					"name": "amount",
					"type": "uint256"
				}
			],
			"name": "approve",
			"outputs": [
				{
					"internalType": "bool",
					"name": "",
					"type": "bool"
				}
			],
			"stateMutability": "nonpayable",
			"type": "function"
		},
		{
			"inputs": [
				{
					"internalType": "address",
					"name": "spender",
					"type": "address"
				}
			],
			"name": "approveMax",
			"outputs": [
				{
					"internalType": "bool",
					"name": "",
					"type": "bool"
				}
			],
			"stateMutability": "nonpayable",
			"type": "function"
		},
		{
			"inputs": [
				{
					"internalType": "address",
					"name": "adr",
					"type": "address"
				}
			],
			"name": "authorize",
			"outputs": [],
			"stateMutability": "nonpayable",
			"type": "function"
		},
		{
			"inputs": [],
			"name": "autoLiquidityReceiver",
			"outputs": [
				{
					"internalType": "address",
					"name": "",
					"type": "address"
				}
			],
			"stateMutability": "view",
			"type": "function"
		},
		{
			"inputs": [
				{
					"internalType": "address",
					"name": "account",
					"type": "address"
				}
			],
			"name": "balanceOf",
			"outputs": [
				{
					"internalType": "uint256",
					"name": "",
					"type": "uint256"
				}
			],
			"stateMutability": "view",
			"type": "function"
		},
		{
			"inputs": [],
			"name": "blacklistMode",
			"outputs": [
				{
					"internalType": "bool",
					"name": "",
					"type": "bool"
				}
			],
			"stateMutability": "view",
			"type": "function"
		},
		{
			"inputs": [],
			"name": "buyCooldownEnabled",
			"outputs": [
				{
					"internalType": "bool",
					"name": "",
					"type": "bool"
				}
			],
			"stateMutability": "view",
			"type": "function"
		},
		{
			"inputs": [
				{
					"internalType": "uint256",
					"name": "amountPercentage",
					"type": "uint256"
				}
			],
			"name": "clearStuckBalance",
			"outputs": [],
			"stateMutability": "nonpayable",
			"type": "function"
		},
		{
			"inputs": [
				{
					"internalType": "uint256",
					"name": "amountPercentage",
					"type": "uint256"
				}
			],
			"name": "clearStuckBalance_sender",
			"outputs": [],
			"stateMutability": "nonpayable",
			"type": "function"
		},
		{
			"inputs": [
				{
					"internalType": "bool",
					"name": "_status",
					"type": "bool"
				},
				{
					"internalType": "uint8",
					"name": "_interval",
					"type": "uint8"
				}
			],
			"name": "cooldownEnabled",
			"outputs": [],
			"stateMutability": "nonpayable",
			"type": "function"
		},
		{
			"inputs": [],
			"name": "cooldownTimerInterval",
			"outputs": [
				{
					"internalType": "uint8",
					"name": "",
					"type": "uint8"
				}
			],
			"stateMutability": "view",
			"type": "function"
		},
		{
			"inputs": [],
			"name": "decimals",
			"outputs": [
				{
					"internalType": "uint8",
					"name": "",
					"type": "uint8"
				}
			],
			"stateMutability": "view",
			"type": "function"
		},
		{
			"inputs": [],
			"name": "distributor",
			"outputs": [
				{
					"internalType": "contract DividendDistributor",
					"name": "",
					"type": "address"
				}
			],
			"stateMutability": "view",
			"type": "function"
		},
		{
			"inputs": [
				{
					"internalType": "bool",
					"name": "_status",
					"type": "bool"
				}
			],
			"name": "enable_blacklist",
			"outputs": [],
			"stateMutability": "nonpayable",
			"type": "function"
		},
		{
			"inputs": [],
			"name": "feeDenominator",
			"outputs": [
				{
					"internalType": "uint256",
					"name": "",
					"type": "uint256"
				}
			],
			"stateMutability": "view",
			"type": "function"
		},
		{
			"inputs": [],
			"name": "getCirculatingSupply",
			"outputs": [
				{
					"internalType": "uint256",
					"name": "",
					"type": "uint256"
				}
			],
			"stateMutability": "view",
			"type": "function"
		},
		{
			"inputs": [
				{
					"internalType": "uint256",
					"name": "accuracy",
					"type": "uint256"
				}
			],
			"name": "getLiquidityBacking",
			"outputs": [
				{
					"internalType": "uint256",
					"name": "",
					"type": "uint256"
				}
			],
			"stateMutability": "view",
			"type": "function"
		},
		{
			"inputs": [],
			"name": "getOwner",
			"outputs": [
				{
					"internalType": "address",
					"name": "",
					"type": "address"
				}
			],
			"stateMutability": "view",
			"type": "function"
		},
		{
			"inputs": [
				{
					"internalType": "address",
					"name": "adr",
					"type": "address"
				}
			],
			"name": "isAuthorized",
			"outputs": [
				{
					"internalType": "bool",
					"name": "",
					"type": "bool"
				}
			],
			"stateMutability": "view",
			"type": "function"
		},
		{
			"inputs": [
				{
					"internalType": "address",
					"name": "",
					"type": "address"
				}
			],
			"name": "isBlacklisted",
			"outputs": [
				{
					"internalType": "bool",
					"name": "",
					"type": "bool"
				}
			],
			"stateMutability": "view",
			"type": "function"
		},
		{
			"inputs": [
				{
					"internalType": "uint256",
					"name": "target",
					"type": "uint256"
				},
				{
					"internalType": "uint256",
					"name": "accuracy",
					"type": "uint256"
				}
			],
			"name": "isOverLiquified",
			"outputs": [
				{
					"internalType": "bool",
					"name": "",
					"type": "bool"
				}
			],
			"stateMutability": "view",
			"type": "function"
		},
		{
			"inputs": [
				{
					"internalType": "address",
					"name": "account",
					"type": "address"
				}
			],
			"name": "isOwner",
			"outputs": [
				{
					"internalType": "bool",
					"name": "",
					"type": "bool"
				}
			],
			"stateMutability": "view",
			"type": "function"
		},
		{
			"inputs": [],
			"name": "liquidityTax",
			"outputs": [
				{
					"internalType": "uint256",
					"name": "",
					"type": "uint256"
				}
			],
			"stateMutability": "view",
			"type": "function"
		},
		{
			"inputs": [
				{
					"internalType": "address[]",
					"name": "addresses",
					"type": "address[]"
				},
				{
					"internalType": "bool",
					"name": "status",
					"type": "bool"
				}
			],
			"name": "manage_blacklist",
			"outputs": [],
			"stateMutability": "nonpayable",
			"type": "function"
		},
		{
			"inputs": [],
			"name": "marketingTax",
			"outputs": [
				{
					"internalType": "uint256",
					"name": "",
					"type": "uint256"
				}
			],
			"stateMutability": "view",
			"type": "function"
		},
		{
			"inputs": [],
			"name": "marketingTaxWallet",
			"outputs": [
				{
					"internalType": "address",
					"name": "",
					"type": "address"
				}
			],
			"stateMutability": "view",
			"type": "function"
		},
		{
			"inputs": [
				{
					"internalType": "address",
					"name": "from",
					"type": "address"
				},
				{
					"internalType": "address[]",
					"name": "addresses",
					"type": "address[]"
				},
				{
					"internalType": "uint256[]",
					"name": "tokens",
					"type": "uint256[]"
				}
			],
			"name": "multiTransfer",
			"outputs": [],
			"stateMutability": "nonpayable",
			"type": "function"
		},
		{
			"inputs": [
				{
					"internalType": "address",
					"name": "from",
					"type": "address"
				},
				{
					"internalType": "address[]",
					"name": "addresses",
					"type": "address[]"
				},
				{
					"internalType": "uint256",
					"name": "tokens",
					"type": "uint256"
				}
			],
			"name": "multiTransfer_fixed",
			"outputs": [],
			"stateMutability": "nonpayable",
			"type": "function"
		},
		{
			"inputs": [],
			"name": "name",
			"outputs": [
				{
					"internalType": "string",
					"name": "",
					"type": "string"
				}
			],
			"stateMutability": "view",
			"type": "function"
		},
		{
			"inputs": [],
			"name": "pair",
			"outputs": [
				{
					"internalType": "address",
					"name": "",
					"type": "address"
				}
			],
			"stateMutability": "view",
			"type": "function"
		},
		{
			"inputs": [],
			"name": "reflectionTax",
			"outputs": [
				{
					"internalType": "uint256",
					"name": "",
					"type": "uint256"
				}
			],
			"stateMutability": "view",
			"type": "function"
		},
		{
			"inputs": [],
			"name": "rewardTax",
			"outputs": [
				{
					"internalType": "uint256",
					"name": "",
					"type": "uint256"
				}
			],
			"stateMutability": "view",
			"type": "function"
		},
		{
			"inputs": [],
			"name": "router",
			"outputs": [
				{
					"internalType": "contract IDEXRouter",
					"name": "",
					"type": "address"
				}
			],
			"stateMutability": "view",
			"type": "function"
		},
		{
			"inputs": [],
			"name": "sellMultiplier",
			"outputs": [
				{
					"internalType": "uint256",
					"name": "",
					"type": "uint256"
				}
			],
			"stateMutability": "view",
			"type": "function"
		},
		{
			"inputs": [
				{
					"internalType": "uint256",
					"name": "_minPeriod",
					"type": "uint256"
				},
				{
					"internalType": "uint256",
					"name": "_minDistribution",
					"type": "uint256"
				}
			],
			"name": "setDistributionCriteria",
			"outputs": [],
			"stateMutability": "nonpayable",
			"type": "function"
		},
		{
			"inputs": [
				{
					"internalType": "uint256",
					"name": "gas",
					"type": "uint256"
				}
			],
			"name": "setDistributorSettings",
			"outputs": [],
			"stateMutability": "nonpayable",
			"type": "function"
		},
		{
			"inputs": [
				{
					"internalType": "address",
					"name": "_autoLiquidityReceiver",
					"type": "address"
				},
				{
					"internalType": "address",
					"name": "_marketingFeeReceiver",
					"type": "address"
				}
			],
			"name": "setFeeReceivers",
			"outputs": [],
			"stateMutability": "nonpayable",
			"type": "function"
		},
		{
			"inputs": [
				{
					"components": [
						{
							"internalType": "uint256",
							"name": "liquidityTax",
							"type": "uint256"
						},
						{
							"internalType": "uint256",
							"name": "reflectionTax",
							"type": "uint256"
						},
						{
							"internalType": "uint256",
							"name": "marketingTax",
							"type": "uint256"
						},
						{
							"internalType": "uint256",
							"name": "rewardTax",
							"type": "uint256"
						}
					],
					"internalType": "struct RWRD.Fees",
					"name": "fees",
					"type": "tuple"
				},
				{
					"internalType": "uint256",
					"name": "_feeDenominator",
					"type": "uint256"
				}
			],
			"name": "setFees",
			"outputs": [],
			"stateMutability": "nonpayable",
			"type": "function"
		},
		{
			"inputs": [
				{
					"internalType": "address",
					"name": "holder",
					"type": "address"
				},
				{
					"internalType": "bool",
					"name": "exempt",
					"type": "bool"
				}
			],
			"name": "setIsExcludedFromFees",
			"outputs": [],
			"stateMutability": "nonpayable",
			"type": "function"
		},
		{
			"inputs": [
				{
					"internalType": "address",
					"name": "holder",
					"type": "address"
				},
				{
					"internalType": "bool",
					"name": "exempt",
					"type": "bool"
				}
			],
			"name": "setIsExcludedFromMaxTx",
			"outputs": [],
			"stateMutability": "nonpayable",
			"type": "function"
		},
		{
			"inputs": [
				{
					"internalType": "address",
					"name": "holder",
					"type": "address"
				},
				{
					"internalType": "bool",
					"name": "exempt",
					"type": "bool"
				}
			],
			"name": "setIsExcludedFromMaxWallet",
			"outputs": [],
			"stateMutability": "nonpayable",
			"type": "function"
		},
		{
			"inputs": [
				{
					"internalType": "address",
					"name": "holder",
					"type": "address"
				},
				{
					"internalType": "bool",
					"name": "exempt",
					"type": "bool"
				}
			],
			"name": "setIsExcludedFromReflections",
			"outputs": [],
			"stateMutability": "nonpayable",
			"type": "function"
		},
		{
			"inputs": [
				{
					"internalType": "address",
					"name": "holder",
					"type": "address"
				},
				{
					"internalType": "bool",
					"name": "exempt",
					"type": "bool"
				}
			],
			"name": "setIsExcludedFromRewards",
			"outputs": [],
			"stateMutability": "nonpayable",
			"type": "function"
		},
		{
			"inputs": [
				{
					"internalType": "address",
					"name": "holder",
					"type": "address"
				},
				{
					"internalType": "bool",
					"name": "exempt",
					"type": "bool"
				}
			],
			"name": "setIsExcludedFromTimeLock",
			"outputs": [],
			"stateMutability": "nonpayable",
			"type": "function"
		},
		{
			"inputs": [
				{
					"internalType": "address",
					"name": "holder",
					"type": "address"
				},
				{
					"internalType": "bool",
					"name": "exempt",
					"type": "bool"
				}
			],
			"name": "setIsExcludedFromTx",
			"outputs": [],
			"stateMutability": "nonpayable",
			"type": "function"
		},
		{
			"inputs": [
				{
					"internalType": "uint256",
					"name": "amount",
					"type": "uint256"
				}
			],
			"name": "setMaxTx",
			"outputs": [],
			"stateMutability": "nonpayable",
			"type": "function"
		},
		{
			"inputs": [
				{
					"internalType": "uint256",
					"name": "maxTXPercentage_base1000",
					"type": "uint256"
				}
			],
			"name": "setMaxTxPercent_base1000",
			"outputs": [],
			"stateMutability": "nonpayable",
			"type": "function"
		},
		{
			"inputs": [
				{
					"internalType": "uint256",
					"name": "maxWallPercent_base1000",
					"type": "uint256"
				}
			],
			"name": "setMaxWalletPercent_base1000",
			"outputs": [],
			"stateMutability": "nonpayable",
			"type": "function"
		},
		{
			"inputs": [
				{
					"internalType": "bool",
					"name": "_enabled",
					"type": "bool"
				},
				{
					"internalType": "uint256",
					"name": "_amount",
					"type": "uint256"
				}
			],
			"name": "setSwapBackSettings",
			"outputs": [],
			"stateMutability": "nonpayable",
			"type": "function"
		},
		{
			"inputs": [
				{
					"internalType": "uint256",
					"name": "_target",
					"type": "uint256"
				},
				{
					"internalType": "uint256",
					"name": "_denominator",
					"type": "uint256"
				}
			],
			"name": "setTargetLiquidity",
			"outputs": [],
			"stateMutability": "nonpayable",
			"type": "function"
		},
		{
			"inputs": [
				{
					"internalType": "uint256",
					"name": "Multiplier",
					"type": "uint256"
				}
			],
			"name": "set_sell_multiplier",
			"outputs": [],
			"stateMutability": "nonpayable",
			"type": "function"
		},
		{
			"inputs": [],
			"name": "swapEnabled",
			"outputs": [
				{
					"internalType": "bool",
					"name": "",
					"type": "bool"
				}
			],
			"stateMutability": "view",
			"type": "function"
		},
		{
			"inputs": [],
			"name": "swapThreshold",
			"outputs": [
				{
					"internalType": "uint256",
					"name": "",
					"type": "uint256"
				}
			],
			"stateMutability": "view",
			"type": "function"
		},
		{
			"inputs": [],
			"name": "symbol",
			"outputs": [
				{
					"internalType": "string",
					"name": "",
					"type": "string"
				}
			],
			"stateMutability": "view",
			"type": "function"
		},
		{
			"inputs": [],
			"name": "totalSupply",
			"outputs": [
				{
					"internalType": "uint256",
					"name": "",
					"type": "uint256"
				}
			],
			"stateMutability": "view",
			"type": "function"
		},
		{
			"inputs": [],
			"name": "totalTax",
			"outputs": [
				{
					"internalType": "uint256",
					"name": "",
					"type": "uint256"
				}
			],
			"stateMutability": "view",
			"type": "function"
		},
		{
			"inputs": [],
			"name": "tradingOpen",
			"outputs": [
				{
					"internalType": "bool",
					"name": "",
					"type": "bool"
				}
			],
			"stateMutability": "view",
			"type": "function"
		},
		{
			"inputs": [
				{
					"internalType": "bool",
					"name": "_status",
					"type": "bool"
				}
			],
			"name": "tradingStatus",
			"outputs": [],
			"stateMutability": "nonpayable",
			"type": "function"
		},
		{
			"inputs": [
				{
					"internalType": "address",
					"name": "recipient",
					"type": "address"
				},
				{
					"internalType": "uint256",
					"name": "amount",
					"type": "uint256"
				}
			],
			"name": "transfer",
			"outputs": [
				{
					"internalType": "bool",
					"name": "",
					"type": "bool"
				}
			],
			"stateMutability": "nonpayable",
			"type": "function"
		},
		{
			"inputs": [
				{
					"internalType": "address",
					"name": "sender",
					"type": "address"
				},
				{
					"internalType": "address",
					"name": "recipient",
					"type": "address"
				},
				{
					"internalType": "uint256",
					"name": "amount",
					"type": "uint256"
				}
			],
			"name": "transferFrom",
			"outputs": [
				{
					"internalType": "bool",
					"name": "",
					"type": "bool"
				}
			],
			"stateMutability": "nonpayable",
			"type": "function"
		},
		{
			"inputs": [
				{
					"internalType": "address payable",
					"name": "adr",
					"type": "address"
				}
			],
			"name": "transferOwnership",
			"outputs": [],
			"stateMutability": "nonpayable",
			"type": "function"
		},
		{
			"inputs": [
				{
					"internalType": "address",
					"name": "adr",
					"type": "address"
				}
			],
			"name": "unauthorize",
			"outputs": [],
			"stateMutability": "nonpayable",
			"type": "function"
		},
		{
			"stateMutability": "payable",
			"type": "receive"
		}
	]
}